:020000040800F2
:100000007044002009830008090400080B0400085C
:100010000D0400080F04000811040008000000008F
:1000200000000000000000000000000013040008B1
:1000300015040008000000002FA60008170400089F
:1000400033830008338300083383000833830008B8
:100050003383000833830008CF080008E108000854
:10006000F308000805090008170900083383000891
:100070003383000833830008338300083383000888
:100080003383000833830008338300083F040008EB
:1000900091040008BB040008E50400089D0700085F
:1000A00033830008E30500083383000809060008CD
:1000B00041060008B50600082907000829090008BC
:1000C0003383000833830008338300083D040008AD
:1000D0003B040008B7050008DB050008DF05000841
:1000E000350800083383000833830008DFF80CD09C
:1000F0000DF0E2F9004800475B030008704400205F
:100100007047704709F027B9704770477047A74894
:1001100010B50168491C01600A291CD10021016049
:100120004168491C4160C268521CC2606422B1FB34
:10013000F2F302FB131111B98168491C816008F0C8
:10014000B9FA09F003FF0024204601F049F9641CC4
:10015000E4B2032CF8D310BD9449496808448142A5
:10016000FDDB704710B500F06AFF02F0FAFD05F004
:10017000C1FBBDE8104005F0DBBF10B5827872B15D
:10018000012A0AD0022A11D0032A0BD0121F032AF7
:1001900003D28188D0B205F00FFA002010BDFFF71E
:1001A000E1FFFAE7002000F007FFF6E7002000F08B
:1001B00024FFF2E710B57E4A00217E4C1170C07812
:1001C00020707D4800684078092809D00D280AD0A1
:1001D0000BF07CFC10B120780BF087FC002010BDE8
:1001E0000BF0BEFBF6E70BF00EFCF3E708B5292099
:1001F0008DF8000000208DF80100684608F0B1FC81
:100200002A208DF8000001208DF80100684608F0D2
:10021000A8FC08BD10B5042008F019FC022001F06C
:1002200082FA08F00FFF00F091FE00F03BFE00F0B4
:10023000F3FE002000F0FCFE00F0B2FE00F0DCFE59
:1002400001F0B8F90AF0E1F838B15CA340F28F127E
:100250005EA1002008F0E4FB01E000F013FC04F0D4
:10026000E4FD08F023FCFFF7C1FF03F0BEFD05F03D
:10027000C6FD03F072FA09F055F805F0AFFF4FF62E
:10028000FF7364220221002008F0E3F9BDE810406A
:10029000012000F0B4BE10B5817831B101290CD035
:1002A000112905D0122908D105E0FFF7B3FF04E0BA
:1002B00002F0FEF901E005F039FA002010BD10B59A
:1002C0008178808802F0E9FC002010BD10B508306C
:1002D00002F06AFC002010BD10B500210A2008F0D1
:1002E000D8FA002805D000218170BDE8104008F040
:1002F000E7BA10BD0178C91E0C2912D2DFE801F05F
:10030000060711110C09110B0D10110E35E701F044
:100310002AB905F02FB9BEE7D1E74BE705F042BD9A
:10032000D4E700207047E5E708B508F0CFFEAFF24C
:1003300009034FF400722A49032008F0F6FA6A46CE
:1003400028A103200BF0C7F8FFF7C6FF00226423A3
:10035000114610460BF029FAF8E700B587B00AF00D
:1003600099F900214FF0006007F0A8FF4FF4A0605A
:1003700007F072FF0AF02BFA1D480DF1040C03235D
:1003800000228021ACE80F00062003460090194AA5
:10039000002119480AF047FF05AA18A106200BF012
:1003A0009AF80AF017FB07B0002000BD00000020FB
:1003B00040020020410200202CA20108496E69740D
:1003C00020534E56204572726F720000536F757243
:1003D00063655C4150505C6170702E6300000000EA
:1003E000600200204D61696E2D5461736B00000046
:1003F000600A00205C0C002029030008526F6F7413
:100400002D5461736B0000007047FEE7FEE7FEE7C6
:10041000FEE77047704710B50AF0E8F8FD49097823
:1004200019B1FD490A78521C0A700AF0E3F80AF083
:10043000E4FABDE810400AF05DBA7047704710B5A5
:10044000F64C0521204607F0C0FC012805D1052106
:10045000204607F001FD04F0C2FA0621204607F00D
:10046000B4FC012805D10621204607F0F5FC04F074
:10047000B6FA0721204607F0A8FC012807D107217A
:10048000204607F0E9FCBDE8104004F0A8BA10BD12
:1004900010B51421082008F0FCF904000CD000204D
:1004A0006070014604F10802DC4807F01CFC20469D
:1004B000BDE8104008F004BA10BD10B514210820A2
:1004C00008F0E7F904000CD00020607004F1080285
:1004D0000121D24807F007FC2046BDE8104008F093
:1004E000EFB910BD7047F8B5054600EB0510C0EB3D
:1004F000C511CB4800EB810440F22551D4F890019E
:1005000007F07BFE50B1D4F8900107F00FFE8DF894
:100510000000E8B20122694600F0A0FE40F2277711
:100520003946D4F8900107F068FE40F2266620B301
:10053000B4F88011B4F88201814204D10022394616
:10054000D4F8900117E0015DD4F8900107F0EAFDBE
:1005500094F88201401C00F07F00A4F8820194F816
:100560009C11002926D1B4F88011814209D10122C1
:100570003146D4F8900107F089FD94F89C010028D9
:1005800018D13146D4F8900107F037FE002811D079
:10059000B4F88001B4F8821188420BD1E8B200218E
:1005A00000F0DFFD3146D4F89001BDE8F8400022AC
:1005B00007F06CBDF8BD10B59A4C40F225512046AD
:1005C00007F01BFE002807D0204607F0AFFDBDE86E
:1005D0001040C0B201F025B810BD012083E7022011
:1005E00081E710B5904C0121204606F0C7FE002897
:1005F00009D00121204606F0CDFE0121BDE81040C2
:10060000032009F004BC10BD10B5874C0221204620
:1006100006F0B4FE002812D00221204606F0BAFEF1
:10062000204606F094FE00F57A7081B2204606F06E
:100630007DFE0221BDE81040032009F0E8BB10BD9B
:1006400010B501218C07204606F098FE38B1012133
:10065000204606F09FFE0121002009F0D8FB022170
:10066000204606F08BFE38B10221204606F092FEAD
:100670000221002009F0CBFB0421204606F07EFE7B
:1006800038B10421204606F085FE0421002009F03F
:10069000BEFB0821204606F071FE002809D0082183
:1006A000204606F077FE0821BDE81040002009F042
:1006B000AEBB10BD10B55D4C0121204606F05EFEBC
:1006C00038B10121204606F065FE0121084609F0F7
:1006D0009EFB0221204606F051FE38B10221204641
:1006E00006F058FE0221012009F091FB042120466A
:1006F00006F044FE38B10421204606F04BFE0421EA
:10070000012009F084FB0821204606F037FE00286E
:1007100009D00821204606F03DFE0821BDE8104022
:10072000012009F074BB10BD10B5414C01212046D9
:1007300006F024FE38B10121204606F02BFE0121EF
:10074000022009F064FB0221204606F017FE38B1B2
:100750000221204606F01EFE0221084609F057FB42
:100760000421204606F00AFE38B10421204606F096
:1007700011FE0421022009F04AFB0821204606F060
:10078000FDFD002809D00821204606F003FE0821BF
:10079000BDE81040022009F03ABB10BD10B5202082
:1007A00005F00CFE28B1202005F016FE052008F00B
:1007B00014FC402005F002FE28B1402005F00CFE9C
:1007C000062008F00AFC802005F0F8FD28B1802002
:1007D00005F002FE072008F000FC4FF4807420466C
:1007E00005F0ECFD28B1204605F0F6FD082008F0E4
:1007F000F4FB4FF40074204605F0E0FD002807D01C
:10080000204605F0E9FDBDE81040092008F0E5BBF1
:1008100010BD0000110200200C0200200064004006
:100820000011002000380140002C0140000400406D
:100830000008004010B54FF48064204605F0BEFD6E
:1008400028B1204605F0C8FD0A2008F0C6FB4FF489
:100850000064204605F0B2FD28B1204605F0BCFD3D
:100860000B2008F0BAFB4FF48054204605F0A6FD9B
:1008700028B1204605F0B0FD0C2008F0AEFB4FF487
:100880000054204605F09AFD28B1204605F0A4FD4D
:100890000D2008F0A2FB4FF48044204605F08EFDA9
:1008A00028B1204605F098FD0E2008F096FB4FF485
:1008B0000044204605F082FD0028A9D0204605F01E
:1008C0008BFDBDE810400F2008F087BBA0E710B5F6
:1008D000012005F081FDBDE81040002008F07DBB3F
:1008E00010B5022005F078FDBDE81040012008F0A9
:1008F00074BB10B5042005F06FFDBDE81040022068
:1009000008F06BBB10B5082005F066FDBDE810408F
:10091000032008F062BB10B5102005F05DFDBDE8B6
:100920001040042008F059BB7047D0E900BAD0E964
:1009300002981030F0C820A00CF05CFE594624A0AC
:100940000CF058FE514625A00CF054FE494626A056
:100950000CF050FE414627A00CF04CFE214628A08A
:100960000CF048FE294629A00CF044FE31462AA08E
:100970000CF040FE39462BA00CF03CFE2C480168E0
:100980002CA00CF037FE2A48103801682CA00CF07F
:1009900031FE27480C3801682CA00CF02BFE2448AF
:1009A000083801682CA00CF025FE2148001D0168C4
:1009B0002CA00CF01FFEFEE75B48617264206661AC
:1009C000756C742068616E646C65725D0A0000006D
:1009D0005230203D2025780A000000005231203D91
:1009E0002025780A000000005232203D2025780A98
:1009F000000000005233203D2025780A000000004E
:100A0000523132203D2025780A0000004C52203D12
:100A10002025780A000000005043203D2025780A58
:100A200000000000505352203D2025780A000000AD
:100A300038ED00E042464152203D2025780A000072
:100A400043465352203D2025780A00004846535221
:100A5000203D2025780A000044465352203D2025A1
:100A6000780A000041465352203D2025780A0000B4
:100A7000F748704709F0D3BCF64800887047F5483E
:100A80004088704770B52221F3480CF0B4F8F14A61
:100A90000221212009F031FDEE4C002500B1258016
:100AA000EC4A0821121D222009F027FD38B9E84937
:100AB000E84822221631001D0CF0C7F858B1E4486E
:100AC000E44A801E121D81696160C069A06008212E
:100AD0002220FFF7CFFFDF4A0221921CB02009F04D
:100AE0000CFD00B16580DC4A1021A02009F005FD55
:100AF00018B1DAA1D8480CF0B5F8D74A1021113254
:100B00001446A12009F0F9FC18B1D6A120460CF03A
:100B1000A9F8D14A1C212432C02009F0EEFC98B17A
:100B2000CD48D2492430016041F2A90141601D2124
:100B30008160CF49C1606FF00D01016141F2B16187
:100B400041614FF480318161BDE87040C248142298
:100B5000C84940300CF036B870B5C74B1C682270DD
:100B60001D6809246C701C68A0701868C01C0CF00B
:100B700029F8C2480078BDE870400AF0B6BF2DE9F8
:100B8000F04116460F46054609F030FD804606F056
:100B9000BCFC284606F0F3FC002406E03959284640
:100BA00006F091FD2D1D241DA4B2B442F6D306F02B
:100BB000B8FC404609F01EFD0020BDE8F08170B58C
:100BC000044608F0C8FBA44920684FF420758864E7
:100BD0006068C8642089A74CA1F85000803C2A4670
:100BE0002146A7480BF0EEFF9B4914224031A1F5A6
:100BF00070700BF0E7FF08F0AEFB2A46A0492046D4
:100C0000FFF7BDFF0A2070BD93498A6C0260CA6C71
:100C10004260B1F8501001810A20704710B5C11C24
:100C2000182297480BF0CEFF192010BD70B5884DE3
:100C300001466D1E1446681E2A5D035D9048C91C5E
:100C4000803018440BF0BEFF285D401CC0B270BD60
:100C500000210160192070477D4A921E525C80324B
:100C600002607B48401E405C401CC0B270472DE9CA
:100C7000F84F1D4614468A46064608F06CFBDFF81E
:100C8000F4814FF42079A8F180084A4641467C4817
:100C90000BF098FFB278002742B1012A0DD0022A4A
:100CA0000BD0032A09D0FF20BDE8F88F514630460B
:100CB000FFF7B4FF034600970AE0521E5146304644
:100CC000FFF7B4FFB1780346491E6846FFF7C4FF3B
:100CD0002770D02060706A4800991A460144E01CD1
:100CE0000BF070FF08F037FB4A4665494046FFF7B6
:100CF00046FFA07808B900F048FA2878217808441F
:100D0000801C28700020CFE738B51D460346807848
:100D1000144618B1012805D0FF2038BD00200090EE
:100D2000192003E000216846FFF796FF9978A1702B
:100D3000411C217010216170421E4E49009880397B
:100D40000144E01C0BF03EFF287821780844801C09
:100D50002870002038BD002070474B494948086082
:100D600070472DE9FC4115468778C2798179CDE934
:100D700000121C4607F26C7743790279C17800268D
:100D8000384608F067FB2E70C02068702078801C01
:100D90002070BDE8FC8170B51D46144608F015FDB5
:100DA00006202070C120607038480179A1F26C7172
:100DB000A1708179E170C179217101786171417807
:100DC000A1718078E07128780830287070BD70B506
:100DD000841C1D46807808F002FD29490120087016
:100DE000C2204870207888702878C01C287070BD98
:100DF00070B5447800251646D12C13D008DCC02CE1
:100E000016D0C12C19D0C22C1CD0D02C47D104E054
:100E1000F02C41D0F12C42D13AE00A463146FFF79E
:100E200026FF03E00A463146FFF76EFF054636E02F
:100E30000A463146FFF795FF31E00A463146FFF793
:100E4000AAFF2CE00A463146FFF7C1FF27E0000069
:100E50006AEB0008100000206010002041444D495A
:100E60004E0000003836303836300000EE9D0E005F
:100E70002063E2FF80F4010830A201084102002053
:100E8000600C00200400FA050CED00E02C3200207C
:100E9000012000F0B4F802E0012000F097F82846A5
:100EA00070BDA5E72DE9F047264D274E00244FF4ED
:100EB000047905F10208285D494607F043FF18F858
:100EC0000410285D07F06AFF06EB44100746202156
:100ED0000BF091FE3C70641C022CECDBBDE8F0874B
:100EE000184A105C07F05ABF164910B5085C07F0A5
:100EF00048FF002800D0012010BD1249085C07F00F
:100F00005CBF10B5044600780021FFF7E9FFE069F7
:100F1000002802D0BDE81040004710BD7CB50D464A
:100F2000094901EB40140121E261FFF7D9FF201DBF
:100F3000AFF23103CDE900402A460021104608F007
:100F4000CEFF7CBD89EB0008B410002070B50121F4
:100F5000114805F029FB01214FF0C05005F0E0FCDD
:100F6000012005F07DFB002005F06CFC002005F061
:100F700077FB0A4D00244FF41276285D314607F0C6
:100F8000E1FE641C012CF8DB70BD044910B5085C5F
:100F900007F0F7FEC0B210BD000430008DEB000872
:100FA00010B54FF404710F2007F0CCFE0121BDE80D
:100FB00010400F2007F0F2BE08B1002100E001212F
:100FC0000F2007F0EBBE0F2007F0F7BE10B50400AE
:100FD0000ED00120FFF7F0FF642044430A20B4FB49
:100FE000F0F200230121BDE81040032007F031BBDF
:100FF000BDE810400020DFE77047704770470028C9
:1010000009D0642148430A21B0FBF1F200230121F9
:10101000022007F01EBB704710B54FF404710E207C
:1010200007F090FE0121BDE810400E2007F0B6BE8B
:1010300008B1002100E001210E2007F0AFBE0E2014
:1010400007F0BBBE38B50D4600EB0011C1EBC01177
:10105000FE4800EB810494F88C01A84209D0D4F832
:10106000B8013DB1002804D109F03DFEC4F8B80133
:1010700028B938BD18B16A46012109F01DFF84F86E
:101080008C5138BDF0B5054600EB0510C0EBC5111D
:10109000EE4885B000EB8104D4F8B01100295ED091
:1010A00028468847D4F89001002858D004F5C87421
:1010B000002620798DF810000F208DF811008DF892
:1010C000126001278DF8137004A807F0CAF8206990
:1010D0000090207DDE4931F81000ADF80400607DFD
:1010E000091D31F81000ADF80600A07D891D31F80A
:1010F0001000ADF808000C20ADF80C60ADF80A0047
:10110000207A694608F04AFF2068A4F5C8740122D5
:1011100040F2255106F0BAFFCC480C3850F82510A3
:1011200051B994F88C1140F8257084F88C612846E8
:10113000C4F8B861FFF786FF94F8A701A4F8880106
:1011400094F89C0100280AD194F8AC014FF4447142
:1011500007F0F8FD94F8AC01002107F01FFE05B080
:10116000F0BD00EB0012C2EBC012B84800EB8200E9
:1011700090F89C21002A07D190F8AC0109B1012117
:1011800000E0002107F00ABE704710B50024E0B26D
:10119000FFF778FF641C032CF9DB10BD70B5154612
:1011A0000E460246032819D202EB0210C0EBC21110
:1011B000A64800EB8104B4F88211B4F880018142A2
:1011C00001D1802007E0081A8030C11700EB51617F
:1011D00021F07F01401A80B2A84201D2002070BDE8
:1011E00001211046FFF7BDFFB4F88001B4F8821169
:1011F000884203D3C0F18002AA420ADD20442A4675
:1012000031460BF0DFFCB4F880012844A4F88001DB
:1012100010E0204431460BF0D5FCB4F88001C0F159
:1012200080008119281A85B220462A460BF0CAFC94
:10123000A4F88051012240F22771D4F8900106F001
:1012400025FF012070BD00EB0012C2EBC0107F4AE9
:10125000002102EB8000A0F88A1170472DE9F041CF
:10126000064600EB0610794BC0EBC61003EB80047A
:101270001546B4F88621B4F884010F46824202D1A3
:101280004FF480710AE0111A01F580714FEAE17C98
:1012900001EB1C6C2CF0FF0CA1EB0C0189B2A942F4
:1012A00002D20020BDE8F08106EB06114FF0800C61
:1012B000C1EBC6110CEB8101904203D3C0F58072E3
:1012C000AA420BDD184408442A4639460BF07AFC42
:1012D000B4F884012844A4F8840112E018440844B6
:1012E00039460BF06FFCB4F88401C0F58070C11969
:1012F000281A85B204F180002A460BF063FCA4F89A
:1013000084513046FFF79FFF0120CBE700EB00122E
:10131000C2EBC0124D4800EB8200A0F88811A0F883
:101320008A1170472DE9F047064600EB0610474F3B
:10133000C0EBC61007EB80048846B4F88601B4F809
:101340008411C0F580700844C11700EB116121F0D1
:10135000FF01401A80B21546824200D3C5B2E5B300
:1013600009F044F98146B4F88601B4F8842180215B
:1013700006EB0613C3EBC61301EB8301904204D2C4
:10138000384401442A46404613E0C0F58072AA4220
:10139000F6DC3844014440460BF014FCB4F88601F6
:1013A000C0F58070291A0A04120C04D004F18001DF
:1013B00040440BF007FC94F886012844C0B2A4F81E
:1013C0008601B4F88411884204D10020A4F8840175
:1013D000A4F88601484609F00DF92846BDE8F087D3
:1013E00070B5054600EB0510C0EBC511174800EBC2
:1013F0008100B0F88611B0F88421914235D0B0F860
:101400008A315B1C9BB2A0F88A31B0F88841A342B4
:101410002BD3C1F580711144CA1701EB126222F07F
:10142000FF02891A8EB290F88C1131B1D0F8B80150
:10143000BDE87040012109F07ABD3146042007F073
:1014400028FA040011D0F2B204E0000000110020DC
:101450008EEB000804F108012846FFF763FFA57032
:101460002046BDE8704007F02BBA70BD70B500EBA8
:10147000001100F11003C1EBC011434800EB8104DF
:1014800004F5D0752A460C21184609F036F820B12B
:101490002846FF220C210BF0A7FBD4F8A001B0F5E1
:1014A000E13F03D94FF41650C4F8A00194F8A411F9
:1014B0000020022901D384F8A40194F8A51103297E
:1014C00001D384F8A50194F8A611032901D384F867
:1014D000A60194F8A7010221FA2801D8022801D216
:1014E00084F8A71170BD00EB0011C1EBC0102649B4
:1014F00001EB800090F88C01704700EB0011C1EB0C
:10150000C011214800EB8100B0F88611B0F88401C9
:10151000814201D1012070470020704710B5044678
:1015200000EB04101849C0EBC41001EB8000D0F8A8
:10153000900106F0F9FC2046BDE81040A2E500EB62
:101540000011C1EBC011104800EB8100B0F882110E
:10155000B0F88001081A8030C11700EB516121F00A
:101560007F01401A704710B5817803290AD201EB38
:101570000112C2EBC112044901EB8201D1F8B4118E
:1015800001B18847002010BD0011002010B50C46A5
:10159000480702D000200AF0CAFAE00609D56448DC
:1015A0000078C10701D1800703D5BDE8104008F0DD
:1015B0004FBD10BD10B586B000244FF4E13000904F
:1015C000ADF808400C20ADF80440ADF80A00ADF8C5
:1015D0000640ADF80C406946204608F0DFFC2520A7
:1015E0008DF810000F208DF811008DF812400120A9
:1015F0008DF8130004A806F034FE012240F22551B4
:101600004C4806F043FD4FF402714B480BF0F3FADF
:10161000AFF287004849C1F804020AF00FFB06B098
:1016200010BD454991F80022885401F500710878F1
:10163000401C08704A6804210020104710B53D4C3A
:101640000146204606F06EFD4021204606F0CBFD07
:101650000028F9D010BD70B50D460646002404E000
:10166000305DFFF7EBFF641CE4B2AC42F8D33248C4
:101670001021D0F80422BDE870400020104770B55A
:10168000BF2A11D82D4B1C6822701D6809246C706C
:101690001C68A0701868C01C0BF094FA28480078E9
:1016A000BDE870400AF021BA70BD4030C0B2E6E734
:1016B00010B514460A4608B1002010BDE1B210462C
:1016C000FFF7C9FF204610BD78B91B4A92F80032D7
:1016D00092F80102834208D0105C087092F801026F
:1016E000401C82F80102012070470020704710B5AD
:1016F00004460BF095FA2146C2B2BDE810403020F6
:10170000BDE70FB40F4900B5096891B0884207DC06
:1017100014AA684613990BF099FF6846FFF7E7FF94
:1017200011B05DF814FB052801D206490860704726
:1017300047020020003801403416002030A2010882
:10174000410200201C00002070B50D460BF05EFA2F
:10175000002404E000F8014B29460BF057FA00285A
:10176000F8D170BD70B504680646002C1FD0204625
:101770000BF056FA00281AD00BF00EFA0546006856
:101780002178415CC90701D0641CF9E720460BF0C1
:1017900047FA0119491E002201E001F80129A1427E
:1017A00004D30B782868C05CC007F6D1346070BDE4
:1017B00070B51C46154610600BF028FA2060002812
:1017C0000BD0002101702068401C20602846FFF7E4
:1017D000C9FF2046FFF7C6FF012070BD2DE9FE4F6F
:1017E0001C468946022A55D30178412952D14178B5
:1017F00054294FD100268654921E12F0FF0500F1A5
:10180000020723D038780D2820D00A281ED00822BD
:10181000DFF8F08178A0082D03D339460BF02BFABE
:10182000F0B14FF0050A78A0052D05D35246394690
:101830000BF021FA002872D075A0052D2AD352464C
:1018400039460BF018FA00286AD023E04F2189F8B6
:1018500000104B2189F801102078801C1870C9E015
:1018600007F1080001AB02AA3D21FFF7A1FF88B1F3
:101870000025694F08E007EB8600C16802980BF06D
:10188000D6F950B16D1CEDB205EB850637F8260090
:101890000028F0D1FF20BDE8FE8F019801783F2994
:1018A0000BD005EB850107EB8105297A01292CD0A6
:1018B00002292FD0042934D036E005EB850007EB50
:1018C000800598F80000A97A814251D8687A18B149
:1018D00052A16B68EA680CE02A7A684669680BF0E6
:1018E00071F9287A012806D0022807D0009BEA68FF
:1018F0004CA1484674E09DF80030F8E7BDF8003090
:10190000F5E721780844207074E00BF0C3F98DF8F6
:10191000000009E00BF0BEF9ADF8000004E02DE096
:1019200066E00BF0B7F90090687AD8B101980BF037
:1019300077F9297A884203D8686801990BF092F9FF
:10194000A97A98F80000814212D8297A37F826003F
:101950006A46FFF78FF82969044609B16846884747
:10196000204698E72A7A694668680BF02BF9E7E782
:101970002EA14846EA680BF04DFEC2E720A0019078
:101980001FA07D1D009026212846FFF7DDFE28467A
:101990000BF046F928B1284601950BF041F90544B2
:1019A0006D1C28460BF03CF918B1284600950BF049
:1019B00037F901A8FFF7D6FE6846FFF7D3FE2148A6
:1019C00001990BF034F928B91E48009911300BF039
:1019D0002EF940B188F800601BA1DDE900324846CD
:1019E0000BF018FE8DE7012188F800101BA1F4E729
:1019F00004F0F5FA00204EE72B434F4E4649473D91
:101A000000000000200000202B4C4F473D0000004C
:101A10002B4442473D000000A0EB000825733A2507
:101A20007300000025733A2575000000636F6E6631
:101A300069672025733A20756E617574686F7269E5
:101A40007A656400601000204C4F472025732625DE
:101A5000733A204661696C65640000004C4F472072
:101A600025732625733A205375636365656400000A
:101A70002DE9F8430546481E0C46164683B26F1DF5
:101A8000009281B2A5F10508BAB21FFA88F002F0FF
:101A90005AFAA3B2BAB2A1B21FFA88F0009602F0C5
:101AA00052FA601C83B281B2BAB21FFA88F0009673
:101AB00002F049FA681E671D82B2A4F10508BBB2A4
:101AC0001FFA88F180B2009602F03DFABBB2AAB2CA
:101AD0001FFA88F1A8B2009602F035FA6D1CBBB26D
:101AE000AAB21FFA88F1A8B2009602F02CFABDE85B
:101AF000F88308B500924A1D93B2421D491F401F4A
:101B000092B289B280B202F0D4F908BDFE4A91695E
:101B1000814201D0C2E906017047F0B5002200E021
:101B2000521C835C202BFBD0092BF9D0DCB22D2C6E
:101B300005D04FF0010605D02B2B03D003E04FF06A
:101B4000FF36F8E7521C00236FF02F070B6007E009
:101B50000C68521C04EB840407EB440423440B6020
:101B6000835CA3F13004092CF2D9DBB22E2B00D117
:101B7000521C01230AE00D6803EB830305EB850586
:101B800007EB45052C445B00521C0C60845CA4F1FF
:101B90003005092DEFD908684FF47A727043086058
:101BA000934204D2B2FBF3F242430A60F0BDB3FBAE
:101BB000F2F2B0FBF2F00860F0BD10B50078022838
:101BC0000CD003280AD0042809D000210846FFF7CA
:101BD00087F9CE484FF0FF310166416610BD012103
:101BE000BDE810400020FFF77BB908B50021009048
:101BF00040F23F13EF22084602F05BF908BD08B53A
:101C0000002100908623EF22084602F052F908BD19
:101C100008B540F23F130090EF228821002002F027
:101C200048F908BD08B54FF6FF70009040F23F1329
:101C3000EF224FF48C71002002F03BF908BD704791
:101C4000F0B501250024264603E005EB85056D006F
:101C5000761C9642F9DB90FBF5F6AC4F05FB1600BF
:101C6000203F4FF00A0EB44696FBFEF60EFB16CC54
:101C70000CF1300C07F804C0641C002EF3DC26467F
:101C80004FF0200C03E007F804C0641C761C8E4261
:101C9000F9DB002105E0661A3E4416F8016C5E543B
:101CA000491CA142F7DB2E211955641C00210AE0D2
:101CB00095FBFEF590FBF5F606F130071F55641C09
:101CC00005FB1600491C9142F2DB00201855F0BDBF
:101CD0000B4601220221B3E70B4603220121AFE7A5
:101CE00010B5044604210A2006F0D3FD002806D0D2
:101CF000112181708460BDE8104006F0E1BD10BD87
:101D0000F8B506461D460C4610460AF089FF014606
:101D10007D48806902780095407802FB016220448A
:101D200083B290B2A1B2EF2202F0E7F8F8BD70B52D
:101D3000764D2878800726D4754BCD225F217548D3
:101D400009F0AAFF7348724BCF2261219E3809F037
:101D5000A3FF95F82A000A2802D90A2085F82A004C
:101D6000002461260BE004EB440006EB400081B246
:101D70006848CF22664B9E3809F08EFF641C95F8A8
:101D80002A00A042EFDC70BDF8B5604D0646287809
:101D9000800715D4688A002100902123EF2208468D
:101DA00002F01BF958481121324684696078A1EB92
:101DB0005000A98A009181B2A4686B8A0820A047CC
:101DC000F8BD642190FBF1F010B586B001A9FFF7D2
:101DD0007FFF4E4C2023ED22A08A00900121782025
:101DE00002F067F801A80AF01BFF47498A691178D9
:101DF0004908484351781123A3EB5101A38A00936A
:101E0000638AC0F1B300946889B280B201AAA04786
:101E100006B010BD2DE9F0433C4C814689B02078D6
:101E200080076FD404F17C00FFF770FE364EB525B5
:101E300030680128A08A0090638A1BD0E07E0128C8
:101E40001ED035A2B7694A21B520BF68B847F069EE
:101E5000FFF75CFE2D488C30FFF758FEE07E002730
:101E60000028484629D02E494FF07E58894509DA86
:101E70002C480BE0B2694A21B52097682AA2E5E711
:101E800029A2DFE7014640460AF047FF28494045BE
:101E900007DA0AF00CFF0BF0B7F8032201AB0121BF
:101EA00006E00AF004FF0BF0AFF8032201AB114685
:101EB000FFF7C6FE8DF8097010E00BF0DDF81D4A43
:101EC0001D4B0AF06AFF00221C4B0BF00DF80BF0C3
:101ED000B4F801A9FFF7FCFE8DF8087001A80AF01C
:101EE0009FFEB1690A7802FB105548784921A1EBA1
:101EF00050070A3D01A80AF093FE042826D8A08ABC
:101F000061231DE02EE00000240000205C1800206A
:101F1000E73E0008B40E01084DA6B82E636D000020
:101F20006F12033A0000FA44A6CC532F636D0000F1
:101F300000007A449A9999999999A93F0000244000
:101F40000090B3222521282001F0B3FFA08A009041
:101F5000B269638AB9B29468A8B201AAA047F069CD
:101F6000FFF7D4FD09B0BDE8F08338B5F94C05465C
:101F70006323608A0090EF222321002002F02DF8D5
:101F8000207FF54A0028A08A00909269638A4FF06A
:101F90003C0194684FF0080005D0F0A2A047284605
:101FA000BDE8384036E7EEA2F8E770B5E94C8AB0F4
:101FB00060642178890738D494F86A10002934D0F5
:101FC000217F002931D10BF057F80022E54B0AF0B0
:101FD000E4FE0BF032F80246E3A101A80BF01AFB75
:101FE00001A80AF01DFEDC4DAA691178484351781A
:101FF0007723A3EB5101A38A0093C0F13E009668BA
:10200000638A89B280B201AAB04704F17C00FFF76D
:102010007DFDA08A0090A869638A73218468D3A299
:102020004620A047E869FFF771FD0AB070BD70B5A2
:10203000C84C86B0207880072AD401AB0122022147
:10204000E06CFFF7FDFD01A80AF0EAFDC24DAA69A8
:102050001178484351787723A3EB5101A38A009369
:10206000C0F1D4009668638A89B280B201AAB047F1
:1020700004F17C00FFF74AFDA08A0090A869638AFA
:1020800073218468BAA2DC20A047E869FFF73EFD0F
:1020900006B070BD38B50446AE480D4601788907D4
:1020A0000ED4408A00908723EF226621002001F0A1
:1020B00094FF2046FFF779FF2846BDE83840B6E791
:1020C00038BD70B5A34C86B020788007E0D494F872
:1020D0004020642A00D36422A3A101A80BF09AFA3D
:1020E00001A80AF09DFD9C4DAA69117848435178DA
:1020F0001123A3EB5101A38A0093C0F1DE0096687F
:10210000638A89B280B201AAB04792487C30FFF757
:10211000FDFCA08A0090A869638A1021846895A2BA
:10212000E120A047E869FFF7F1FCB1E770B5894C01
:1021300005462268900720D4500707D54FF6FF7058
:10214000FFF766FD206820F004002060824C2946DD
:10215000A06809F0D8FE2946E06809F0D4FE2946B7
:10216000606809F0D0FE2946206909F0CCFE2946B6
:102170006069BDE8704009F0C6BE70BD70B5754CB1
:1021800005462078800711D4A08AFFF738FD28463D
:10219000FFF7FAFDFFF795FFA06CFFF7E6FEE16C95
:1021A000606CFFF777FFBDE87040C0E570BD38B5E3
:1021B000694C1546FF2810D1FF290ED110460AF0B0
:1021C0002FFDA1690A78497852085043A022A2EB5A
:1021D0005102C0F17800A2EB51015E4A89B280B28F
:1021E000938A0093538AA26994682A46A04738BD0F
:1021F0005848401DE1E410B507F0ADF85548C01D42
:1022000041880180C01F082141725321817210BD95
:10221000504810B502220021283007F0B8F830B934
:1022200055A340F63F0258A1002006F0F9FB4948AB
:10223000018DA1F57F42FF3A01D10021018510BD3A
:10224000444810B502220021283007F0C3F80028C6
:1022500007D1BDE8104052A340F64F024AA106F054
:10226000DFBB10BD70B53B4D2C8DFFF7D1FF288D26
:10227000A04203D02C85BDE87040E1E770BD354831
:1022800010B5022200212A3007F081F8002807D17A
:10229000BDE8104046A340F664023BA106F0C0BB77
:1022A00010BD2C4810B5022200212A3007F092F808
:1022B000002807D1BDE8104042A340F6740232A1C5
:1022C00006F0AEBB10BD70B5224D95F82A40FFF761
:1022D000D6FF95F82A00A04204D085F82A40BDE830
:1022E0007040DEE770BD70471A4A927E012A01D025
:1022F00039A200E03BA25AE7164900204978CA07F4
:1023000002D1890700D50120704710B588B00C466E
:102310000346FFF7F1FF06228DF8002000218DF81B
:10232000011004218DF8021011218DF803100121F4
:102330008DF804108DF80530CDF8064002F02BFB27
:102340009DF80010091DCAB2694603F030FA08B0C2
:1023500010BD00005C180020240000204850000040
:10236000555000000000E03F2564000070706200DE
:10237000A1E6000025000000726561642071747799
:10238000206661696C000000536F757263655C4183
:1023900050505C646973706C61792E6300000000BA
:1023A000777269746520717477206661696C0000CA
:1023B000726561642071747773706565642066610D
:1023C000696C000077726974652071747773706549
:1023D0006564206661696C00456D70747920546194
:1023E0006E6B0000CBAECFE4BFD500001FB50C462E
:1023F0000346FFF781FF03228DF8002000218DF8AE
:10240000011001218DF8021011218DF80310072110
:102410008DF804108DF805308DF8064002F0BBFAF7
:102420009DF80010091DCAB2694603F0C0F904B056
:102430008EE71FB504238DF8003000228DF80120AF
:102440008DF8023091238DF8033007238DF8043086
:102450000B788DF8053049788DF806108DF8072037
:1024600002F099FA9DF80010091DCAB2694603F0FE
:102470009EF9DCE71FB50346FFF73EFF02218DF80A
:10248000001000218DF8011004228DF80220112285
:102490008DF804108DF803208DF8053002F07BFADA
:1024A0009DF80010091DCAB2694603F080F9BEE725
:1024B0001FB50346FFF720FF02218DF80010002111
:1024C0008DF8011004218DF8021011218DF80310F0
:1024D00003218DF804108DF8053002F05CFA9DF8A8
:1024E0000010091DCAB2694603F061F99FE7FC4874
:1024F00010B5002180F83D10807E012801D0F9A0A0
:1025000000E0FAA0FFF73AFEBDE8104001200DE61A
:10251000F34810B5012180F83D10807E012801D0DC
:10252000F4A000E0F5A0FFF729FEBDE8104001206F
:10253000FCE5704710B5FFF75EFEFFF759FEBDE8FA
:102540001040D4E7E64800214172817241718171E7
:10255000F0E710B5FFF74FFEFFF74AFEBDE8104069
:10256000D6E7DF48012141720021817241718171FA
:10257000EFE7DB4810B5807E012801D0E1A000E044
:10258000E2A0FFF7FBFDBDE810400120CEE50021F1
:102590000846BAE600210846B7E610B50446FFF73C
:1025A0002AFEFFF725FEFFF7E4FF002C03D1BDE86C
:1025B000104001205EE7CBE6C94902224A720022A0
:1025C0008A7201234B718A71E7E7F5E72DE9F04143
:1025D000C34F86B0387880074ED497F82B0020B1CF
:1025E000388D01A9FFF774FB03E0CAA101A80AF026
:1025F00039FBBB4879226C30C84E01784FF6FF7822
:102600004908494202EB81054178B2690520B1FBD6
:10261000F0F15378CDF80080B3FBF0F0084400EB04
:102620004004D034D2F808C07B8AA1B2A8B201AA73
:10263000E047AB487C30FFF769FA97F82B00CDF8FC
:1026400000800028F069B26941785378214400780D
:10265000A1EB030105EB800001F102017B8A00F18F
:102660000100946889B280B201D0ADA200E0ADA2B1
:10267000A047F069FFF74AFA06B0BDE8F081FFF71E
:1026800056BBA3E7A2E7FFF752BB1AE5944810B583
:10269000807E012805D0042801D0A3A002E0A5A0D7
:1026A00000E0A6A0FFF76AFDBDE8104001203DE56F
:1026B0008068002800D00047704710B530B98848BE
:1026C000018D642041430120FFF71FFEFFF793FDBA
:1026D000FFF78EFDFFF7DAFFFFF7C4FDBDE81040FE
:1026E000F1E57F4810B5807E012805D0042801D08F
:1026F00095A002E096A000E097A0FFF73FFDBDE89F
:102700001040012012E57047AFF20500FFF7E8BA6C
:1027100010B50446FFF76FFDFFF76AFD24B94FF0CF
:10272000FF310120FFF7F1FDBDE81040D9E76C490A
:10273000032202234A7200228A724B718A71521E4E
:102740000A664A66E4E7664810B5042180F83D1041
:10275000807E012805D0042801D081A002E084A059
:1027600000E087A0FFF70AFDBDE810400120DDE48E
:1027700010B5FFF740FDFFF73BFDBDE81040E2E775
:1027800057480721417200218172042242718171F0
:10279000EEE72DE9F84F1E46814612F806B00020FC
:1027A000DDF82CA0DFF8748190551546CDF800A017
:1027B000D8F818200C4689B297681FFA89F02A4683
:1027C0000A9BB84728460AF02BFAD8F81820A1B27D
:1027D000137800FB03970A980090D2F804C0B8B2AF
:1027E00053465A46E047D8F8181035441FFA84FC7F
:1027F0000878CDF800A007448E686A1CB8B261461C
:102800000A9BB04736486A1C2146C38A01B0384645
:10281000BDE8F04FFFF774BA2DE9FC5F1D46814615
:1028200012F805A00020DDF838B03C4F5055144692
:10283000CDF800B0BA69884689B296681FFA89F067
:1028400022460D9BB04720460AF0EAF9B9695B467B
:102850000A7804F805A000FB02990C9804EB050A1D
:102860002E180020A15D0191A0550D980090BA6925
:102870001FFA88F11FFA89F095685246A84750461A
:102880000AF0CEF9B9693219097800FB0190019973
:10289000A155CDF800B0BB691FFA88F180B29C68E1
:1028A0000D9BA047BDE8FC9F7047704708B1012809
:1028B00003D1012901D1002039E770470848018D73
:1028C00061B10421417252218172032141710021C1
:1028D0008171491E016641660020EEE654E0000069
:1028E0005C1800205374616E64627900B4FDBBFA19
:1028F000000000005265616479000000BECDD0F791
:102900000000000052656369722E0000D1ADBBB7B4
:1029100000000000202020200000000024000020F3
:102920004C00000020000000566F6C20446973705A
:1029300000000000566F6C2041757300B6A8C1BF3F
:10294000C8A1CBAE00000000446973702E000000E7
:102950004175736761626500B2FACBAE000000009A
:1029600050726573737572652052656C6965660097
:10297000447275636B2061626C617373656E0000F5
:10298000D0B920D1B9000000002015E608B1012817
:1029900000D193E7704708B1012802D1012900D185
:1029A000F5E57047FE4A127A502A02D0522A01D128
:1029B000F1E7EBE7704708B1012802D1012900D106
:1029C000E8E57047F64A127A002A00D1F3E770472B
:1029D00008B1012803D1012901D10020A7E67047E1
:1029E000EF4A127A002A00D1F2E770477047EC4AAA
:1029F000127A002A00D159E77047002058E50120DB
:102A000056E510B5E64C208D00280DD094F82B101B
:102A100029B1401E0004000C208506D008E0FFF715
:102A2000D5FD012084F82B0092E4002084F82B00CF
:102A3000BDE81040CAE510B5D94C94F82B0048B158
:102A4000208D40F2E731884201D2401C2085BDE84C
:102A50001040BBE5FFF7BAFD012084F82B0077E4B6
:102A6000CF4890F83D00012803D0032803D100206F
:102A700000E50020A0E57047C94890F83D10052901
:102A800013D2DFE801F003060C060F00012108460F
:102A90000AE090F82B0000B110E7002038E6002192
:102AA000084632E401210020A0E4704738B504460E
:102AB000BCA341F24A02AFF230710090042005F04D
:102AC000AFFF062C16D2DFE804F00306090C0F1145
:102AD000BDE83840D0E7BDE83840C1E7BDE8384040
:102AE000A9E7BDE838408CE7012000E00020BDE800
:102AF0003840DDE438BDF8B5A94E307FF8B1AFF20B
:102B0000A474A7488C30FFF701F8B52520460AF0D9
:102B100087F8A74F01464FF6FF73B869027802FBAA
:102B20001152318B1E3A009196B285685D21224682
:102B30003046A847F869BDE8F840FEF7E7BFAFF2B6
:102B4000E074DEE710B506F006FC9548C17905296A
:102B500016D2DFE801F003090C0F1200007A0028FA
:102B60000ED1BDE81040C2E4BDE81040D0E4BDE89D
:102B70001040FEE4BDE81040B3E5BDE8104085E537
:102B800019E5874A10B5116860F34101116040B141
:102B900041F004001060108BFFF727F8BDE81040EB
:102BA000A9E7BDE81040CDE770B57D4D0446A87893
:102BB000002825D1E88101F09AFE30B9A08820B123
:102BC000BDE87040012001F07FBE2878800705D560
:102BD000A08818B1BDE870400020D2E7A088C107E6
:102BE0000FD180070DD595F8511020884140C907B5
:102BF00003D0C00701D1FFF759FF207885F85100B5
:102C000070BD2046BDE8704009F08BB96448C079BA
:102C1000072800D0B4E570476148C079022801D088
:102C20000120C9E470475E48C079032803D0042816
:102C300001D001207BE570475948C079012800D0B8
:102C40008FE470475648C079002800D07AE4704776
:102C500070B50224524D052814D2DFE800F00306B7
:102C6000090C0F00FFF7EEFF0AE0FFF7E5FF07E0B2
:102C7000BDE87040D7E7FFF7CFFF01E0FFF7C6FFE1
:102C800085F8694070BD08B1012805D1012903D13B
:102C9000434890F83D00DBE770472DE9F041404E96
:102CA00005460C46B07800284FD184463146481975
:102CB0003831A6F80EC04B78012707FA05F20978DB
:102CC000934364B1114240D1114386F8381086F81D
:102CD000393080F83A7001F00AFE40B109E09143C2
:102CE00086F8381086F8393080F83AC0F3E7012CBE
:102CF0000ED03078800701D5012C0ED006F02BFBCA
:102D0000F079052821D2DFE800F0200C11161B0015
:102D1000BDE8F041012001F0D7BDBDE8F041002041
:102D20002FE721462846BDE8F04160E621462846C7
:102D3000BDE8F04154E621462846BDE8F04141E6B1
:102D400021462846BDE8F0412CE696E4144919488E
:102D5000022208624260096A002088747047F5E721
:102D6000704710B50E4C2046A17890F83D0039B15F
:102D7000491E11F0FF01A17040D1BDE8104067E786
:102D8000218A491C218294F83810F1B1C9071CD05E
:102D900094F83910CA0718D194F83A20521C0BE065
:102DA0005C18002062746E2025640D0A000000008B
:102DB00024000020A0100020D2B284F83A20032A78
:102DC00003D941F0010184F83910E17811B9A189E2
:102DD000491CA181022811D004280FD003280DD04E
:102DE000E089401C80B2E0813C2807D3207880072E
:102DF00002D40120FFF7C5FE0020E08114E638B5BB
:102E0000FE4CA08AFEF7F1FEA08A0090FC48638A7F
:102E100028218069FBA284680A20A04738BDF749B1
:102E2000052208B1012803D181F83C20FFF799BBA6
:102E3000704710B5F14CE179042913D804280AD061
:102E400003280FD1606DFEF7E5FFB4F85200BDE82E
:102E50001040FFF7ECB8D4F85A00FEF7DBFFB4F8E7
:102E60005800F4E7E0E5F0B4E44D0478E44E95F85A
:102E700069302A7F95F83D10012C1CD00027032CC7
:102E800032D0042C2ED1002A2CD1376002293DD01B
:102E9000032927D1D0F80310C5F85A10B0F8011053
:102EA000A5F85810D0F80310A964B0F80110E9642F
:102EB0000078F0BCBDE7012A14D1326002290FD09E
:102EC00003290FD150F8031F696530F8021CA5F8DB
:102ED00052100168A96430F8020CE8640320E8E7A6
:102EE000012BEFD0F0BC7047012AFBD137600229DB
:102EF00009D00329F6D1D0F803106965B0F80110A4
:102F0000A5F85210CEE7012BF5D0EBE7002BC1D08E
:102F1000E8E770B5017900290FD110F8051B0722E9
:102F2000491EB1FBF2F60546002404E02846FFF7EF
:102F30009AFF641CED1DB442F8DB70BDAF48D0E9C8
:102F40001821891A4FF47A72C08F5143B1FBF0F007
:102F50007047AA4910B5C979032901D0042907D1BE
:102F6000002805D1FFF7EAFFBDE81040FEF729BFB2
:102F70005AE52DE9F04104460179A5A00AF03AFB93
:102F8000207900281DD114F8050B0521401EB0FB47
:102F9000F1F60025994F12E0207870B9386E401C88
:102FA00002D1D4F801003866796ED4F8010081426C
:102FB00003D078662078FFF7CCFF6D1C641DB54206
:102FC000EADBC2E6704795490A7801210A3A914046
:102FD000014201D0012070470020704710B5002841
:102FE0004FF0000005D0FDF77FFF00280BD1012135
:102FF00004E0FDF779FF002805D00021BDE810406E
:103000000020FDF76DBF0FE57C4981F83D001FE60C
:103010007A4A92F850108B0702D54FF4784106E0B7
:10302000C90702D04FF6E07101E04FF6FF719182BF
:10303000002800D086E570472DE9F0416F4C074627
:103040000D4694F8500094F83D60904204D084F806
:1030500050200120FFF7DCFF022F02D0032F10D0F9
:1030600015E02846FFF7AFFF00284FF0010002D01F
:10307000FFF7B4FF0BE0FFF7C7FF0020FFF7AEFF3D
:103080000AE09DB1012D07D1207F012801D13846EA
:1030900000E00120FFF7B8FF94F83D00B04209D1ED
:1030A000002807D1BDE8F041FFF721BA207F0028B2
:1030B000EFD1ECE749E6C27881780078BCE730B51B
:1030C00005464E480C4687B0016A0A220831601D49
:1030D00009F0BBFD00282BD1B4F80F0040BAA0F1D5
:1030E0000A01092924D202F028FA01F05DFD2846E0
:1030F00001F051FC02F07CFA01208DF8080000205C
:103100008DF8090004208DF80A0091208DF80B003D
:1031100011208DF80C00284601F03DFC052202A983
:10312000CDE900123D4921230A88012102F070FAFD
:1031300007B030BD30B58BB0044601208DF80800D3
:1031400000208DF8090004208DF80A0091208DF8E8
:103150000B0012208DF80C002848314D017F8DF8AE
:103160000D10016A8868CDF80E00C868CDF812000D
:10317000088AADF8160029480188080A8DF8180059
:103180000E208DF8080027488DF819102980B0EB23
:10319000815F02D102F003F92880204601F0FBFB99
:1031A0009DF8081002AA091DC9B2CDE9002121230A
:1031B0002A88012102F02CFA0BB030BD70B50F4DFA
:1031C00006468879A876C8792877887A85F84000F5
:1031D000C87A85F82A000C1D097B85F86A1012A0B0
:1031E0000AF008FA207985F83D0068780121B1409D
:1031F0000843687095F8501060792FE05C18002043
:10320000240000204C6F6164696E672E2E2E000032
:10321000666D3A202564200D0A000000660000203B
:10322000680000200000C0FF446973705F44697348
:10323000706C617948616E646C65496E64436F6E51
:10324000662067446973706C61792E756348617696
:1032500065544F43202564200D0A0000814204D0AC
:1032600085F850000020FFF7D3FE16B9002002F0C9
:1032700077FE6279617A2079BDE87040DCE6FE482D
:10328000417821F00201417070472DE9FE4FFA4D5F
:103290000646904685F8680008790C46F7A34FF477
:1032A0007162AFF61C710090042005F0B9FB207923
:1032B0004FF6FF77132813D2DFE800F00A13CEC0D1
:1032C000EF12EDECEB12121212121212D9E1E6001B
:1032D000A079661D08B1FFF744F9707885F83C00C5
:1032E00041E1287FA17BCDF80080CDE90110661D6A
:1032F000EAA340F62172AFF67071042005F090FB4E
:10330000B8F1000FECD0707810B1FFF72AF930E077
:10331000DFF864933178002009F16C094FF005085B
:1033200009F1100A4FF0790B012985F82B0027D0FD
:1033300000210846FDF7D4FD99F801200097B2FB63
:10334000F8F199F8000001EB410101F1D9034708B8
:1033500013449AF800207F4200EB800002EB8702C2
:103360007830104482B20BEB8700D73180B200F086
:10337000A0FD707885F83C00707A85F86900F2E06D
:1033800001210020FDF7ACFDB6F8030010B1B842F2
:1033900000D0E887D6F80500C8B3401C37D0707A53
:1033A000297F884233D10090C3A340F63E72C849BA
:1033B000042005F035FBD6F8050042F21071884272
:1033C0001DD999F801200097B2FBF8F101EB4101FA
:1033D00001F1D90C0CEB020399F800209AF8007067
:1033E0005008404207EB800702EB820278323A44F1
:1033F0000BEB8000D73192B280B200F05AFDD6F8C4
:1034000005006421B0FBF1F02885FFF7DFF8B07804
:1034100008B101280BD1E97E814208D0E876A88A5C
:1034200000905E23B4222821022000F042FDE879BA
:1034300003289ED00220FFF70BFC9AE7A179601DBC
:1034400000299CD1297FC278914298D1807885F853
:103450002A00FEF76CFC86E0631DFEF74DFFB042CC
:103460008DD1DA7899781878FFF7E6FD7BE0384659
:1034700002F063F8002E76D106F0EAFD73E02146F3
:103480003046FFF71CFE6EE021463046FFF752FE45
:1034900069E050E03EE032E0FFE76079661DC0077A
:1034A00018D095F84000717888420ED064280CD36B
:1034B00064290AD22878800707D4A88A00901E239E
:1034C000EB220321962000F0F4FC707885F8400090
:1034D000FEF7F7FD3078800745D556F8020F09F062
:1034E000CBFDCDE900017BA340F6B1727849042001
:1034F00005F096FA30686864FEF757FD33E095F8FA
:103500005010607981422ED085F850000120FFF7DD
:103510007FFD28E0A079671D012802D138780128B5
:1035200007D00020FFF794FB39463046FEF781FFB5
:1035300019E00420F6E720780721401EB0FBF1F8DF
:10354000671D6CA340F6DB7261490420CDF8008052
:1035500005F066FA002604E03846FFF784FC761C86
:10356000FF1D4645F8DB95F83D102079CDE90001B7
:1035700067A340F6E7725649012005F051FABDE80D
:10358000FE8F10B5002905D1FEF7DCFFBDE8104025
:1035900002F025BD32E42DE9F04F89B0AFF6F325F6
:1035A000322405204FF000085C4EB4FBF0F9CDF852
:1035B0001C80CDE90565ADF804400120ADF806405A
:1035C0008DF80800A6F2DE41CDE903814FF0020B31
:1035D000ADF800B089210890ADF80210684608F0F7
:1035E000D6FB4F4F4FF0CE0A786006F6BC10CDE9FF
:1035F0000406AE200695ADF80000ADF8044007952E
:10360000ADF80640ADF802A06846CDF820B008F04D
:10361000BEFBB860C4F15200ADF80000ADF802A0E6
:1036200006F69A60CDE9040606950320ADF804403D
:1036300008900795ADF80640684608F0A8FBF860CA
:103640003848CDE90406C9F100017D2000EB4109AD
:10365000CDE90658ADF800909320ADF802000420A3
:10366000ADF804400890ADF80640684608F08FFBBE
:1036700038612D485AE000005C18002044697370DE
:103680005F446973706C617948616E646C654F70FA
:1036900073456E7472792025640000004150505FBC
:1036A0005041434B45545F484F5F51545720256468
:1036B00026256426256400004150505F5041434B4D
:1036C00045545F484F5F5154572025640000000067
:1036D000882300084150505F5041434B45545F4898
:1036E0004F5F514C5F545950455F50504220256404
:1036F000000000004150505F5041434B45545F482B
:103700004F5F57515F4E4F54494659202564000082
:10371000484F2025642625640D0A0000E2F00008C9
:10372000240000205A04010838090108CDE90406E4
:10373000CDE90658ADF800904FF48770ADF802005F
:103740000520ADF804400890ADF80640684608F042
:103750001EFB786109B0BDE8F08FFEB508F0FAFBFA
:103760006C21394809F047FAFFF7F0FA364C48F275
:103770003040002560824FF6FF70A082E0822583F2
:10378000206820F002002060206A45600120A070BF
:1037900006F023F860620822E271532020724FF491
:1037A000E170E0872948A064294860640220294E1E
:1037B00084F8690004F16C002749F56141602749EC
:1037C00081602749C1600C210170182141701030BF
:1037D000244B4360244B8360244BC360027010224F
:1037E00042701030224AC0E90152224AC260017080
:1037F000302141702038FEF789F9002300950195AA
:103800001A461DA12348029509F004FF214809F03A
:1038100007FAB26906F1200311784843C0F1EA01C2
:10382000801D198008449880032058805078093002
:10383000D880FEF7EDFCE01CFEF7BFF9FFF7ABFE0A
:10384000BDE8FE40FFF7DBBA5C1800209A99914171
:103850000000404024000020D7440008FD47000835
:103860003D4800086B43000859480008C34400085D
:10387000F54600083B470008253034642D253032DA
:10388000642D2530326420253032643A253032648C
:1038900000000000600C002009490AA009F0AABE3F
:1038A00070B5094D0446C1B2284604F03BFC4021E6
:1038B000284604F098FC0028F9D0204670BD00008E
:1038C000EA1001082573000000380140FE4AD16863
:1038D000C3B289B221F4FF7141EA4301D160FB4BCD
:1038E000196840F2CF3289B21140302202EA101238
:1038F0000A436FF3090010431860F44801220830AE
:10390000026000200146401C0129FBDBEF48001D3E
:10391000026000200146401C0129FBDB7047EC4B94
:1039200010B502221A6000221346521C012BFBDB49
:10393000E84A0424146000221346521C012BFBDBCE
:1039400041EA0020FFF7C2FFE248001F04600020A8
:103950000146401C0129FBDB10BDDD4A10B50221E8
:10396000116000210A46491C012AFBDBD9490424C5
:103970000C6000210A46491C012AFBDBFFF7A6FF69
:10398000D448001F046000200146401C0129FBDBD5
:1039900010BDCF4B022210B51B1D1A60002213462A
:1039A000521C012BFBDBCB4A04241460002213467B
:1039B000521C012BFBDB41EA0020FFF787FFC548C3
:1039C000001F046000200146401C0129FBDB10BDE4
:1039D00030B50C4605462A210020FFF7DAFFC5F373
:1039E00007210020FFF79BFFE9B20020FFF797FFB8
:1039F0006D1CC5F307210020FFF791FFE9B20020FD
:103A0000FFF78DFF2B210020FFF7C3FFC4F3072131
:103A10000020FFF784FFE1B20020FFF780FF641C65
:103A2000C4F307210020FFF77AFFE1B2BDE8304080
:103A3000002074E7F0B51C4616460D460746F028F0
:103A400000D3EF274FF4A070411E854200D30D46EE
:103A5000F02E00D3EF26844200D30C462A2100200A
:103A6000FFF797FFC7F307210020FFF758FFF9B2D0
:103A70000020FFF754FFC6F307210020FFF74FFF98
:103A8000F1B20020FFF74BFF2B210020FFF781FF51
:103A9000C5F307210020FFF742FFE9B20020FFF73E
:103AA0003EFFC4F307210020FFF739FFE1B20020F9
:103AB000FFF735FFBDE8F0402C21002069E740F218
:103AC0003F13EF22B6E710B51446FFF781FF2C2114
:103AD0000020FFF75EFFA0B2BDE810403DE770B5E3
:103AE0007A4C0220241D206000200146401C012940
:103AF000FBDB0120206000200146401C0129FBDB8C
:103B00000425256000200146401C0129FBDB002222
:103B10000A231146104607F048FE6C4E0836356001
:103B200000200146401C0129FBDB00221423114622
:103B3000104607F03AFE256000200146401C01298E
:103B4000FBDB002278231146104607F02EFE1121E0
:103B50000020FFF71EFF002278231146104607F0D1
:103B600024FE36210020FFF714FFC0210020FFF7BC
:103B7000D6FE3A210020FFF70CFF55210020FFF769
:103B8000CEFEB2210020FFF704FF0C210020FFF73A
:103B9000C6FE0C210020FFF7C2FE00210846FFF7F9
:103BA000BEFE33210020FFF7BAFE33210020FFF7CD
:103BB000B6FEB7210020FFF7ECFE35210020FFF70D
:103BC000AEFEBB210020FFF7E4FE30210020FFF70E
:103BD000A6FEC0210020FFF7DCFE2C210020FFF70D
:103BE0009EFEC2210020FFF7D4FE01210020FFF736
:103BF00096FEC3210020FFF7CCFE17210020FFF71F
:103C00008EFEC4210020FFF7C4FE20210020FFF714
:103C100086FEC6210020FFF7BCFE0F210020FFF723
:103C20007EFECA210020FFF7B4FE0F210020FFF71F
:103C300076FEC8210020FFF7ACFE08210020FFF728
:103C40006EFE55210020FFF7A4FE90210020FFF713
:103C500066FED0210020FFF79CFEA4210020FFF784
:103C60005EFEA1210020FFF75AFEE0210020FFF7B1
:103C700090FEF0210020FFF752FE00210846FFF7DA
:103C80004EFE0A210020FFF74AFE10210020FFF718
:103C900046FE12210020FFF742FE1B210020FFF705
:103CA0003EFE39210020FFF73AFE44210020FFF7B5
:103CB00036FE47210020FFF732FE28210020FFF7C3
:103CC0002EFE1221002007E0001001400C0C0140E4
:103CD0001008014014140140FFF721FE10210020BC
:103CE000FFF71DFE16210020FFF719FE1B21002003
:103CF000FFF715FEE1210020FFF74BFEF021002029
:103D0000FFF70DFE00210846FFF709FE0A210020FB
:103D1000FFF705FE10210020FFF701FE1121002012
:103D2000FFF7FDFD1A210020FFF7F9FD3B210020E0
:103D3000FFF7F5FD34210020FFF7F1FD4E210020B3
:103D4000FFF7EDFD3A210020FFF7E9FD17210020E4
:103D5000FFF7E5FD16210020FFF7E1FD21210020FE
:103D6000FFF7DDFD22210020FFF7D9FD2A210020E9
:103D7000FFF70FFE00210846FFF7D1FD002108469E
:103D8000FFF7CDFD00210846FFF7C9FDEF21002018
:103D9000FFF7C5FD2B210020FFF7FBFD00210846A2
:103DA000FFF7BDFD00210846FFF7B9FD0121002006
:103DB000FFF7B5FD3F210020FFF7B1FD29210020CD
:103DC000FFF7E7FD2C210020FFF7E3FD082030601E
:103DD00000200146401C0129FBDB1423BDE8704094
:103DE00000221146104607F0E0BCF8B501213C2046
:103DF00002F08DFD4FF4FF70ADF8000003258DF843
:103E0000025010248DF803406946FE4802F043FB3F
:103E10004FF63040ADF80000FB4E8DF802508DF8A3
:103E200003406946304602F036FB0120ADF8000041
:103E30006946304602F02FFB0424ADF80040694685
:103E4000F24802F028FB0225ADF800506946F04820
:103E500002F021FBADF800506946304602F01BFB32
:103E6000ADF800406946304602F015FB0820ADF879
:103E700000006946304602F00EFBFFF730FEF8BD49
:103E8000F0B50746002140F23F13EF220846FFF746
:103E9000D1FD00254FF4A07600243846FFF75DFDE4
:103EA000641CA4B2B442F8D36D1CADB2F02DF3D3B0
:103EB000F0BD2DE9F0411E4694460F460546DDF85B
:103EC0001880FFF7B7FD0AE03C4604E04046FFF7E4
:103ED00044FD641CA4B2B442F8D96D1CADB2654572
:103EE000F2D9BDE8F08110B514464B1C421CFFF717
:103EF000A1FD2046BDE810402FE52DE9F0419C468C
:103F000016460D460746DDF81880FFF793FD0AE0D8
:103F10003C4604E04046FFF720FD641CA4B2B442D6
:103F2000F8D96D1CADB26545F2D9DAE708B5009253
:103F30004A1C93B2421C491E401E92B289B280B202
:103F4000FFF7DBFF08BD2DE9FC4F0026A2EB000CBC
:103F500081465F1A701E35468846BCF1000F02DDAF
:103F60004FF0010102E003D14FF00001009102E0A7
:103F7000CCF1000C0090002F02DD4FF0010002E0B8
:103F800003D14FF00000834602E08346C7F10007EB
:103F9000BC4501DD644600E03C46601C4FF0000A71
:103FA000019015E01FFA88F11FFA89F00B9AFFF7CC
:103FB0009AFF66443D44A64202DD0099361B8944BF
:103FC000A54201DD2D1BD8440AF101001FFA80FA39
:103FD00001998A45E6DDBDE8FC8F2DE9F8411D46D3
:103FE000079C1646884607460B460094FFF7ABFF32
:103FF0003A462B46414610460094FFF7A4FF2B4655
:104000003246194638460094FFF79DFF32462B464C
:10401000414610460094FFF796FFBDE8F8812DE970
:10402000FF4F844600241546032081B00F46A0EBC5
:10403000450661E0A7EB0408ACEB05091FFA88F11F
:104040001FFA89F0049AFFF74EFF0CEB050B1FFADD
:1040500088F11FFA8BF0049AFFF745FF781981B2B7
:10406000ACEB040A00901FFA8AF0049AFFF73BFFBA
:104070001FFA88F11FFA89F0049AFFF734FFA7EBC3
:1040800005081FFA88F11FFA8AF0049AFFF72BFF40
:1040900007EB040A1FFA8AF11FFA8BF0049AFFF764
:1040A00022FF1FFA88F10CEB04081FFA88F0049A2B
:1040B000FFF719FF0098049A81B21FFA88F0FFF702
:1040C00012FF1FFA8AF11FFA89F0049AFFF70BFF1B
:1040D000641C002E03DA06EB8406B61D04E0601BA8
:1040E00006EB80060A366D1E781981B20CEB0400CF
:1040F00080B2049AFFF7F7FEAC429BDD05B0BDE845
:10410000F08F2DE9F05F14460D4608F070FF8046F1
:104110008946284608F06BFF06460F46204608F001
:1041200066FF04460D4642464B4608F0DAFE394A21
:104130000123C2E9000102F158003749C0E90067D4
:104140008A460B60DAF8000000EBC000400008F07F
:104150003DFFCAE9020102460B4600202F4908F044
:10416000B3FF504616D88068DAF80C100AF04EFCFF
:1041700022462B4608F0B8FE42464B4608F0B1FEF8
:10418000244BDAF8002003EBC202C2E90001DAE9AD
:1041900002011FE0DFF888B0826800205946DAF893
:1041A0000C3008F09BFE0AF031FC22462B4608F04A
:1041B0009BFE42464B4608F0F0FD164BDAF8002015
:1041C00003EBC202C2E90001DAE9022300205946EA
:1041D00008F084FE0AF070FC22462B4608F084FEAC
:1041E00032463B4608F07DFE0A4BDAF80020583391
:1041F00003EBC202C2E90001DAF80000401CCAF871
:1042000000000FE000100140000C014000140140CC
:1042100000080140F818002050000020008056409F
:10422000008066400A288DDDBDE8F09F2DE9FF4F34
:104230000F46002485B0154603218246A1EB4508B0
:10424000F749129801EBC0068AE0AAEB0500814607
:1042500008F0BCFECDE90001D6E9002308F020FFFC
:1042600008D8002C06DB381B81B21FFA89F0089AA7
:10427000FFF739FEDDE90001D6E9002308F010FF61
:1042800008D8002C06DB381B81B21FFA89F0089A87
:10429000FFF729FE0AEB0500834608F097FECDE9FB
:1042A0000301D6E9002308F0FBFE08D8002C06DB4A
:1042B000381B81B21FFA8BF0089AFFF714FEAAEBA5
:1042C0000400029008F082FED6E9002308F0E8FE20
:1042D00008D8002D06DB781B81B20298089A80B2BC
:1042E000FFF701FE0AEB0400029008F06FFED6E92A
:1042F000002308F0D5FE08D8002D06DB781B81B21C
:104300000298089A80B2FFF7EEFDDDE90001D6E9D8
:10431000002308F0C5FE06D82CB939461FFA89F0EB
:10432000089AFFF7E0FDDDE90301D6E9002308F074
:10433000B7FE06D82CB939461FFA8BF0089AFFF75A
:10434000D2FD641CB8F1000F04DA08EB840000F120
:10435000060805E0611B08EB810000F10A086D1EEC
:10436000AC427FF772AF09B0C9E62DE9FF4F89462D
:10437000AC494FF0040A0746C1F800A000210846E6
:10438000491C0128FBDB00251001DFF89CB2A0F5D9
:10439000007808EB050100241BF801C009EB0506B5
:1043A000C4F107002CFA00F0C007314607EB040007
:1043B00001D0039A00E00D9AFFF785FB641CA4B2BC
:1043C000082CEDD36D1CADB2102DE2D39549091F19
:1043D000C1F800A000200146401C0129FBDBBDE81C
:1043E000FF8F2DE9F843994615460E4604464FF4D3
:1043F0009878089F0CE0E82C0DD846450BD84B4622
:10440000314620460097FFF7B0FF0834A4B26D1C78
:104410002A78002AEFD1BDE8F8832DE9FF5F8A46AC
:1044200080494FF0040B15468046C1F800B00020CB
:104430000146401C0129FBDB00247C4E32E0C4EB2A
:10444000C40000EB80002A78315C914229D100EB56
:104450000609697899F80100884222D100270025D1
:104460000AEB070C05EB470109EB01000024C678B5
:1044700061463006002808EB040000EBC50001DAB5
:10448000039A00E00E9AFFF71EFB7006060E641CEE
:10449000082CEDD36D1C022DE4DB7F1C102FDED326
:1044A00004E0641C03F0F2FFA042C8D85D49091F74
:1044B000C1F800B000200146401C0129FBDBBDE82B
:1044C000FF9F70B514460D4608F0AAFBC10000011D
:1044D0002960206070BD2DE9FF4F8A4651494FF099
:1044E000040B8446C1F800B000200146401C01299D
:1044F000FBDBA2F1200202EB420000254FF6FF7821
:104500004FEA00194A4909EB450001EB400211F856
:10451000100052884FF0000442EA002086B20AEBF5
:104520000507300439460CEB040001D5039A00E07E
:104530000D9AFFF7C8FA641CA4B208EA46060C2CD0
:10454000EFD36D1CADB2182DDCD33649091FC1F86D
:1045500000B000200146401C0129FBDB3FE72DE9AC
:10456000F843994615460E4604464FF49478089F42
:104570000CE0E42C0DD246450BD24B46314620468A
:104580000097FFF7A8FF0C34A4B26D1C2A78002A0C
:10459000EFD140E72DE9F0439846264B02EBC202EB
:1045A00003EB02171F4A4FF0040CDDF81C90A7F52F
:1045B0009057C2F800C000242246641C012AFBDB8D
:1045C00001F12F0300F11702FFF734FA002600244F
:1045D000BD5D280601D5404600E04846FFF7BDF91D
:1045E0006806641C050EA4B2082CF2D3761CB6B281
:1045F000902EECD30B48001FC0F800C000200146ED
:10460000401C0129FBDBBDE8F0832DE9F843994606
:1046100015460E4604464FF48878089F19E00000BE
:10462000F818002014140140231101088A9201088F
:1046300024170108243B0108D82C0DD246450BD283
:104640004B46314620460097FFF7A4FF1834A4B22A
:104650006D1C2A78002AEFD1DDE62DE9F0471546DA
:10466000A64A0427DDF820A09946176000221446C8
:10467000521C012CFBDB01F12F0300F12F02FFF78D
:10468000D9F900249E4E27E040F2231104FB01F0EB
:104690002A78315C91421ED100EB060C69789CF8B7
:1046A0000100884217D100264FF490780CEB0600E9
:1046B0004FF00005C478200601D5484600E050467A
:1046C000FFF74BF96006040E6D1C082DF3D3761C22
:1046D0004645EBD304E0641C03F0DAFEA042D3D8D5
:1046E0008648001F076000200146401C0129FBDBB3
:1046F000BDE8F0872DE9F8439846154689460646F9
:104700000024089F15E004EB440006EBC000802A5B
:1047100080B24346009705D24946FFF73BFF6D1C28
:10472000641C05E02A464946FFF797FFAD1CA41C10
:10473000E4B22A78002AE6D16DE670B514460D463B
:1047400008F06EFA00EB4001C90000EB40000001E8
:104750002960206070BD2DE9FF5F8B466749804668
:1047600004201546086000200146401C0129FBDB9F
:104770000024644E34E0C4EB041000EB80002A787F
:10478000315C91422BD100EB060A69789AF801005E
:10479000884224D10027002507EB47090BEB070CC3
:1047A00009EB05010AEB01000024C67861463006DA
:1047B000002808EB040000EBC50001DA039A00E0D2
:1047C0000E9AFFF780F97006060E641C082CEDD3D4
:1047D0006D1C032DE4DB7F1C182FDCD304E0641C6C
:1047E00003F052FEA042C6D844490420091F0860C5
:1047F00000200146401C0129FBDB60E62DE9F8435F
:1048000098461546894606460024089F12E006EBA6
:104810000400802A80B24346009705D24946FFF73C
:104820005AFE0C346D1C05E02A464946FFF793FFFB
:10483000AD1C18342A78002AE9D1ECE570B514468D
:104840000D4608F0EDF900EB4001890000EB400057
:10485000C0002960206070BD2DE9F84398461546D8
:10486000894606460024089F12E006EB0400802AD1
:1048700080B24346009705D24946FFF776FD0834DB
:104880006D1C05E02A464946FFF7C7FDAD1C1034F4
:104890002A78002AE9D1BEE570B514460D4608F025
:1048A000BFF900EB4001890000EB4000C000296027
:1048B000206070BD0346012000E058430A00A1F1CA
:1048C0000101C9B2F9D17047082138B10E48016021
:1048D00000200146401C0129FBDB70470A48001FED
:1048E000016000200146401C0129FBDB704706489F
:1048F0000C38006840F3C000401C7047141401409D
:10490000F392010824710108140C0140FF4B10B50B
:1049100000201978012404FA00F20A4205D0401C54
:10492000C0B20828F7D3082010BD84400C431C7087
:1049300010BD082805D201218140F44802788A433D
:1049400002707047F14A91785078814201D1082075
:104950007047EE481030405C491C01F0070191702F
:104960007047EA4841788078491C01F0070181428C
:1049700001D10120704700207047E44841788078D9
:10498000814201D1012070470020704705F060BBD3
:10499000DF49085C7047DE49891E085C70471CB51A
:1049A000DC4914460978890711D000EB400101EB7E
:1049B000C000D94901EBC00028300021AFF2330319
:1049C000CDE9001064224FF4FA7005F088FA002C4B
:1049D00004D0BDE81C400A20FCF7F8BA1CBD2DE944
:1049E000FF4105F003FE8046FFF7C7FFC74F80B1C8
:1049F0000020F870387102460121C84803F0C1F860
:104A0000F86800B1804704B04046BDE8F04105F0C9
:104A1000F1BDBE48B9781030465CC14806EB46018E
:104A200000EBC1046088082801D3082500E0C5B266
:104A30008DF80450618A4FF00042A08A42EA812139
:104A4000084300902A460DF10500A16808F0BAF865
:104A5000684604F028FC0028D5D06088401B00047C
:104A6000000C608005D0A0682844A0600120F87088
:104A7000C9E7606803F08BFDFFF764FF3046FFF77E
:104A800058FF227B04F10D01E07BFFF788FFEDE783
:104A90009E4B30B45A789C78511C01F00701A1421A
:104AA00007D130BC9FA34FF49472A6A1002003F05D
:104AB000B7BF964C1034A0545970D878002801D153
:104AC00030BC8CE730BC7047904A10B550794FF03D
:104AD000030100F10100B0FBF1F301FB1300507181
:104AE00000EB400101EBC0008B4901EBC0042078D2
:104AF00040070DD56088A0F57F41FF3908D0002818
:104B000006D004F1100005F013FA10B10020207354
:104B100010BD207B401CC0B220730328F8D38EA3A5
:104B20004FF4A77287A1002003F07AFFBDE8104080
:104B300005F08EBA70B5784D002404EB440000EB0C
:104B4000C40005EBC0000646582108F054F8347143
:104B5000641CE4B2032CF0D370BD0020704B0246FD
:104B6000303B03EB0011401C0A804A804A60C0B20F
:104B70008A600328F5D36548027042708270C27063
:104B80000271704770B50C46054608210A2003F0F3
:104B900080FE002807D012218170C0E90254BDE8D0
:104BA000704003F08DBE70BD2DE9F04F87B05B48BB
:104BB00002F0DEFE04A802F0C1FF002401258DF8FA
:104BC00016408DF818408DF817508DF819404FF0A9
:104BD000030A6C488DF81A408DF812408DF814A025
:104BE0004FF002098DF81B508DF813408DF8159089
:104BF000006865494008B0FBF1F0ADF8100004A86A
:104C000004F0C8FA41484FF0040B41F6FF77C08822
:104C10008DF80A40C0F309010BEBC1064FEA1648B4
:104C20008DF80B408DF80C50ADF80080ADF80440C5
:104C3000ADF80260ADF80670ADF808408DF80D5083
:104C4000684602F01CFF8DF80A508DF80B408DF875
:104C50000C50ADF80080ADF80440ADF80260ADF83E
:104C60000670ADF808508DF80D50684602F007FF49
:104C70008DF80A90FE1E8DF80B408DF80C50ADF8A3
:104C80000040ADF80440ADF80260ADF80670ADF834
:104C900008408DF80D50684602F0F1FE8DF80AA02C
:104CA0008DF80B408DF80C50ADF80040ADF8044085
:104CB000ADF80260ADF80670ADF808508DF80D50F3
:104CC000684602F0DCFE8DF80AB07F2644F20C083C
:104CD0008DF80B408DF80C50ADF80040ADF8046035
:104CE0004FF6FF77ADF80280ADF80670ADF80840DA
:104CF0008DF80D50684602F0C2FE05208DF80A00BE
:104D00008DF80B408DF80C5040E000006000002052
:104D10002011010847020020A8190020006400406B
:104D2000E01A0020556E7265636F76657261626C81
:104D3000652062756666666572206572726F7220A4
:104D40000D0A0000536F757263655C4150505C43FF
:104D5000616E436D642E6300556E7265636F766598
:104D60007261626C65204572726F722C20507265A0
:104D70007061726520746F205265736574200D0A2E
:104D8000000000009C00002040420F00ADF80040F1
:104D9000ADF80460ADF80280ADF80670ADF80850CB
:104DA0008DF80D50684602F06AFE06208DF80A0064
:104DB00046F20C088DF80B408DF80C50ADF8004011
:104DC000ADF80460ADF80280ADF80670ADF80840AB
:104DD0008DF80D50684602F052FE07208DF80A004B
:104DE0008DF80B408DF80C50ADF80040ADF8046024
:104DF000ADF80280ADF80670ADF808508DF80D5092
:104E0000684602F03CFE01220221FE4802F0B9FE93
:104E100001221021FB4802F0B4FE00220121F948D2
:104E200002F0AFFE07B0BDE8F08F70B5F64A022180
:104E3000202005F062FBF44CA41F10B14FF6FF7068
:104E4000E08000256571FFF775FEFFF786FEFFF72E
:104E5000ABFEE56070BD70B505F0C8FB0646EB4DD6
:104E6000FFF770FD044608280AD204EB440005EB66
:104E7000C000406803F08BFB2046FFF75AFDEFE7C8
:104E8000E1480021801F017081704170C170017183
:104E90003046BDE8704005F0ADBBDB4910B5891F59
:104EA0000878CA78104309D00879401CC0B208714C
:104EB000B42803D3FFF7CFFFFFF776FEBDE810401D
:104EC00002E62DE9F047D24B81460E4618680021D4
:104ED000924600780F46C01CC4B2CE48B0EB865F45
:104EE0001DD0002004E01A68125C5140401CC0B282
:104EF000A042F8D31A68984611551868FE2100F8A8
:104F0000011CA01C03F011FB5FEA000C07D0FFF7A7
:104F1000FDFC0546082805D3604603F038FB3846FB
:104F2000BDE8F087B94B05EB450203EBC200002753
:104F3000C0F804C0C0F808C0C773A11C23F8321021
:104F4000418007744682A0F8149080F80CA0D8F82D
:104F5000002052784273D8F8002092788273D8F8F3
:104F60000010A21C491E604607F02CFE2846FFF7E1
:104F70008FFD0120D4E710B50846FEF723F8002086
:104F800010BDA54810B50068C01CC17801F07F02B3
:104F9000102A03D1090601D4FEF714F8002010BD31
:104FA0009D4910B509688978212901D1FFF7E9FFEA
:104FB000002010BD2DE9F0410E460446022803D121
:104FC0009649012081F8BA0004EB4400934F00EBAE
:104FD000C40557F8350020F03800183047F8350080
:104FE000201DC0B203F000FB07EBC5010020887153
:104FF0008B488A7A3146005DFEF747F90020BDE80C
:10500000F08138B5044687A340F24542AFF2CC2187
:105010000090042003F004FD04EB44007F4900EB02
:10502000C40051F8302022F0050241F8302001EB95
:10503000C00000228271104638BD00EB400202EB36
:10504000C000764A52F8303061F3000342F8303045
:10505000704700EB4001714A01EBC00152F831305A
:1050600023F03803183342F831300121E5E770B5F9
:105070001546674C049A012803D0022817D0002057
:1050800070BD2068027026680420707020688170EE
:1050900020681946C01C07F095FD5B495F48891FD1
:1050A0002A46B0F86000C988BDE8704009E7D01C06
:1050B000C5B220680570266809207070206881706C
:1050C00026680220F0702668002030712668707112
:1050D0000620252908D02068817126682121072013
:1050E000B17021686D1C0D7021680844194607F0E5
:1050F00069FD00F009FF012070BD0EB501220146D7
:105100008DF8042081238DF80730090A8DF80510E9
:105110000421C0B28DF8061000EB40013F4B01EBBB
:10512000C00103EBC10101AB0A81052100910022FE
:105130002121FFF79CFF0EBD0146AFF2410021E5A2
:105140001CB50446006810F0380F14D04FF06041D1
:1051500001EBB0104FEAB060206010F0380F0AD0B9
:1051600004F11000CDE900406088334B0246002175
:1051700004F0B5FE1CBD31A340F2AD32AFF23C41AC
:10518000042003F04DFC2068002120F00400206082
:105190000020A0712079FFF750FF2079BDE81C4066
:1051A0000021FEF7EEB90146AFF26B00EAE42DE90B
:1051B000FC4106460D460F1D00EB460000EBC60104
:1051C000164800EBC1046088A0F57F41FF390AD082
:1051D00048B104F11001AFF23103CDE900410246BC
:1051E000002104F07CFE3846FDF765FF18A34FF45C
:1051F0008762AFF2B0410420009603F011FC403406
:10520000687831E00064004066000020E01A002069
:1052100030A201080000C0FF2CA20108A81900203C
:1052200020110108726376207265736574203A203C
:1052300025640D0A00000000A75100086C6F73740C
:10524000206865617274626561740D0A0000000077
:1052500072637620686561727462656174203A20B9
:1052600025640D0A0000000046EA0020CDE9000494
:10527000F748C08800EB80008000AFF2431302467D
:10528000002104F02CFE3046FFF7E3FE0020BDE8CD
:10529000FC812DE9FC41054600EB4500ED4A00EBA1
:1052A000C50002EBC00400270E46A7718988618003
:1052B00052F8301041F0040142F83010281DC0B2FD
:1052C00003F092F96088E4A340F2FD32AFF28C5112
:1052D0000090042003F0A4FB608804F11001A0F505
:1052E0007F42FF3A09D040B1AFF24513CDE900410A
:1052F0000246002104F0F3FD02E0084604F0BFFD81
:105300002846FFF7A6FED7483146405DFDF756FF19
:1053100067730020BBE708B50346D3480168C91C82
:10532000C87800F07F02022A1FD003DC8AB1012A6C
:1053300004D114E0102A22D0112A1CD0CBA34FF4A0
:105340009362AFF200610090012003F069FB00203E
:1053500008BD0006FBD51846BDE8084099E70006E1
:10536000F5D41846BDE8084021E70006EFD41846FA
:10537000BDE8084045E61846BDE808401AE60006C4
:10538000E5D40846FDF71EFEE1E7B74910B5096808
:105390008978212901D1FFF7BEFF002010BD10B58B
:1053A00004F0D1FE4FF0E021896989B2084307F08B
:1053B00001FC07F0F5FB4FF4FF7190FBF1F201FBEC
:1053C000120000F5007080B210BD2DE9F04180465A
:1053D000AC480C4600EB041508EB48029D4802EB74
:1053E000C80200EBC200E9890181012C1DD0002117
:1053F00081720021C1722988686806F0E3FB0028E9
:1054000045D0934EA049984FF08830810120087014
:1054100038684078042821D0092808D00B282ED0DD
:105420000D2809D006F052FB20E00121E0E7012C15
:105430002DD806F095FA19E0012C28D8386887781D
:1054400006F0E1FA0446052F11D130898F49B1EBFE
:10545000805F0CD1FFF7A3FF308108E0012C4046AC
:1054600002D8FFF792FF01E0FFF79AFD0446002CF7
:105470000DD0E8893189BDE8F041002221E5012005
:1054800000F0A9FE3868BDE8F04100F0BBBDB6E50C
:105490002DE9F04106467B480D4600EB061401F16C
:1054A0000B082088002758B16188AA7A114489B274
:1054B000884202D31FD9082A1DD22780606838E0AD
:1054C000E87AFE2838D1287B401D208003F02DF893
:1054D0006060A06018B1AA7A414607F073FBA97A10
:1054E000A0680844A060A87A608026736868C0F34A
:1054F0008920E0810DE0606818B14146A06807F09E
:1055000061FBA97AA0680844A0606088A97A084471
:1055100060806188208881420ED100280CD06068AC
:1055200018B131460120FFF750FF2780678060687F
:1055300008B103F02CF8676061E545498A1DC88011
:1055400002212020FBF796BA10B5C41CC0780C28A5
:1055500003D1601C04F0E5FD08B1002010BDB4F8D3
:105560000D0040BAC0F30A00FFF7E7FFFFF71CFB8E
:10557000012010BD10B5C26800F10801C2F3090096
:10558000A0F54073C2F38922FF3B01D100200FE058
:105590002F4BDB88834201D1012009E0012809D18A
:1055A000022A02D0032A02D004E0022000E00320F5
:1055B000FFF76EFF002010BD00EB400202EBC002BF
:1055C00038B5244800EBC200002284798271012C96
:1055D00004D0022C02D1C8B2FDF721FC2CA340F26A
:1055E000D132AFF6A0010120009403F019FA38BDC2
:1055F00000EB400101EBC000164951F8302022F0C9
:10560000040241F8302001EBC00000228271704793
:105610002DE9F04114460D46DDE9066201462148B8
:10562000012902D0022963D13EE001680A700768AF
:105630000421797001688B7000683146C01C07F046
:10564000C1FA21462846BDE8F041002239E40000B5
:1056500060000020A81900206862702025640D0AEF
:1056600000000000201101082CA20108756E6B6E6D
:105670006F77206D736720747970652025640D0A3B
:1056800000000000B01A0020400200200000C0FF0F
:1056900043616E43636254696D656F757420256460
:1056A0000D0A000030A20108D11CCCB201680C70B8
:1056B00005680921697001688B7005680221E9702D
:1056C000056800212971056869710621252B08D01C
:1056D00001688B71056821230721AB700368641C86
:1056E0001C7000680844314607F06CFA00F00CFCAE
:1056F000002084E42DE9F041824C17460D46064611
:10570000DDE9061220680270206847702068837007
:105710002068C01C07F056FA29463046BDE8F04123
:105720000022FFF7CEBB7849C86070478168002926
:1057300001D0C0680847704770B58AB0C4B2042071
:105740008DF805008DF8060000208DF807006E48E2
:105750006E49012680798DF808008868CDF8090027
:10576000C868CDF80D00088AADF811000B208DF83F
:10577000040004EB440000EBC401654801AB00EBFE
:10578000C1050F202E810090002221212046FFF725
:105790006EFC002809D0241DE0B24FF6FF734FF4D1
:1057A000FA72012102F055FFAE710AB070BDF8B572
:1057B000054600EB450000EBC503554840F6B836FA
:1057C00000EBC3070C46B87908B1FF20F8BD20797B
:1057D000012801D142F21076012038810092024660
:1057E000234621212846FFF742FCC0B1E07800069D
:1057F00013D44FF47A7096FBF0F000EBC00101EB8C
:1058000000104FF6FF7101EA80022D1D2379E8B2E6
:10581000012102F01EFF0220B8710020F8BD3DA357
:1058200040F20562AFF6E421042003F0F9F8F4E752
:1058300000B535483D4985B0C088B1EB805F02D1E5
:10584000FF2005B000BD02218DF8041000218DF865
:10585000051004218DF8061003218DF807102C493E
:10586000ADF808000120A1F8B8000620009001ABB7
:10587000002221210220FFF7FAFBC0B2E1E7014636
:10588000AFF24B10FFF77EB91CB500EB4001204B87
:1058900001EBC00203EBC2018C79002C21D113F87B
:1058A000322052071DD4012808D11A4692F86520EB
:1058B000032A03D393F8B020520712D44A7BFF2A5D
:1058C00001D2521C4A734031CDE900010E48C08814
:1058D00000EB80008000AFF259030246002104F083
:1058E000FEFA1CBD0849114AC988B2EB815F00D09D
:1058F000CAE7704710B50120FFF7F4FFBDE810407C
:10590000FFF7CBBA30A2010860000020A0100020F1
:10591000A819002043616E536E6453617070436D2B
:1059200064206661696C65640D0A00000000C0FFB8
:1059300010B5044606210C2002F0ABFF002807D06A
:1059400021688160A1888181BDE8104002F0B8BF64
:1059500010BD000008B50121082000F0D8FFFA486A
:105960004021016080210160C020ADF800000220CC
:105970008DF8020014208DF80300F34869461038B2
:1059800000F089FD08BD032003F0B9BB70B5EE48F7
:105990008026066040250560032003F0B0FBEA4C3A
:1059A000241D2660032003F0AAFB256070BD70B59E
:1059B000E5488024001D0460032003F0A0FBE24DB5
:1059C00040202860032003F09AFB2C60BDE8704063
:1059D000032003F094BB2DE9F041DB4D80242E1D04
:1059E00008B12C6000E03460032003F088FB4027FE
:1059F0002F60032003F083FB3760032003F07FFB5D
:105A00002C60BDE8F041032003F079BB2DE9F0479D
:105A10000546032003F073FBCB4E00244FF08008B3
:105A200006F1040940272806404601D5306001E010
:105A3000C9F800006806050E032003F060FB37601C
:105A4000032003F05CFBC9F80070032003F057FB50
:105A5000641CE4B2082CE6D3C6F80080032003F0EF
:105A60004EFB3760032003F04AFBB7480838006854
:105A7000C9F80070C0F3C014032003F040FB2046B7
:105A8000BDE8F0872DE9F0470024032003F037FB41
:105A9000AD4FDFF8B4820025A8F10808402607F1D1
:105AA00004093E60032003F02AFB4FEA44604FEAFA
:105AB0001064D8F80000000601D544F00104C9F8CC
:105AC0000060032003F01BFB6D1CEDB2082DE8D332
:105AD0002046D5E770B506469B48144608380D4663
