:020000040800F2
:100000007044002005820008090400080B04000861
:100010000D0400080F04000811040008000000008F
:1000200000000000000000000000000013040008B1
:1000300015040008000000002BA5000817040008A4
:100040002F8200082F8200082F8200082F820008CC
:100050002F8200082F820008CF080008E10800085E
:10006000F308000805090008170900082F82000896
:100070002F8200082F8200082F8200082F8200089C
:100080002F8200082F8200082F8200083F040008FA
:1000900091040008BB040008E50400089D0700085F
:1000A0002F820008E30500082F82000809060008D7
:1000B00041060008B50600082907000829090008BC
:1000C0002F8200082F8200082F8200083D040008BC
:1000D0003B040008B7050008DB050008DF05000841
:1000E000350800082F8200082F820008DFF80CD0A6
:1000F0000DF060F9004800475B03000870440020E1
:100100007047704709F0A5B8704770477047A74817
:1001100010B50168491C01600A291CD10021016049
:100120004168491C4160C268521CC2606422B1FB34
:10013000F2F302FB131111B98168491C816008F0C8
:1001400037FA09F081FE0024204601F049F9641CC9
:10015000E4B2032CF8D310BD9449496808448142A5
:10016000FDDB704710B500F06AFF02F061FD05F09D
:1001700035FBBDE8104005F059BF10B5827872B16B
:10018000012A0AD0022A11D0032A0BD0121F032AF7
:1001900003D28188D0B205F077F9002010BDFFF7B7
:1001A000E1FFFAE7002000F007FFF6E7002000F08B
:1001B00024FFF2E710B57E4A00217E4C1170C07812
:1001C00020707D4800684078092809D00D280AD0A1
:1001D0000BF0FAFB10B120780BF005FC002010BDED
:1001E0000BF03CFBF6E70BF08CFBF3E708B529209E
:1001F0008DF8000000208DF80100684608F02FFC03
:100200002A208DF8000001208DF80100684608F0D2
:1002100026FC08BD10B5042008F097FB022001F071
:1002200082FA08F08DFE00F091FE00F03BFE00F037
:10023000F3FE002000F0FCFE00F0B2FE00F0DCFE59
:1002400001F0B8F90AF05FF838B15CA340F28F1200
:100250005EA1002008F062FB01E000F013FC04F056
:100260004CFD08F0A1FBFFF7C1FF03F026FD05F0F0
:1002700044FD03F093F908F0D3FF05F02DFF4FF68E
:10028000FF7364220221002008F061F9BDE81040EC
:10029000012000F0B4BE10B5817831B101290CD035
:1002A000112905D0122908D105E0FFF7B3FF04E0BA
:1002B00002F0D0F901E005F0A1F9002010BD10B561
:1002C0008178808802F059FC002010BD10B50830FC
:1002D00002F0E3FB002010BD10B500210A2008F059
:1002E00056FA002805D000218170BDE8104008F0C2
:1002F00065BA10BD0178C91E0C2912D2DFE801F0E1
:10030000060711110C09110B0D10110E35E701F044
:100310002AB905F097B8BEE7D1E74BE705F0C0BCB6
:10032000D4E700207047E5E708B508F04DFEAFF2CE
:1003300009034FF400722A49032008F074FA6A4650
:1003400028A103200BF045F8FFF7C6FF0022642325
:10035000114610460BF0A7F9F8E700B587B00AF090
:1003600017F900214FF0006007F026FF4FF4A0605E
:1003700007F0F0FE0AF0A9F91D480DF1040C032363
:1003800000228021ACE80F00062003460090194AA5
:10039000002119480AF0C5FE05AA18A106200BF095
:1003A00018F80AF095FA07B0002000BD0000002000
:1003B00040020020410200204C9E0108496E6974F1
:1003C00020534E56204572726F720000536F757243
:1003D00063655C4150505C6170702E6300000000EA
:1003E000600200204D61696E2D5461736B00000046
:1003F000600A00205C0C002029030008526F6F7413
:100400002D5461736B0000007047FEE7FEE7FEE7C6
:10041000FEE77047704710B50AF066F8FD490978A5
:1004200019B1FD490A78521C0A700AF061F80AF005
:1004300062FABDE810400AF0DBB97047704710B5AA
:10044000F64C0521204607F03EFC012805D1052188
:10045000204607F07FFC04F02AFA0621204607F028
:1004600032FC012805D10621204607F073FC04F078
:100470001EFA0721204607F026FC012807D1072194
:10048000204607F067FCBDE8104004F010BA10BD2C
:1004900010B51421082008F07AF904000CD00020CF
:1004A0006070014604F10802DC4807F09AFB204620
:1004B000BDE8104008F082B910BD10B51421082025
:1004C00008F065F904000CD00020607004F1080207
:1004D0000121D24807F085FB2046BDE8104008F016
:1004E0006DB910BD7047F8B5054600EB0510C0EBBF
:1004F000C511CB4800EB810440F22551D4F890019E
:1005000007F0F9FD50B1D4F8900107F08DFD8DF89A
:100510000000E8B20122694600F0A0FE40F2277711
:100520003946D4F8900107F0E6FD40F2266620B384
:10053000B4F88011B4F88201814204D10022394616
:10054000D4F8900117E0015DD4F8900107F068FD40
:1005500094F88201401C00F07F00A4F8820194F816
:100560009C11002926D1B4F88011814209D10122C1
:100570003146D4F8900107F007FD94F89C0100285B
:1005800018D13146D4F8900107F0B5FD002811D0FC
:10059000B4F88001B4F8821188420BD1E8B200218E
:1005A00000F0DFFD3146D4F89001BDE8F8400022AC
:1005B00007F0EABCF8BD10B59A4C40F22551204630
:1005C00007F099FD002807D0204607F02DFDBDE873
:1005D0001040C0B201F025B810BD012083E7022011
:1005E00081E710B5904C0121204606F045FE002819
:1005F00009D00121204606F04BFE0121BDE8104044
:10060000032009F082BB10BD10B5874C02212046A3
:1006100006F032FE002812D00221204606F038FEF5
:10062000204606F012FE00F57A7081B2204606F0F0
:10063000FBFD0221BDE81040032009F066BB10BDA0
:1006400010B501218C07204606F016FE38B10121B5
:10065000204606F01DFE0121002009F056FB022174
:10066000204606F009FE38B10221204606F010FEB1
:100670000221002009F049FB0421204606F0FCFD80
:1006800038B10421204606F003FE0421002009F0C1
:100690003CFB0821204606F0EFFD002809D0082188
:1006A000204606F0F5FD0821BDE81040002009F0C5
:1006B0002CBB10BD10B55D4C0121204606F0DCFDC1
:1006C00038B10121204606F0E3FD0121084609F07A
:1006D0001CFB0221204606F0CFFD38B10221204646
:1006E00006F0D6FD0221012009F00FFB042120466F
:1006F00006F0C2FD38B10421204606F0C9FD0421F0
:10070000012009F002FB0821204606F0B5FD002873
:1007100009D00821204606F0BBFD0821BDE81040A5
:10072000012009F0F2BA10BD10B5414C012120465C
:1007300006F0A2FD38B10121204606F0A9FD0121F5
:10074000022009F0E2FA0221204606F095FD38B1B8
:100750000221204606F09CFD0221084609F0D5FA48
:100760000421204606F088FD38B10421204606F019
:100770008FFD0421022009F0C8FA0821204606F066
:100780007BFD002809D00821204606F081FD0821C4
:10079000BDE81040022009F0B8BA10BD10B5202005
:1007A00005F08AFD28B1202005F094FD052008F011
:1007B00092FB402005F080FD28B1402005F08AFD25
:1007C000062008F088FB802005F076FD28B1802007
:1007D00005F080FD072008F07EFB4FF48074204672
:1007E00005F06AFD28B1204605F074FD082008F0E8
:1007F00072FB4FF40074204605F05EFD002807D020
:10080000204605F067FDBDE81040092008F063BBF5
:1008100010BD0000110200200C0200200064004006
:100820000011002000380140002C0140000400406D
:100830000008004010B54FF48064204605F03CFDF0
:1008400028B1204605F046FD0A2008F044FB4FF48D
:100850000064204605F030FD28B1204605F03AFD41
:100860000B2008F038FB4FF48054204605F024FD9F
:1008700028B1204605F02EFD0C2008F02CFB4FF48B
:100880000054204605F018FD28B1204605F022FD51
:100890000D2008F020FB4FF48044204605F00CFDAD
:1008A00028B1204605F016FD0E2008F014FB4FF489
:1008B0000044204605F000FD0028A9D0204605F0A0
:1008C00009FDBDE810400F2008F005BBA0E710B5FA
:1008D000012005F0FFFCBDE81040002008F0FBBA45
:1008E00010B5022005F0F6FCBDE81040012008F02C
:1008F000F2BA10B5042005F0EDFCBDE8104002206E
:1009000008F0E9BA10B5082005F0E4FCBDE8104095
:10091000032008F0E0BA10B5102005F0DBFCBDE8BC
:100920001040042008F0D7BA7047D0E900BAD0E9E7
:1009300002981030F0C820A00CF0DAFD594624A02F
:100940000CF0D6FD514625A00CF0D2FD494626A05C
:100950000CF0CEFD414627A00CF0CAFD214628A090
:100960000CF0C6FD294629A00CF0C2FD31462AA094
:100970000CF0BEFD39462BA00CF0BAFD2C480168E6
:100980002CA00CF0B5FD2A48103801682CA00CF002
:10099000AFFD27480C3801682CA00CF0A9FD2448B5
:1009A000083801682CA00CF0A3FD2148001D016847
:1009B0002CA00CF09DFDFEE75B486172642066612F
:1009C000756C742068616E646C65725D0A0000006D
:1009D0005230203D2025780A000000005231203D91
:1009E0002025780A000000005232203D2025780A98
:1009F000000000005233203D2025780A000000004E
:100A0000523132203D2025780A0000004C52203D12
:100A10002025780A000000005043203D2025780A58
:100A200000000000505352203D2025780A000000AD
:100A300038ED00E042464152203D2025780A000072
:100A400043465352203D2025780A00004846535221
:100A5000203D2025780A000044465352203D2025A1
:100A6000780A000041465352203D2025780A0000B4
:100A7000F748704709F051BCF64800887047F548C0
:100A80004088704770B52221F3480CF032F8F14AE3
:100A90000221212009F0AFFCEE4C002500B1258099
:100AA000EC4A0821121D222009F0A5FC38B9E849BA
:100AB000E84822221631001D0CF045F858B1E448F0
:100AC000E44A801E121D81696160C069A06008212E
:100AD0002220FFF7CFFFDF4A0221921CB02009F04D
:100AE0008AFC00B16580DC4A1021A02009F083FC5B
:100AF00018B1DAA1D8480CF033F8D74A10211132D6
:100B00001446A12009F077FC18B1D6A120460CF0BC
:100B100027F8D14A1C212432C02009F06CFC98B17E
:100B2000CD48D2492430016041F2A90141601D2124
:100B30008160CF49C1606FF00D01016141F2B16187
:100B400041614FF480318161BDE87040C248142298
:100B5000C84940300BF0B4BF70B5C74B1C68227059
:100B60001D6809246C701C68A0701868C01C0BF00C
:100B7000A7FFC2480078BDE870400AF034BF2DE9F5
:100B8000F04116460F46054609F0AEFC804606F0D9
:100B90003AFC284606F071FC002406E03959284644
:100BA00006F00FFD2D1D241DA4B2B442F6D306F0AD
:100BB00036FC404609F09CFC0020BDE8F08170B591
:100BC000044608F046FBA44920684FF42075886469
:100BD0006068C8642089A74CA1F85000803C2A4670
:100BE0002146A7480BF06CFF9B4914224031A1F528
:100BF00070700BF065FF08F02CFB2A46A0492046D8
:100C0000FFF7BDFF0A2070BD93498A6C0260CA6C71
:100C10004260B1F8501001810A20704710B5C11C24
:100C2000182297480BF04CFF192010BD70B5884D65
:100C300001466D1E1446681E2A5D035D9048C91C5E
:100C4000803018440BF03CFF285D401CC0B270BDE2
:100C500000210160192070477D4A921E525C80324B
:100C600002607B48401E405C401CC0B270472DE9CA
:100C7000F84F1D4614468A46064608F0EAFADFF8A1
:100C8000F4814FF42079A8F180084A4641467C4817
:100C90000BF016FFB278002742B1012A0DD0022ACC
:100CA0000BD0032A09D0FF20BDE8F88F514630460B
:100CB000FFF7B4FF034600970AE0521E5146304644
:100CC000FFF7B4FFB1780346491E6846FFF7C4FF3B
:100CD0002770D02060706A4800991A460144E01CD1
:100CE0000BF0EEFE08F0B5FA4A4665494046FFF7BC
:100CF00046FFA07808B900F048FA2878217808441F
:100D0000801C28700020CFE738B51D460346807848
:100D1000144618B1012805D0FF2038BD00200090EE
:100D2000192003E000216846FFF796FF9978A1702B
:100D3000411C217010216170421E4E49009880397B
:100D40000144E01C0BF0BCFE287821780844801C8C
:100D50002870002038BD002070474B494948086082
:100D600070472DE9FC4115468778C2798179CDE934
:100D700000121C4607F26C7743790279C17800268D
:100D8000384608F0E5FA2E70C02068702078801C84
:100D90002070BDE8FC8170B51D46144608F093FC38
:100DA00006202070C120607038480179A1F26C7172
:100DB000A1708179E170C179217101786171417807
:100DC000A1718078E07128780830287070BD70B506
:100DD000841C1D46807808F080FC29490120087099
:100DE000C2204870207888702878C01C287070BD98
:100DF00070B5447800251646D12C13D008DCC02CE1
:100E000016D0C12C19D0C22C1CD0D02C47D104E054
:100E1000F02C41D0F12C42D13AE00A463146FFF79E
:100E200026FF03E00A463146FFF76EFF054636E02F
:100E30000A463146FFF795FF31E00A463146FFF793
:100E4000AAFF2CE00A463146FFF7C1FF27E0000069
:100E500066EA0008100000206010002041444D495F
:100E60004E0000003836303836300000EE9D0E005F
:100E70002063E2FF80F40108509E01084102002037
:100E8000600C00200400FA050CED00E02C3200207C
:100E9000012000F0B4F802E0012000F097F82846A5
:100EA00070BDA5E72DE9F047264D274E00244FF4ED
:100EB000047905F10208285D494607F0C1FE18F8DB
:100EC0000410285D07F0E8FE06EB441007462021D9
:100ED0000BF00FFE3C70641C022CECDBBDE8F087CD
:100EE000184A105C07F0D8BE164910B5085C07F028
:100EF000C6FE002800D0012010BD1249085C07F092
:100F0000DABE10B5044600780021FFF7E9FFE0697A
:100F1000002802D0BDE81040004710BD7CB50D464A
:100F2000094901EB40140121E261FFF7D9FF201DBF
:100F3000AFF23103CDE900402A460021104608F007
:100F40004CFF7CBD85EA0008B410002070B501217B
:100F5000114805F0A7FA01214FF0C05005F05EFCE2
:100F6000012005F0FBFA002005F0EAFB002005F067
:100F7000F5FA0A4D00244FF41276285D314607F049
:100F80005FFE641C012CF8DB70BD044910B5085CE1
:100F900007F075FEC0B210BD0004300089EA0008F9
:100FA00010B54FF404710F2007F04AFE0121BDE88F
:100FB00010400F2007F070BE08B1002100E00121B1
:100FC0000F2007F069BE0F2007F075BE10B50400B2
:100FD0000ED00120FFF7F0FF642044430A20B4FB49
:100FE000F0F200230121BDE81040032007F0AFBA62
:100FF000BDE810400020DFE77047704770470028C9
:1010000009D0642148430A21B0FBF1F200230121F9
:10101000022007F09CBA704710B54FF404710E20FF
:1010200007F00EFE0121BDE810400E2007F034BE8F
:1010300008B1002100E001210E2007F02DBE0E2096
:1010400007F039BE38B50D4600EB0011C1EBC011F9
:10105000FE4800EB810494F88C01A84209D0D4F832
:10106000B8013DB1002804D109F0BBFDC4F8B801B6
:1010700028B938BD18B16A46012109F09BFE84F8F1
:101080008C5138BDF0B5054600EB0510C0EBC5111D
:10109000EE4885B000EB8104D4F8B01100295ED091
:1010A00028468847D4F89001002858D004F5C87421
:1010B000002620798DF810000F208DF811008DF892
:1010C000126001278DF8137004A807F048F8206912
:1010D0000090207DDE4931F81000ADF80400607DFD
:1010E000091D31F81000ADF80600A07D891D31F80A
:1010F0001000ADF808000C20ADF80C60ADF80A0047
:10110000207A694608F0C8FE2068A4F5C874012258
:1011100040F2255106F038FFCC480C3850F8251025
:1011200051B994F88C1140F8257084F88C612846E8
:10113000C4F8B861FFF786FF94F8A701A4F8880106
:1011400094F89C0100280AD194F8AC014FF4447142
:1011500007F076FD94F8AC01002107F09DFD05B085
:10116000F0BD00EB0012C2EBC012B84800EB8200E9
:1011700090F89C21002A07D190F8AC0109B1012117
:1011800000E0002107F088BD704710B50024E0B2F0
:10119000FFF778FF641C032CF9DB10BD70B5154612
:1011A0000E460246032819D202EB0210C0EBC21110
:1011B000A64800EB8104B4F88211B4F880018142A2
:1011C00001D1802007E0081A8030C11700EB51617F
:1011D00021F07F01401A80B2A84201D2002070BDE8
:1011E00001211046FFF7BDFFB4F88001B4F8821169
:1011F000884203D3C0F18002AA420ADD20442A4675
:1012000031460BF05DFCB4F880012844A4F880015D
:1012100010E0204431460BF053FCB4F88001C0F1DB
:1012200080008119281A85B220462A460BF048FC16
:10123000A4F88051012240F22771D4F8900106F001
:10124000A3FE012070BD00EB0012C2EBC0107F4A6C
:10125000002102EB8000A0F88A1170472DE9F041CF
:10126000064600EB0610794BC0EBC61003EB80047A
:101270001546B4F88621B4F884010F46824202D1A3
:101280004FF480710AE0111A01F580714FEAE17C98
:1012900001EB1C6C2CF0FF0CA1EB0C0189B2A942F4
:1012A00002D20020BDE8F08106EB06114FF0800C61
:1012B000C1EBC6110CEB8101904203D3C0F58072E3
:1012C000AA420BDD184408442A4639460BF0F8FBC5
:1012D000B4F884012844A4F8840112E018440844B6
:1012E00039460BF0EDFBB4F88401C0F58070C119EC
:1012F000281A85B204F180002A460BF0E1FBA4F81D
:1013000084513046FFF79FFF0120CBE700EB00122E
:10131000C2EBC0124D4800EB8200A0F88811A0F883
:101320008A1170472DE9F047064600EB0610474F3B
:10133000C0EBC61007EB80048846B4F88601B4F809
:101340008411C0F580700844C11700EB116121F0D1
:10135000FF01401A80B21546824200D3C5B2E5B300
:1013600009F0C2F88146B4F88601B4F884218021DE
:1013700006EB0613C3EBC61301EB8301904204D2C4
:10138000384401442A46404613E0C0F58072AA4220
:10139000F6DC3844014440460BF092FBB4F8860179
:1013A000C0F58070291A0A04120C04D004F18001DF
:1013B00040440BF085FB94F886012844C0B2A4F8A1
:1013C0008601B4F88411884204D10020A4F8840175
:1013D000A4F88601484609F08BF82846BDE8F08756
:1013E00070B5054600EB0510C0EBC511174800EBC2
:1013F0008100B0F88611B0F88421914235D0B0F860
:101400008A315B1C9BB2A0F88A31B0F88841A342B4
:101410002BD3C1F580711144CA1701EB126222F07F
:10142000FF02891A8EB290F88C1131B1D0F8B80150
:10143000BDE87040012109F0F8BC3146042007F0F6
:10144000A6F9040011D0F2B204E00000001100205F
:101450008AEA000804F108012846FFF763FFA57037
:101460002046BDE8704007F0A9B970BD70B500EB2B
:10147000001100F11003C1EBC011434800EB8104DF
:1014800004F5D0752A460C21184608F0B4FF20B1A7
:101490002846FF220C210BF025FBD4F8A001B0F563
:1014A000E13F03D94FF41650C4F8A00194F8A411F9
:1014B0000020022901D384F8A40194F8A51103297E
:1014C00001D384F8A50194F8A611032901D384F867
:1014D000A60194F8A7010221FA2801D8022801D216
:1014E00084F8A71170BD00EB0011C1EBC0102649B4
:1014F00001EB800090F88C01704700EB0011C1EB0C
:10150000C011214800EB8100B0F88611B0F88401C9
:10151000814201D1012070470020704710B5044678
:1015200000EB04101849C0EBC41001EB8000D0F8A8
:10153000900106F077FC2046BDE81040A2E500EBE4
:101540000011C1EBC011104800EB8100B0F882110E
:10155000B0F88001081A8030C11700EB516121F00A
:101560007F01401A704710B5817803290AD201EB38
:101570000112C2EBC112044901EB8201D1F8B4118E
:1015800001B18847002010BD0011002010B50C46A5
:10159000480702D000200AF048FAE00609D564485E
:1015A0000078C10701D1800703D5BDE8104008F0DD
:1015B000CDBC10BD10B586B000244FF4E1300090D2
:1015C000ADF808400C20ADF80440ADF80A00ADF8C5
:1015D0000640ADF80C406946204608F05DFC252029
:1015E0008DF810000F208DF811008DF812400120A9
:1015F0008DF8130004A806F0B2FD012240F2255137
:101600004C4806F0C1FC4FF402714B480BF071FAE4
:10161000AFF287004849C1F804020AF08DFA06B01B
:1016200010BD454991F80022885401F500710878F1
:10163000401C08704A6804210020104710B53D4C3A
:101640000146204606F0ECFC4021204606F049FD0C
:101650000028F9D010BD70B50D460646002404E000
:10166000305DFFF7EBFF641CE4B2AC42F8D33248C4
:101670001021D0F80422BDE870400020104770B55A
:10168000BF2A11D82D4B1C6822701D6809246C706C
:101690001C68A0701868C01C0BF012FA284800786B
:1016A000BDE870400AF09FB970BD4030C0B2E6E7B7
:1016B00010B514460A4608B1002010BDE1B210462C
:1016C000FFF7C9FF204610BD78B91B4A92F80032D7
:1016D00092F80102834208D0105C087092F801026F
:1016E000401C82F80102012070470020704710B5AD
:1016F00004460BF013FA2146C2B2BDE81040302078
:10170000BDE70FB40F4900B5096891B0884207DC06
:1017100014AA684613990BF017FF6846FFF7E7FF16
:1017200011B05DF814FB052801D206490860704726
:10173000470200200038014034160020509E010866
:10174000410200201C00002070B50D460BF0DCF9B2
:10175000002404E000F8014B29460BF0D5F90028DD
:10176000F8D170BD70B504680646002C1FD0204625
:101770000BF0D4F900281AD00BF08CF9054600685C
:101780002178415CC90701D0641CF9E720460BF0C1
:10179000C5F90119491E002201E001F80129A14201
:1017A00004D30B782868C05CC007F6D1346070BDE4
:1017B00070B51C46154610600BF0A6F92060002895
:1017C0000BD0002101702068401C20602846FFF7E4
:1017D000C9FF2046FFF7C6FF012070BD2DE9FE4F6F
:1017E0001C468946022A55D30178412952D14178B5
:1017F00054294FD100268654921E12F0FF0500F1A5
:10180000020723D038780D2820D00A281ED00822BD
:10181000DFF8F08178A0082D03D339460BF0A9F941
:10182000F0B14FF0050A78A0052D05D35246394690
:101830000BF09FF9002872D075A0052D2AD35246CF
:1018400039460BF096F900286AD023E04F2189F839
:1018500000104B2189F801102078801C1870C9E015
:1018600007F1080001AB02AA3D21FFF7A1FF88B1F3
:101870000025694F08E007EB8600C16802980BF06D
:1018800054F950B16D1CEDB205EB850637F8260012
:101890000028F0D1FF20BDE8FE8F019801783F2994
:1018A0000BD005EB850107EB8105297A01292CD0A6
:1018B00002292FD0042934D036E005EB850007EB50
:1018C000800598F80000A97A814251D8687A18B149
:1018D00052A16B68EA680CE02A7A684669680BF0E6
:1018E000EFF8287A012806D0022807D0009BEA6882
:1018F0004CA1484674E09DF80030F8E7BDF8003090
:10190000F5E721780844207074E00BF041F98DF878
:10191000000009E00BF03CF9ADF8000004E02DE018
:1019200066E00BF035F90090687AD8B101980BF0B9
:10193000F5F8297A884203D8686801990BF010F904
:10194000A97A98F80000814212D8297A37F826003F
:101950006A46FFF78FF82969044609B16846884747
:10196000204698E72A7A694668680BF0A9F8E7E705
:101970002EA14846EA680BF0CBFDC2E720A00190FB
:101980001FA07D1D009026212846FFF7DDFE28467A
:101990000BF0C4F828B1284601950BF0BFF80544B8
:1019A0006D1C28460BF0BAF818B1284600950BF0CC
:1019B000B5F801A8FFF7D6FE6846FFF7D3FE214829
:1019C00001990BF0B2F828B91E48009911300BF0BC
:1019D000ACF840B188F800601BA1DDE90032484650
:1019E0000BF096FD8DE7012188F800101BA1F4E7AC
:1019F00004F073FA00204EE72B434F4E4649473D13
:101A000000000000200000202B4C4F473D0000004C
:101A10002B4442473D0000009CEA000825733A250C
:101A20007300000025733A2575000000636F6E6631
:101A300069672025733A20756E617574686F7269E5
:101A40007A656400601000204C4F472025732625DE
:101A5000733A204661696C65640000004C4F472072
:101A600025732625733A205375636365656400000A
:101A70002DE9F8430546481E0C46164683B26F1DF5
:101A8000009281B2A5F10508BAB21FFA88F002F0FF
:101A9000C2F9A3B2BAB2A1B21FFA88F0009602F05E
:101AA000BAF9601C83B281B2BAB21FFA88F000960C
:101AB00002F0B1F9681E671D82B2A4F10508BBB23D
:101AC0001FFA88F180B2009602F0A5F9BBB2AAB263
:101AD0001FFA88F1A8B2009602F09DF96D1CBBB206
:101AE000AAB21FFA88F1A8B2009602F094F9BDE8F4
:101AF000F88308B500924A1D93B2421D491F401F4A
:101B000092B289B280B202F03CF908BDFE4A9169F6
:101B1000814201D0C2E906017047F0B5002200E021
:101B2000521C835C202BFBD0092BF9D0DCB22D2C6E
:101B300005D04FF0010605D02B2B03D003E04FF06A
:101B4000FF36F8E7521C00236FF02F070B6007E009
:101B50000C68521C04EB840407EB440423440B6020
:101B6000835CA3F13004092CF2D9DBB22E2B00D117
:101B7000521C01230AE00D6803EB830305EB850586
:101B800007EB45052C445B00521C0C60845CA4F1FF
:101B90003005092DEFD908684FF47A727043086058
:101BA000934204D2B2FBF3F242430A60F0BDB3FBAE
:101BB000F2F2B0FBF2F00860F0BD10B50078022838
:101BC0000CD003280AD0042809D000210846FFF7CA
:101BD00087F9CE484FF0FF31C165016610BD012184
:101BE000BDE810400020FFF77BB908B50021009048
:101BF00040F23F13EF22084602F0C3F808BD08B5D3
:101C0000002100908623EF22084602F0BAF808BDB2
:101C100008B540F23F130090EF228821002002F027
:101C2000B0F808BD08B54FF6FF70009040F23F13C2
:101C3000EF224FF48C71002002F0A3F808BD70472A
:101C4000F0B501250024264603E005EB85056D006F
:101C5000761C9642F9DB90FBF5F6AC4F05FB1600BF
:101C6000203F4FF00A0EB44696FBFEF60EFB16CC54
:101C70000CF1300C07F804C0641C002EF3DC26467F
:101C80004FF0200C03E007F804C0641C761C8E4261
:101C9000F9DB002105E0661A3E4416F8016C5E543B
:101CA000491CA142F7DB2E211955641C00210AE0D2
:101CB00095FBFEF590FBF5F606F130071F55641C09
:101CC00005FB1600491C9142F2DB00201855F0BDBF
:101CD0000B4601220221B3E70B4603220121AFE7A5
:101CE00010B5044604210A2006F051FD002806D054
:101CF000112181708460BDE8104006F05FBD10BD09
:101D0000F8B506461D460C4610460AF007FF014688
:101D10007D48806902780095407802FB016220448A
:101D200083B290B2A1B2EF2202F04FF8F8BD70B5C5
:101D3000774BCD225F21774809F02CFF7548744B13
:101D4000CF2261219E3809F025FF704D95F82600BD
:101D50000A2802D90A2085F82600002461260BE013
:101D600004EB440006EB400081B26A48CF22684B86
:101D70009E3809F00FFF641C95F82600A042EFDCA6
:101D800070BDF8B5614D06460021688A0090212398
:101D9000EF22084602F089F85B4811213246846937
:101DA0006078A1EB5000A98A009181B2A4686B8A87
:101DB0000820A047F8BD642190FBF1F010B586B073
:101DC00001A9FFF785FF514C2023ED22A08A009046
:101DD0000121782001F0D5FF01A80AF09FFE4A49B1
:101DE0008A6911784908484351781123A3EB5101BE
:101DF000A38A0093638AC0F1B300946889B280B269
:101E000001AAA04706B010BD2DE9F04381463F4826
:101E100089B07830FFF77AFE3B4E3C4CB5253068F0
:101E20000128A08A0090638A1BD0607E01281ED002
:101E300039A2B7694A21B520BF68B847F069FFF7F2
:101E400065FE32488830FFF761FE607E002700287B
:101E5000484629D032494FF07E58894509DA314841
:101E60000BE0B2694A21B52097682FA2E5E72EA2C0
:101E7000DFE7014640460AF0CEFE2D49404507DA2D
:101E80000AF093FE0BF03EF8032201AB012106E0BD
:101E90000AF08BFE0BF036F8032201AB1146FFF778
:101EA000CFFE8DF8097010E00BF064F8214A224B48
:101EB0000AF0F1FE0022214B0AF094FF0BF03BF8F0
:101EC00001A9FFF705FF8DF8087001A80AF026FEAA
:101ED000B1690A7802FB105548784921A1EB5007F7
:101EE0000A3D01A80AF01AFE042807D8A08A00902B
:101EF0006123B3222521282001F043FFA08A00900E
:101F0000638AB9B2A8B21BE0240000205C1800204C
:101F1000B73D0008B00D01084DA6B82E636D000056
:101F20006F12033A0000FA44A6CC532F636D0000F1
:101F300000007A449A9999999999A93F0000244000
:101F4000B269946801AAA047F069FFF7DFFD09B004
:101F5000BDE8F08338B5FB4C05466323608A0090EA
:101F6000EF222321002001F0A0FFA07EF64A0028E6
:101F7000A08A00909269638A4FF03C0194684FF008
:101F8000080005D0F1A2A0472846BDE838403BE74D
:101F9000EFA2F8E770B5EB4C8AB0206494F86610B5
:101FA000002934D0A17E002931D10AF0E3FF0022BC
:101FB000E84B0AF070FE0AF0BEFF0246E6A101A857
:101FC0000BF0A6FA01A80AF0A9FDDF4DAA69117865
:101FD000484351787723A3EB5101A38A0093C0F1C2
:101FE0003E009668638A89B280B201AAB04704F1C4
:101FF0007800FFF78BFDA08A0090A869638A73219F
:102000008468D6A24620A047E869FFF77FFD0AB0A2
:1020100070BD70B5CB4C86B001AB01220221A06C23
:10202000FFF70EFE01A80AF079FDC74DAA691178E5
:10203000484351787723A3EB5101A38A0093C0F161
:10204000D4009668638A89B280B201AAB04704F1CD
:102050007800FFF75BFDA08A0090A869638A73216E
:102060008468BFA2DC20A047E869FFF74FFD06B0F7
:1020700070BD38B50446B3480D468723408A0090AA
:10208000EF226621002001F010FF2046FFF782FFBB
:102090002846BDE83840BCE770B5AA4C86B094F835
:1020A0003C20642A00D36422ABA101A80BF030FAD3
:1020B00001A80AF033FDA44DAA691178484351786C
:1020C0001123A3EB5101A38A0093C0F1DE009668AF
:1020D000638A89B280B201AAB0479A487830FFF784
:1020E00015FDA08A0090A869638A102184689DA2CA
:1020F000E120A047E869FFF709FDB8E770B5924C09
:1021000005460146A06809F07CFE2946E06809F012
:1021100078FE2946606809F074FE2946206909F0B6
:1021200070FE29466069BDE8704009F06ABE70B56E
:10213000844C0546A08AFFF762FD2846FFF721FE82
:10214000FFF7AAFF606CFFF705FFA16C206CFFF79B
:1021500090FFBDE87040EAE538B57B4C1546FF2896
:1021600010D1FF290ED110460AF0D8FCA1690A78D7
:10217000497852085043A022A2EB5102C0F17800E6
:10218000A2EB51016F4A89B280B2938A0093538ABD
:10219000A26994682A46A04738BD6A48401D0CE5EC
:1021A00010B507F056F86748C01D41880180C01F70
:1021B000082141725321817210BD624810B502227C
:1021C0000021243007F061F830B967A340F60A0215
:1021D00069A1002006F0A2FB5A48818CA1F57F423C
:1021E000FF3A01D10021818410BD564810B502226A
:1021F0000021243007F06CF8002807D1BDE810401A
:1022000063A340F61A025CA106F088BB10BD70B54E
:102210004C4DAC8CFFF7D1FFA88CA04203D0AC840E
:10222000BDE87040E1E770BD464810B502220021CC
:10223000263007F02AF8002807D1BDE8104058A33F
:1022400040F62F024CA106F069BB10BD3D4810B509
:1022500002220021263007F03BF8002807D1BDE814
:10226000104054A340F63F0243A106F057BB10BDF7
:1022700070B5344D95F82640FFF7D6FF95F8260047
:10228000A04204D085F82640BDE87040DEE770BD6E
:1022900070472C4A127E012A01D04BA200E04DA2C9
:1022A0005AE7284900204978CA0702D1890700D592
:1022B0000120704710B588B00C460346FFF7F1FFC8
:1022C00006228DF8002000218DF8011004218DF8E0
:1022D000021011218DF8031001218DF804108DF8E2
:1022E0000530CDF8064002F0BEFA9DF80010091D39
:1022F000CAB2694603F0C3F908B010BD1FB50C4659
:102300000346FFF7CEFF03228DF8002000218DF851
:10231000011001218DF8021011218DF80310072101
:102320008DF804108DF805308DF8064002F09BFA08
:102330009DF80010091DCAB2694603F0A0F904B067
:1023400010BD00005C180020240000204850000050
:10235000555000000000E03F2564000070706200EE
:10236000A1E60000250000007265616420717477A9
:10237000206661696C000000536F757263655C4193
:1023800050505C646973706C61792E6300000000CA
:10239000777269746520717477206661696C0000DA
:1023A000726561642071747773706565642066611D
:1023B000696C000077726974652071747773706559
:1023C0006564206661696C00456D707479205461A4
:1023D0006E6B0000CBAECFE4BFD500001FB5042369
:1023E0008DF8003000228DF801208DF80230912305
:1023F0008DF8033007238DF804300B788DF8053005
:1024000049788DF806108DF8072002F02CFA9DF817
:102410000010091DCAB2694603F031F98FE71FB5F4
:102420000346FFF73EFF02218DF8001000218DF8D2
:10243000011004228DF8022011228DF804108DF86D
:1024400003208DF8053002F00EFA9DF80010091DEA
:10245000CAB2694603F013F971E71FB50346FFF7E7
:1024600020FF02218DF8001000218DF801100421B9
:102470008DF8021011218DF8031003218DF804103E
:102480008DF8053002F0EFF99DF80010091DCAB271
:10249000694603F0F4F852E7FB4810B5002180F8D4
:1024A0003910007E012801D0F8A000E0F9A0FFF764
:1024B0003EFEBDE81040012020E6F34810B50121A2
:1024C00080F83910007E012801D0F4A000E0F5A0CA
:1024D000FFF72DFEBDE8104001200FE6704710B554
:1024E000FFF75EFEFFF759FEBDE81040D4E7E6486F
:1024F00000214172817241718171F0E710B5FFF7DF
:102500004FFEFFF74AFEBDE81040D6E7DE48012146
:1025100041720021817241718171EFE7DA4810B593
:10252000007E012801D0E1A000E0E2A0FFF7FFFD5E
:10253000BDE810400120E1E500210846BAE600218F
:102540000846B7E610B50446FFF72AFEFFF725FE5A
:10255000FFF7E4FF002C03D1BDE8104001205EE747
:10256000EEE6C94902224A7200228A7201234B71A7
:102570008A71E7E7F5E72DE9F041C34F86B097F898
:10258000270020B1B88C01A9FFF7A2FB03E0CBA183
:1025900001A80AF0E5FABC4879226830C94E0178F2
:1025A0004FF6FF784908494202EB81054178B2694C
:1025B0000520B1FBF0F15378CDF80080B3FBF0F0CB
:1025C000084400EB4004D034D2F808C07B8AA1B2A2
:1025D000A8B201AAE047AC487830FFF797FA97F81D
:1025E0002700CDF800800028F069B269417853785F
:1025F00021440078A1EB030105EB800001F1020109
:102600007B8A00F10100946889B280B201D0AEA249
:1026100000E0AEA2A047F069FFF778FA06B0BDE887
:10262000F081FFF784BBA6E7A5E7FFF780BB33E5A2
:10263000954810B5007E012805D0042801D0A4A03B
:1026400002E0A6A000E0A7A0FFF771FDBDE81040E2
:10265000012053E58068002800D00047704710B57E
:102660000446FFF79DFDFFF798FDFFF7E1FF34B942
:102670008548818C642041430120FFF71BFEFFF752
:10268000C6FDBDE81040F3E57F4810B5007E012887
:1026900005D0042801D096A002E097A000E098A001
:1026A000FFF745FDBDE81040012027E57047AFF278
:1026B0000300FFF715BB10B50446FFF771FDFFF7E8
:1026C0006CFDFFF7E1FF002C04D1611EBDE8104056
:1026D0000120EFE534E66C49032202234A7200220E
:1026E0008A724B718A71521ECA650A66E3E76648B0
:1026F00010B5042180F83910007E012805D0042887
:1027000001D081A002E084A000E087A0FFF70FFDC8
:10271000BDE810400120F1E410B5FFF741FDFFF7DF
:102720003CFDBDE81040E2E7574807214172002117
:102730008172042242718171EEE72DE9F84F1E4645
:10274000814612F806B00020DDF82CA0DFF8748175
:1027500090551546CDF800A0D8F818200C4689B23F
:1027600097681FFA89F02A460A9BB84728460AF05C
:10277000D5F9D8F81820A1B2137800FB03970A986E
:102780000090D2F804C0B8B253465A46E047D8F891
:10279000181035441FFA84FC0878CDF800A00744CF
:1027A0008E686A1CB8B261460A9BB04736486A1CFC
:1027B0002146C38A01B03846BDE8F04FFFF7A0BA02
:1027C0002DE9FC5F1D46814612F805A00020DDF8CA
:1027D00038B03C4F50551446CDF800B0BA69884621
:1027E00089B296681FFA89F022460D9BB0472046B1
:1027F0000AF094F9B9695B460A7804F805A000FB71
:1028000002990C9804EB050A2E180020A15D019195
:10281000A0550D980090BA691FFA88F11FFA89F047
:1028200095685246A84750460AF078F9B9693219B6
:10283000097800FB01900199A155CDF800B0BB6962
:102840001FFA88F180B29C680D9BA047BDE8FC9FF1
:102850007047704708B1012803D1012901D1002038
:1028600039E770470848818C61B1042141725221D7
:1028700081720321417100218171491EC165016688
:102880000020ECE654E000005C1800205374616EF8
:1028900064627900BFD5CFD000000000526561644A
:1028A00079000000BECDD0F70000000052656369DA
:1028B000722E0000D1ADBBB7000000002020202008
:1028C00000000000240000204C0000002000000058
:1028D000566F6C204469737000000000566F6C20C6
:1028E00041757300B6A8C1BFC8A1CBAE00000000FF
:1028F000446973702E000000417573676162650062
:10290000B2FA20CBAE000000507265737375726529
:102910002052656C69656600447275636B20616264
:102920006C617373656E0000D0B920D1B9000000EE
:10293000002016E608B1012800D193E7704700286F
:1029400002D1012900D1F7E57047FC4A127A502ADA
:1029500002D0522A01D1F2E7ECE77047002802D1F9
:10296000012900D1EBE57047F44A127A002A00D120
:10297000F4E7704708B1012803D1012901D10020F3
:10298000A9E67047ED4A127A002A00D1F2E77047B3
:102990007047EA4A127A002A00D15BE770470020AC
:1029A0005BE5012059E510B5E44CA08C00280DD062
:1029B00094F8271029B1401E0004000CA08406D012
:1029C00008E0FFF7D8FD012084F82700B8E40020D4
:1029D00084F82700BDE81040CDE510B5D74C94F839
:1029E000270048B1A08C40F2E731884201D2401C58
:1029F000A084BDE81040BEE5FFF7BDFD012084F8CE
:102A000027009DE4CD4890F83900012803D0032821
:102A100003D1002003E50020A3E57047C74890F8E4
:102A20003910052913D2DFE801F003060C060F0068
:102A3000012108460AE090F8270000B112E70020C3
:102A400039E60021084635E40121002056E47047AC
:102A500038B50446BAA340F6B472AFF2E461009010
:102A6000042005F05BFF062C16D2DFE804F0030615
:102A7000090C0F11BDE83840D0E7BDE83840C1E788
:102A8000BDE83840A9E7BDE838408CE7012000E008
:102A90000020BDE83840E0E438BD70B5A74D0446DD
:102AA000A87800281CD1E88101F089FE30B9A088FF
:102AB00020B1BDE87040012001F06EBEA088C107C2
:102AC0000FD180070DD595F84D1020884140C907DA
:102AD00003D0C00701D1FFF7BBFF207885F84D0078
:102AE00070BD2046BDE8704009F099B99348C0799F
:102AF000072800D018E670479048C079022801D016
:102B000001202EE570478D48C079032803D00428A2
:102B100001D00120DFE570478848C079012800D046
:102B2000F4E470478548C079002800D0DFE470479E
:102B300070B50224814D052814D2DFE800F00306A9
:102B4000090C0F00FFF7EEFF0AE0FFF7E5FF07E0D3
:102B5000BDE87040D7E7FFF7CFFF01E0FFF7C6FF02
:102B600085F8654070BD08B1012805D1012903D160
:102B7000724890F83900DBE770472DE9F0416F4E5D
:102B800005460C46B078002846D18446314648199F
:102B90003431A6F80EC04B78012707FA05F2097800
:102BA000934364B1114237D1114386F8341086F84B
:102BB000353080F8367001F002FE40B109E09143F3
:102BC00086F8341086F8353080F836C0F3E7012CEB
:102BD00009D006F03EFBF07905281DD2DFE800F0B1
:102BE0001C080D121700BDE8F041012001F0D4BD12
:102BF00021462846BDE8F041CBE621462846BDE8FF
:102C0000F041BFE621462846BDE8F041ACE621464A
:102C10002846BDE8F04198E601E548494B480222C4
:102C2000C8614260C969002088747047F5E7704741
:102C3000424A907838B1401E10F0FF00907028D1C1
:102C400092F8390074E7108A401C108292F8340020
:102C500088B1C0070FD092F83500C1070BD192F8A8
:102C60003610491CC9B282F83610032903D940F046
:102C7000010082F83500D07800280AD19089401CE4
:102C80009081D089401C80B2D081B42801D300202B
:102C9000D081704738B5294CA08AFEF7A6FFA08ADC
:102CA00000902B48638A282180692AA284680A2020
:102CB000A04738BD10B506F0CCFA2048C1790529E7
:102CC00018D2DFE801F0030A0E111400007A002880
:102CD00010D1BDE81040FFF7DFBBBDE81040FFF7A3
:102CE000ECBBBDE8104019E4BDE81040CCE4BDE801
:102CF00010409DE434E41149052208B1012802D1B5
:102D000081F8382002E4704710B50C4CE1790429B1
:102D100026D804280AD0032822D1206DFFF774F8A2
:102D2000B4F84E00BDE81040FFF773B9D4F8560070
:102D3000FFF76AF8B4F85400F4E700005C180020CC
:102D400062746E2025640D0A00000000A0100020AF
:102D5000240000204C6F6164696E672E2E2E0000E7
:102D6000B8E4F0B4FF4D0478FD4E95F86530AA7EC6
:102D700095F83910012C1CD00027032C32D0042CDC
:102D80002ED1002A2CD1376002293DD0032927D12A
:102D9000D0F80310C5F85610B0F80110A5F854107B
:102DA000D0F803106964B0F80110A9640078F0BC91
:102DB000AAE7012A14D1326002290FD003290FD1CA
:102DC00050F8031F296530F8021CA5F84E10016861
:102DD000696430F8020CA8640320E8E7012BEFD007
:102DE000F0BC7047012AFBD13760022909D00329C2
:102DF000F6D1D0F803102965B0F80110A5F84E10EF
:102E0000CEE7012BF5D0EBE7002BC1D0E8E770B59A
:102E1000017900290FD110F8051B0722491EB1FBCB
:102E2000F2F60546002404E02846FFF79AFF641CEA
:102E3000ED1DB442F8DB70BDCA48D0E91721891AEC
:102E40004FF47A72408F5143B1FBF0F07047C5499F
:102E500010B5C979032901D0042907D1002805D16B
:102E6000FFF7EAFFBDE81040FEF7A5BF32E42DE909
:102E7000F04104460179BCA00AF03AFB2079002811
:102E80001DD114F8050B0521401EB0FBF1F60025FD
:102E9000B44F12E0207870B9F86D401C02D1D4F81C
:102EA0000100F865396ED4F80100814203D038661C
:102EB0002078FFF7CCFF6D1C641DB542EADBABE662
:102EC0007047AC490A7801210A3A9140014201D089
:102ED000012070470020704710B500284FF0000017
:102EE00005D0FEF701F800280BD1012104E0FDF721
:102EF000FBFF002805D00021BDE810400020FDF7B1
:102F0000EFBF63E5974981F8390011E670B5954E3A
:102F10000446022896F8395002D0032C10D019E04C
:102F20000846FFF7CEFF00284FF0010002D0FFF760
:102F3000D3FF0CE0FFF7E6FF0020FFF7CDFF0BE02B
:102F40008848807E91B1012906D1012801D120460F
:102F500000E00120FFF7D6FF96F83900A84208D11B
:102F6000002806D1BDE87040FFF796BA0028F0D1DE
:102F7000EDE770BD81780078C8E730B5054679483F
:102F80000C4687B0C1690A220831601D09F0DBFDDB
:102F900000282BD1B4F80F0040BAA0F10A0109298A
:102FA00024D202F032FA01F067FD284601F05BFC02
:102FB00002F086FA01208DF8080000208DF8090043
:102FC00004208DF80A0091208DF80B0011208DF857
:102FD0000C00284601F047FC052202A9CDE90012A9
:102FE000644921230A88012102F07AFA07B030BD32
:102FF00030B58BB0044601208DF8080000208DF814
:10300000090004208DF80A0091208DF80B00122091
:103010008DF80C005348584D817E8DF80D10C16914
:103020008868CDF80E00C868CDF81200088AADF89F
:10303000160050480188080A8DF818000E208DF8F7
:1030400008004E488DF819102980B0EB815F02D13D
:1030500002F00DF92880204601F005FC9DF80810CB
:1030600002AA091DC9B2CDE9002121232A88012124
:1030700002F036FA0BB030BD3A4A92F84C108B078A
:1030800002D54FF4784106E0C90702D04FF6E0714F
:1030900001E04FF6FF719182002800D00AE67047E8
:1030A00070B5304D064600202876C879A876887A13
:1030B00085F83C00C87A85F826000C1D097B85F848
:1030C00066102FA00AF014FA207985F83900687884
:1030D0000121B1400843687095F84C00617988423D
:1030E00004D085F84C100020FFF7C6FF16B9002069
:1030F00002F0B4FE617A2079BDE8704006E7194815
:10310000417821F00201417070472DE9FE4F154DC5
:103110000646904685F8640008790C4625A340F6DB
:103120007B62AFF6AC510090042005F0F7FB2079EC
:103130004FF6FF7713284FD2DFE800F00A4FFEFD6D
:10314000FC4EFBFAF94E4E4E4E4E4E4EF8F7F60040
:10315000A079661D08B1FFF7D9F970783AE0000050
:10316000240000205C180020666D3A202564200DA4
:103170000A00000066000020680000200000C0FF78
:10318000446973705F446973706C617948616E64FF
:103190006C65496E64436F6E662067446973706C3A
:1031A00061792E756348617665544F43202564200C
:1031B0000D0A0000446973705F446973706C617933
:1031C00048616E646C654F7073456E74727920252A
:1031D0006400000085F8380042E1A97EA07BCDF8AC
:1031E0000080661DFDA340F68C62CDE90101AFF6BB
:1031F0007861042005F092FBB8F1000FECD07078F4
:1032000010B1FFF783F92EE031780020DFF8E89362
:103210004FF0050809F1100A4FF0790B012985F8E4
:10322000270027D000210846FDF75AFE99F8010033
:103230000097B0FBF8F101EB410101F1D90399F8D6
:103240000020034450089AF80070404207EB8007C2
:1032500002EB820278323A440BEB8000D73192B213
:1032600080B200F08EFD707885F83800707A85F8AD
:103270006500F5E001210020FDF732FEB6F80300FD
:1032800010B1B84200D06887D6F80500D0B3401C12
:1032900038D0707AA97E884234D1D8A340F6A9628A
:1032A000AFF62C710090042005F038FBD6F805002D
:1032B00042F2107188421DD999F801200097B2FBA3
:1032C000F8F101EB410101F1D90C0CEB020399F883
:1032D00000209AF800705008404207EB800702EB8C
:1032E000820278323A440BEB8000D73192B280B23E
:1032F00000F047FDD6F805006421B0FBF1F0A8848A
:10330000FFF739F9B07808B101280BD1697E814205
:1033100008D06876A88A00905E23B4222821022073
:1033200000F02FFDE87908E032E02CE023E07FE0B8
:103330006DE061E031E006E013E0032893D0022065
:10334000FFF7F6FB8FE7A179601D002991D1A97ED7
:10335000C27891428DD1807885F82600FEF7E7FC8F
:103360007EE0631DFEF79DFFB04279D19978187811
:10337000FFF7CCFD74E0384602F047F8002E6FD11D
:1033800006F0E4FD6CE021463046FFF7F6FD67E00D
:1033900021463046FFF72CFE62E06079661DC007CB
:1033A00015D095F83C00717888420BD0642809D379
:1033B000642907D2A88A00901E23EB2203219620BD
:1033C00000F0DFFC707885F83C00FEF765FE307891
:1033D000800745D556F8020F09F0CCFDCDE9000174
:1033E0008CA340F61B729349042005F097FA3068CD
:1033F0002864FEF7CFFD33E095F84C1060798142E8
:103400002ED085F84C000120FFF736FE28E0A07989
:10341000671D012802D13878012807D00020FFF766
:1034200087FB39463046FEF7D9FF19E00420F6E75E
:1034300020780721401EB0FBF1F8671D7EA340F6FF
:1034400045727C490420CDF8008005F067FA00261B
:1034500004E03846FFF785FC761CFF1D4645F8DB87
:1034600095F839102079CDE900017AA340F6517220
:103470007049012005F052FABDE8FE8F10B5002911
:1034800005D1FFF734F8BDE8104002F026BD31E465
:103490002DE9F04F89B0AFF64725322405204FF0D3
:1034A00000086F4EB4FBF0F9CDF81C80CDE905653E
:1034B000ADF804400120ADF806408DF80800A6F2F2
:1034C000DE41CDE903814FF0020BADF800B0892158
:1034D0000890ADF80210684608F0D7FB614F4FF036
:1034E000CE0A786006F6BC10CDE90406AE2006953B
:1034F000ADF80000ADF804400795ADF80640ADF812
:1035000002A06846CDF820B008F0BFFBB860C4F157
:103510005200ADF80000ADF802A006F69A60CDE9C1
:10352000040606950320ADF8044008900795ADF811
:103530000640684608F0A9FBF8604B48CDE9040650
:10354000C9F100017D2000EB4109CDE90658ADF835
:1035500000909320ADF802000420ADF804400890DC
:10356000ADF80640684608F090FB38613F48CDE969
:103570000406CDE90658ADF800904FF48770ADF819
:1035800002000520ADF804400890ADF806406846FA
:1035900008F07BFB786109B0BDE8F08FFEB508F05C
:1035A00057FC15486821683809F0A3FAFFF735FB86
:1035B000114C48F23040683C002560824FF6FF70A5
:1035C000A082E082E06945600120A07006F083F8E7
:1035D00008222062E2715320207249E04150505F7E
:1035E0005041434B45545F484F5F51545720256429
:1035F0002625642625640000C41800204150505F31
:103600005041434B45545F484F5F51545720256408
:10361000000000004150505F5041434B45545F480B
:103620004F5F514C5F545950455F505042202564C4
:1036300000000000782300084150505F5041434B88
:1036400045545F484F5F57515F4E4F54494659208C
:1036500025640000484F2025642625640D0A0000DB
:10366000DEEF00082400002056030108340801089A
:103670004FF4E17060872948606429482064022083
:10368000284E84F8650004F168002749F56141601F
:10369000264981602649C1600C21017018214170C2
:1036A0001030244B4360244B8360244BC360027072
:1036B000102242701030224AC0E90152214AC260F1
:1036C0000170302141702038FEF720FA0023009568
:1036D00001951A461CA12348029509F019FF2148BB
:1036E00009F01CFAB26906F1200311784843C0F1D1
:1036F000EA01801D19800844988003205880507882
:103700000930D880FEF759FDE01CFEF756FAFFF7A6
:10371000BFFEBDE8FE40FFF7BDBA00009A99914197
:103720000000404024000020A7430008CD460008C8
:103730000D4700083B420008294700089343000852
:10374000C54500080B460008253034642D2530326D
:10375000642D2530326420253032643A25303264BD
:1037600000000000600C002009490AA009F0C0BE5A
:1037700070B5094D0446C1B2284604F051FC402101
:10378000284604F0AEFC0028F9D0204670BD0000A9
:10379000E60F01082573000000380140FE4AD16899
:1037A000C3B289B221F4FF7141EA4301D160FB4BFE
:1037B000196840F2CF3289B21140302202EA101269
:1037C0000A436FF3090010431860F44801220830DF
:1037D000026000200146401C0129FBDBEF48001D70
:1037E000026000200146401C0129FBDB7047EC4BC6
:1037F00010B502221A6000221346521C012BFBDB7B
:10380000E84A0424146000221346521C012BFBDBFF
:1038100041EA0020FFF7C2FFE248001F04600020D9
:103820000146401C0129FBDB10BDDD4A10B5022119
:10383000116000210A46491C012AFBDBD9490424F6
:103840000C6000210A46491C012AFBDBFFF7A6FF9A
:10385000D448001F046000200146401C0129FBDB06
:1038600010BDCF4B022210B51B1D1A60002213465B
:10387000521C012BFBDBCB4A0424146000221346AC
:10388000521C012BFBDB41EA0020FFF787FFC548F4
:10389000001F046000200146401C0129FBDB10BD15
:1038A00030B50C4605462A210020FFF7DAFFC5F3A4
:1038B00007210020FFF79BFFE9B20020FFF797FFE9
:1038C0006D1CC5F307210020FFF791FFE9B200202E
:1038D000FFF78DFF2B210020FFF7C3FFC4F3072163
:1038E0000020FFF784FFE1B20020FFF780FF641C97
:1038F000C4F307210020FFF77AFFE1B2BDE83040B2
:10390000002074E7F0B51C4616460D460746F02821
:1039100000D3EF274FF4A070411E854200D30D461F
:10392000F02E00D3EF26844200D30C462A2100203B
:10393000FFF797FFC7F307210020FFF758FFF9B201
:103940000020FFF754FFC6F307210020FFF74FFFC9
:10395000F1B20020FFF74BFF2B210020FFF781FF82
:10396000C5F307210020FFF742FFE9B20020FFF76F
:103970003EFFC4F307210020FFF739FFE1B200202A
:10398000FFF735FFBDE8F0402C21002069E740F249
:103990003F13EF22B6E710B51446FFF781FF2C2145
:1039A0000020FFF75EFFA0B2BDE810403DE770B514
:1039B0007A4C0220241D206000200146401C012971
:1039C000FBDB0120206000200146401C0129FBDBBD
:1039D0000425256000200146401C0129FBDB002254
:1039E0000A231146104607F05EFE6C4E083635601D
:1039F00000200146401C0129FBDB00221423114654
:103A0000104607F050FE256000200146401C0129A9
:103A1000FBDB002278231146104607F044FE1121FB
:103A20000020FFF71EFF002278231146104607F002
:103A30003AFE36210020FFF714FFC0210020FFF7D7
:103A4000D6FE3A210020FFF70CFF55210020FFF79A
:103A5000CEFEB2210020FFF704FF0C210020FFF76B
:103A6000C6FE0C210020FFF7C2FE00210846FFF72A
:103A7000BEFE33210020FFF7BAFE33210020FFF7FE
:103A8000B6FEB7210020FFF7ECFE35210020FFF73E
:103A9000AEFEBB210020FFF7E4FE30210020FFF73F
:103AA000A6FEC0210020FFF7DCFE2C210020FFF73E
:103AB0009EFEC2210020FFF7D4FE01210020FFF767
:103AC00096FEC3210020FFF7CCFE17210020FFF750
:103AD0008EFEC4210020FFF7C4FE20210020FFF746
:103AE00086FEC6210020FFF7BCFE0F210020FFF755
:103AF0007EFECA210020FFF7B4FE0F210020FFF751
:103B000076FEC8210020FFF7ACFE08210020FFF759
:103B10006EFE55210020FFF7A4FE90210020FFF744
:103B200066FED0210020FFF79CFEA4210020FFF7B5
:103B30005EFEA1210020FFF75AFEE0210020FFF7E2
:103B400090FEF0210020FFF752FE00210846FFF70B
:103B50004EFE0A210020FFF74AFE10210020FFF749
:103B600046FE12210020FFF742FE1B210020FFF736
:103B70003EFE39210020FFF73AFE44210020FFF7E6
:103B800036FE47210020FFF732FE28210020FFF7F4
:103B90002EFE1221002007E0001001400C0C014015
:103BA0001008014014140140FFF721FE10210020ED
:103BB000FFF71DFE16210020FFF719FE1B21002034
:103BC000FFF715FEE1210020FFF74BFEF02100205A
:103BD000FFF70DFE00210846FFF709FE0A2100202D
:103BE000FFF705FE10210020FFF701FE1121002044
:103BF000FFF7FDFD1A210020FFF7F9FD3B21002012
:103C0000FFF7F5FD34210020FFF7F1FD4E210020E4
:103C1000FFF7EDFD3A210020FFF7E9FD1721002015
:103C2000FFF7E5FD16210020FFF7E1FD212100202F
:103C3000FFF7DDFD22210020FFF7D9FD2A2100201A
:103C4000FFF70FFE00210846FFF7D1FD00210846CF
:103C5000FFF7CDFD00210846FFF7C9FDEF21002049
:103C6000FFF7C5FD2B210020FFF7FBFD00210846D3
:103C7000FFF7BDFD00210846FFF7B9FD0121002037
:103C8000FFF7B5FD3F210020FFF7B1FD29210020FE
:103C9000FFF7E7FD2C210020FFF7E3FD082030604F
:103CA00000200146401C0129FBDB1423BDE87040C5
:103CB00000221146104607F0F6BCF8B501213C2061
:103CC00002F0A3FD4FF4FF70ADF8000003258DF85E
:103CD000025010248DF803406946FE4802F059FB5B
:103CE0004FF63040ADF80000FB4E8DF802508DF8D5
:103CF00003406946304602F04CFB0120ADF800005D
:103D00006946304602F045FB0424ADF800406946A0
:103D1000F24802F03EFB0225ADF800506946F0483B
:103D200002F037FBADF800506946304602F031FB37
:103D3000ADF800406946304602F02BFB0820ADF894
:103D400000006946304602F024FBFFF730FEF8BD64
:103D5000F0B50746002140F23F13EF220846FFF777
:103D6000D1FD00254FF4A07600243846FFF75DFD15
:103D7000641CA4B2B442F8D36D1CADB2F02DF3D3E1
:103D8000F0BD2DE9F0411E4694460F460546DDF88C
:103D90001880FFF7B7FD0AE03C4604E04046FFF715
:103DA00044FD641CA4B2B442F8D96D1CADB26545A3
:103DB000F2D9BDE8F08110B514464B1C421CFFF748
:103DC000A1FD2046BDE810402FE52DE9F0419C46BD
:103DD00016460D460746DDF81880FFF793FD0AE00A
:103DE0003C4604E04046FFF720FD641CA4B2B44208
:103DF000F8D96D1CADB26545F2D9DAE708B5009285
:103E00004A1C93B2421C491E401E92B289B280B233
:103E1000FFF7DBFF08BD2DE9FC4F0026A2EB000CED
:103E200081465F1A701E35468846BCF1000F02DDE0
:103E30004FF0010102E003D14FF00001009102E0D8
:103E4000CCF1000C0090002F02DD4FF0010002E0E9
:103E500003D14FF00000834602E08346C7F100071C
:103E6000BC4501DD644600E03C46601C4FF0000AA2
:103E7000019015E01FFA88F11FFA89F00B9AFFF7FD
:103E80009AFF66443D44A64202DD0099361B8944F0
:103E9000A54201DD2D1BD8440AF101001FFA80FA6A
:103EA00001998A45E6DDBDE8FC8F2DE9F8411D4604
:103EB000079C1646884607460B460094FFF7ABFF63
:103EC0003A462B46414610460094FFF7A4FF2B4686
:103ED0003246194638460094FFF79DFF32462B467E
:103EE000414610460094FFF796FFBDE8F8812DE9A2
:103EF000FF4F844600241546032081B00F46A0EBF7
:103F0000450661E0A7EB0408ACEB05091FFA88F150
:103F10001FFA89F0049AFFF74EFF0CEB050B1FFA0E
:103F200088F11FFA8BF0049AFFF745FF781981B2E8
:103F3000ACEB040A00901FFA8AF0049AFFF73BFFEB
:103F40001FFA88F11FFA89F0049AFFF734FFA7EBF4
:103F500005081FFA88F11FFA8AF0049AFFF72BFF71
:103F600007EB040A1FFA8AF11FFA8BF0049AFFF795
:103F700022FF1FFA88F10CEB04081FFA88F0049A5C
:103F8000FFF719FF0098049A81B21FFA88F0FFF733
:103F900012FF1FFA8AF11FFA89F0049AFFF70BFF4C
:103FA000641C002E03DA06EB8406B61D04E0601BD9
:103FB00006EB80060A366D1E781981B20CEB040000
:103FC00080B2049AFFF7F7FEAC429BDD05B0BDE876
:103FD000F08F2DE9F05F14460D4608F086FF80460D
:103FE0008946284608F081FF06460F46204608F01D
:103FF0007CFF04460D4642464B4608F0F0FE394A27
:104000000123C2E9000102F158003749C0E9006705
:104010008A460B60DAF8000000EBC000400008F0B0
:1040200053FFCAE9020102460B4600202F4908F05F
:10403000C9FF504616D88068DAF80C100AF064FC04
:1040400022462B4608F0CEFE42464B4608F0C7FEFD
:10405000244BDAF8002003EBC202C2E90001DAE9DE
:1040600002011FE0DFF888B0826800205946DAF8C4
:104070000C3008F0B1FE0AF047FC22462B4608F04F
:10408000B1FE42464B4608F006FE164BDAF8002019
:1040900003EBC202C2E90001DAE90223002059461B
:1040A00008F09AFE0AF086FC22462B4608F09AFE9B
:1040B00032463B4608F093FE0A4BDAF800205833AC
:1040C00003EBC202C2E90001DAF80000401CCAF8A2
:1040D00000000FE000100140000C014000140140FE
:1040E00000080140F81800205000002000805640D1
:1040F000008066400A288DDDBDE8F09F2DE9FF4F66
:104100000F46002485B0154603218246A1EB4508E1
:10411000F749129801EBC0068AE0AAEB0500814638
:1041200008F0D2FECDE90001D6E9002308F036FF01
:1041300008D8002C06DB381B81B21FFA89F0089AD8
:10414000FFF739FEDDE90001D6E9002308F026FF7C
:1041500008D8002C06DB381B81B21FFA89F0089AB8
:10416000FFF729FE0AEB0500834608F0ADFECDE916
:104170000301D6E9002308F011FF08D8002C06DB64
:10418000381B81B21FFA8BF0089AFFF714FEAAEBD6
:104190000400029008F098FED6E9002308F0FEFE25
:1041A00008D8002D06DB781B81B20298089A80B2ED
:1041B000FFF701FE0AEB0400029008F085FED6E945
:1041C000002308F0EBFE08D8002D06DB781B81B237
:1041D0000298089A80B2FFF7EEFDDDE90001D6E90A
:1041E000002308F0DBFE06D82CB939461FFA89F007
:1041F000089AFFF7E0FDDDE90301D6E9002308F0A6
:10420000CDFE06D82CB939461FFA8BF0089AFFF775
:10421000D2FD641CB8F1000F04DA08EB840000F151
:10422000060805E0611B08EB810000F10A086D1E1D
:10423000AC427FF772AF09B0C9E62DE9FF4F89465E
:10424000AC494FF0040A0746C1F800A00021084617
:10425000491C0128FBDB00251001DFF89CB2A0F50A
:10426000007808EB050100241BF801C009EB0506E6
:10427000C4F107002CFA00F0C007314607EB040038
:1042800001D0039A00E00D9AFFF785FB641CA4B2ED
:10429000082CEDD36D1CADB2102DE2D39549091F4A
:1042A000C1F800A000200146401C0129FBDBBDE84D
:1042B000FF8F2DE9F843994615460E4604464FF404
:1042C0009878089F0CE0E82C0DD846450BD84B4653
:1042D000314620460097FFF7B0FF0834A4B26D1CAA
:1042E0002A78002AEFD1BDE8F8832DE9FF5F8A46DE
:1042F00080494FF0040B15468046C1F800B00020FD
:104300000146401C0129FBDB00247C4E32E0C4EB5B
:10431000C40000EB80002A78315C914229D100EB87
:104320000609697899F80100884222D10027002502
:104330000AEB070C05EB470109EB01000024C678E6
:1043400061463006002808EB040000EBC50001DAE6
:10435000039A00E00E9AFFF71EFB7006060E641C1F
:10436000082CEDD36D1C022DE4DB7F1C102FDED357
:1043700004E0641C04F008F8A042C8D85D49091F95
:10438000C1F800B000200146401C0129FBDBBDE85C
:10439000FF9F70B514460D4608F0C0FBC100000138
:1043A0002960206070BD2DE9FF4F8A4651494FF0CA
:1043B000040B8446C1F800B000200146401C0129CE
:1043C000FBDBA2F1200202EB420000254FF6FF7852
:1043D0004FEA00194A4909EB450001EB400211F888
:1043E000100052884FF0000442EA002086B20AEB27
:1043F0000507300439460CEB040001D5039A00E0B0
:104400000D9AFFF7C8FA641CA4B208EA46060C2C01
:10441000EFD36D1CADB2182DDCD33649091FC1F89E
:1044200000B000200146401C0129FBDB3FE72DE9DD
:10443000F843994615460E4604464FF49478089F73
:104440000CE0E42C0DD246450BD24B4631462046BB
:104450000097FFF7A8FF0C34A4B26D1C2A78002A3D
:10446000EFD140E72DE9F0439846264B02EBC2021C
:1044700003EB02171F4A4FF0040CDDF81C90A7F560
:104480009057C2F800C000242246641C012AFBDBBE
:1044900001F12F0300F11702FFF734FA0026002480
:1044A000BD5D280601D5404600E04846FFF7BDF94E
:1044B0006806641C050EA4B2082CF2D3761CB6B2B2
:1044C000902EECD30B48001FC0F800C0002001461E
:1044D000401C0129FBDBBDE8F0832DE9F843994638
:1044E00015460E4604464FF48878089F19E00000F0
:1044F000F8180020141401401F100108F090010862
:1045000020160108203A0108D82C0DD246450BD2BE
:104510004B46314620460097FFF7A4FF1834A4B25B
:104520006D1C2A78002AEFD1DDE62DE9F04715460B
:10453000A64A0427DDF820A09946176000221446F9
:10454000521C012CFBDB01F12F0300F12F02FFF7BE
:10455000D9F900249E4E27E040F2231104FB01F01C
:104560002A78315C91421ED100EB060C69789CF8E8
:104570000100884217D100264FF490780CEB06001A
:104580004FF00005C478200601D5484600E05046AB
:10459000FFF74BF96006040E6D1C082DF3D3761C53
:1045A0004645EBD304E0641C03F0F0FEA042D3D8F0
:1045B0008648001F076000200146401C0129FBDBE4
:1045C000BDE8F0872DE9F84398461546894606462A
:1045D0000024089F15E004EB440006EBC000802A8D
:1045E00080B24346009705D24946FFF73BFF6D1C5A
:1045F000641C05E02A464946FFF797FFAD1CA41C42
:10460000E4B22A78002AE6D16DE670B514460D466C
:1046100008F084FA00EB4001C90000EB4000000103
:104620002960206070BD2DE9FF5F8B466749804699
:1046300004201546086000200146401C0129FBDBD0
:104640000024644E34E0C4EB041000EB80002A78B0
:10465000315C91422BD100EB060A69789AF801008F
:10466000884224D10027002507EB47090BEB070CF4
:1046700009EB05010AEB01000024C678614630060B
:10468000002808EB040000EBC50001DA039A00E003
:104690000E9AFFF780F97006060E641C082CEDD305
:1046A0006D1C032DE4DB7F1C182FDCD304E0641C9D
:1046B00003F068FEA042C6D844490420091F0860E0
:1046C00000200146401C0129FBDB60E62DE9F84390
:1046D00098461546894606460024089F12E006EBD8
:1046E0000400802A80B24346009705D24946FFF76E
:1046F0005AFE0C346D1C05E02A464946FFF793FF2D
:10470000AD1C18342A78002AE9D1ECE570B51446BE
:104710000D4608F003FA00EB4001890000EB400071
:10472000C0002960206070BD2DE9F8439846154609
:10473000894606460024089F12E006EB0400802A02
:1047400080B24346009705D24946FFF776FD08340C
:104750006D1C05E02A464946FFF7C7FDAD1C103425
:104760002A78002AE9D1BEE570B514460D4608F056
:10477000D5F900EB4001890000EB4000C000296042
:10478000206070BD0346012000E058430A00A1F1FB
:104790000101C9B2F9D17047082138B10E48016052
:1047A00000200146401C0129FBDB70470A48001F1E
:1047B000016000200146401C0129FBDB70470648D0
:1047C0000C38006840F3C000401C704714140140CE
:1047D0005991010820700108140C0140FF4B10B5DD
:1047E00000201978012404FA00F20A4205D0401C86
:1047F000C0B20828F7D3082010BD84400C431C70B9
:1048000010BD082805D201218140F44802788A436E
:1048100002707047F14A91785078814201D10820A6
:104820007047EE481030405C491C01F00701917060
:104830007047EA4841788078491C01F007018142BD
:1048400001D10120704700207047E448417880780A
:10485000814201D1012070470020704705F076BBEE
:10486000DF49085C7047DE49891E085C70471CB54B
:10487000DC4914460978890711D000EB400101EBAF
:10488000C000D94901EBC00028300021AFF233034A
:10489000CDE9001064224FF4FA7005F09EFA002C66
:1048A00004D0BDE81C400A20FCF790BB1CBD2DE9DC
:1048B000FF4105F019FE8046FFF7C7FFC74F80B1E3
:1048C0000020F870387102460121C84803F0D7F87B
:1048D000F86800B1804704B04046BDE8F04105F0FB
:1048E00007BEBE48B9781030465CC14806EB4601A9
:1048F00000EBC1046088082801D3082500E0C5B298
:104900008DF80450618A4FF00042A08A42EA81216A
:10491000084300902A460DF10500A16808F0D0F880
:10492000684604F03EFC0028D5D06088401B000497
:10493000000C608005D0A0682844A0600120F870B9
:10494000C9E7606803F0A1FDFFF764FF3046FFF799
:1049500058FF227B04F10D01E07BFFF788FFEDE7B4
:104960009E4B30B45A789C78511C01F00701A1424B
:1049700007D130BC9FA34FF49472A6A1002003F08E
:10498000CDBF964C1034A0545970D878002801D16E
:1049900030BC8CE730BC7047904A10B550794FF06E
:1049A000030100F10100B0FBF1F301FB13005071B2
:1049B00000EB400101EBC0008B4901EBC004207803
:1049C00040070DD56088A0F57F41FF3908D0002849
:1049D00006D004F1100005F029FA10B10020207370
:1049E00010BD207B401CC0B220730328F8D38EA3D7
:1049F0004FF4A77287A1002003F090FFBDE810409C
:104A000005F0A4BA70B5784D002404EB440000EB27
:104A1000C40005EBC0000646582108F06AF834715E
:104A2000641CE4B2032CF0D370BD0020704B02462E
:104A3000303B03EB0011401C0A804A804A60C0B240
:104A40008A600328F5D36548027042708270C27094
:104A50000271704770B50C46054608210A2003F024
:104A600096FE002807D012218170C0E90254BDE8EB
:104A7000704003F0A3BE70BD2DE9F04F87B05B48D6
:104A800002F0F4FE04A802F0D7FF002401258DF8FF
:104A900016408DF818408DF817508DF819404FF0DA
:104AA000030A6C488DF81A408DF812408DF814A056
:104AB0004FF002098DF81B508DF813408DF81590BA
:104AC000006865494008B0FBF1F0ADF8100004A89B
:104AD00004F0DEFA41484FF0040B41F6FF77C0883E
:104AE0008DF80A40C0F309010BEBC1064FEA1648E6
:104AF0008DF80B408DF80C50ADF80080ADF80440F7
:104B0000ADF80260ADF80670ADF808408DF80D50B4
:104B1000684602F032FF8DF80A508DF80B408DF890
:104B20000C50ADF80080ADF80440ADF80260ADF86F
:104B30000670ADF808508DF80D50684602F01DFF64
:104B40008DF80A90FE1E8DF80B408DF80C50ADF8D4
:104B50000040ADF80440ADF80260ADF80670ADF865
:104B600008408DF80D50684602F007FF8DF80AA046
:104B70008DF80B408DF80C50ADF80040ADF80440B6
:104B8000ADF80260ADF80670ADF808508DF80D5024
:104B9000684602F0F2FE8DF80AB07F2644F20C0857
:104BA0008DF80B408DF80C50ADF80040ADF8046066
:104BB0004FF6FF77ADF80280ADF80670ADF808400B
:104BC0008DF80D50684602F0D8FE05208DF80A00D9
:104BD0008DF80B408DF80C5040E000006000002084
:104BE0001C10010847020020A819002000640040A2
:104BF000E01A0020556E7265636F76657261626CB3
:104C0000652062756666666572206572726F7220D5
:104C10000D0A0000536F757263655C4150505C4330
:104C2000616E436D642E6300556E7265636F7665C9
:104C30007261626C65204572726F722C20507265D1
:104C40007061726520746F205265736574200D0A5F
:104C5000000000009C00002040420F00ADF8004022
:104C6000ADF80460ADF80280ADF80670ADF80850FC
:104C70008DF80D50684602F080FE06208DF80A007F
:104C800046F20C088DF80B408DF80C50ADF8004042
:104C9000ADF80460ADF80280ADF80670ADF80840DC
:104CA0008DF80D50684602F068FE07208DF80A0066
:104CB0008DF80B408DF80C50ADF80040ADF8046055
:104CC000ADF80280ADF80670ADF808508DF80D50C3
:104CD000684602F052FE01220221FE4802F0CFFE99
:104CE00001221021FB4802F0CAFE00220121F948EE
:104CF00002F0C5FE07B0BDE8F08F70B5F64A02219C
:104D0000202005F078FBF44CA41F10B14FF6FF7083
:104D1000E08000256571FFF775FEFFF786FEFFF75F
:104D2000ABFEE56070BD70B505F0DEFB0646EB4DF1
:104D3000FFF770FD044608280AD204EB440005EB97
:104D4000C000406803F0A1FB2046FFF75AFDEFE7E3
:104D5000E1480021801F017081704170C1700171B4
:104D60003046BDE8704005F0C3BBDB4910B5891F74
:104D70000878CA78104309D00879401CC0B208717D
:104D8000B42803D3FFF7CFFFFFF776FEBDE810404E
:104D900002E62DE9F047D24B81460E461868002105
:104DA000924600780F46C01CC4B2CE48B0EB865F76
:104DB0001DD0002004E01A68125C5140401CC0B2B3
:104DC000A042F8D31A68984611551868FE2100F8D9
:104DD000011CA01C03F027FB5FEA000C07D0FFF7C3
:104DE000FDFC0546082805D3604603F04EFB384617
:104DF000BDE8F087B94B05EB450203EBC200002785
:104E0000C0F804C0C0F808C0C773A11C23F8321052
:104E1000418007744682A0F8149080F80CA0D8F85E
:104E2000002052784273D8F8002092788273D8F824
:104E30000010A21C491E604607F042FE2846FFF7FC
:104E40008FFD0120D4E710B50846FEF739F80020A1
:104E500010BDA54810B50068C01CC17801F07F02E4
:104E6000102A03D1090601D4FEF72AF8002010BD4C
:104E70009D4910B509688978212901D1FFF7E9FF1B
:104E8000002010BD2DE9F0410E460446022803D152
:104E90009649012081F8BA0004EB4400934F00EBDF
:104EA000C40557F8350020F03800183047F83500B1
:104EB000201DC0B203F016FB07EBC501002088716E
:104EC0008B488A7A3146005DFEF71FF90020BDE865
:104ED000F08138B5044687A340F24542AFF2CC21B9
:104EE0000090042003F01AFD04EB44007F4900EB1E
:104EF000C40051F8302022F0050241F8302001EBC7
:104F0000C00000228271104638BD00EB400202EB67
:104F1000C000764A52F8303061F3000342F8303076
:104F2000704700EB4001714A01EBC00152F831308B
:104F300023F03803183342F831300121E5E770B52A
:104F40001546674C049A012803D0022817D0002088
:104F500070BD20680270266804207070206881701F
:104F600020681946C01C07F0ABFD5B495F48891FEC
:104F70002A46B0F86000C988BDE8704009E7D01C37
:104F8000C5B220680570266809207070206881709D
:104F900026680220F0702668002030712668707143
:104FA0000620252908D02068817126682121072044
:104FB000B17021686D1C0D7021680844194607F016
:104FC0007FFD00F01FFF012070BD0EB501220146DC
:104FD0008DF8042081238DF80730090A8DF805101B
:104FE0000421C0B28DF8061000EB40013F4B01EBED
:104FF000C00103EBC10101AB0A8105210091002230
:105000002121FFF79CFF0EBD0146AFF2410021E5D3
:105010001CB50446006810F0380F14D04FF0604102
:1050200001EBB0104FEAB060206010F0380F0AD0EA
:1050300004F11000CDE900406088334B02460021A6
:1050400004F0CBFE1CBD31A340F2AD32AFF23C41C7
:10505000042003F063FC2068002120F0040020609D
:105060000020A0712079FFF750FF2079BDE81C4097
:105070000021FEF703BA0146AFF26B00EAE42DE926
:10508000FC4106460D460F1D00EB460000EBC60135
:10509000164800EBC1046088A0F57F41FF390AD0B3
:1050A00048B104F11001AFF23103CDE900410246ED
:1050B000002104F092FE3846FDF75CFF18A34FF480
:1050C0008762AFF2B0410420009603F027FC403421
:1050D000687831E00064004066000020E01A00209B
:1050E000509E01080000C0FF4C9E0108A819002036
:1050F0001C100108726376207265736574203A2073
:1051000025640D0A00000000775000086C6F73746E
:10511000206865617274626561740D0A00000000A8
:1051200072637620686561727462656174203A20EA
:1051300025640D0A0000000046EA0020CDE90004C5
:10514000F748C08800EB80008000AFF243130246AE
:10515000002104F042FE3046FFF7E3FE0020BDE8E8
:10516000FC812DE9FC41054600EB4500ED4A00EBD2
:10517000C50002EBC00400270E46A7718988618034
:1051800052F8301041F0040142F83010281DC0B22E
:1051900003F0A8F96088E4A340F2FD32AFF28C512D
:1051A0000090042003F0BAFB608804F11001A0F520
:1051B0007F42FF3A09D040B1AFF24513CDE900413B
:1051C0000246002104F009FE02E0084604F0D5FD85
:1051D0002846FFF7A6FED7483146405DFDF760FF41
:1051E00067730020BBE708B50346D3480168C91CB4
:1051F000C87800F07F02022A1FD003DC8AB1012A9E
:1052000004D114E0102A22D0112A1CD0CBA34FF4D1
:105210009362AFF200610090012003F07FFB002059
:1052200008BD0006FBD51846BDE8084099E7000612
:10523000F5D41846BDE8084021E70006EFD418462B
:10524000BDE8084045E61846BDE808401AE60006F5
:10525000E5D40846FDF734FEE1E7B74910B5096823
:105260008978212901D1FFF7BEFF002010BD10B5BC
:1052700004F0E7FE4FF0E021896989B2084307F0A6
:1052800017FC07F00BFC4FF4FF7190FBF1F201FBF0
:10529000120000F5007080B210BD2DE9F04180468B
:1052A000AC480C4600EB041508EB48029D4802EBA5
:1052B000C80200EBC200E9890181012C1DD0002148
:1052C00081720021C1722988686806F0F9FB002804
:1052D00045D0934EA049984FF08830810120087046
:1052E00038684078042821D0092808D00B282ED00F
:1052F0000D2809D006F068FB20E00121E0E7012C31
:105300002DD806F0ABFA19E0012C28D83868877838
:1053100006F0F7FA0446052F11D130898F49B1EB19
:10532000805F0CD1FFF7A3FF308108E0012C4046DD
:1053300002D8FFF792FF01E0FFF79AFD0446002C28
:105340000DD0E8893189BDE8F041002221E5012036
:1053500000F0BFFE3868BDE8F04100F0D1BDB6E511
:105360002DE9F04106467B480D4600EB061401F19D
:105370000B082088002758B16188AA7A114489B2A5
:10538000884202D31FD9082A1DD22780606838E0DE
:10539000E87AFE2838D1287B401D208003F043F8AE
:1053A0006060A06018B1AA7A414607F089FBA97A2B
:1053B000A0680844A060A87A608026736868C0F37B
:1053C0008920E0810DE0606818B14146A06807F0CF
:1053D00077FBA97AA0680844A0606088A97A08448D
:1053E00060806188208881420ED100280CD06068DE
:1053F00018B131460120FFF750FF278067806068B1
:1054000008B103F042F8676061E545498A1DC8802C
:1054100002212020FBF72EBB10B5C41CC0780C283D
:1054200003D1601C04F0FBFD08B1002010BDB4F8EE
:105430000D0040BAC0F30A00FFF7E7FFFFF71CFBBF
:10544000012010BD10B5C26800F10801C2F30900C7
:10545000A0F54073C2F38922FF3B01D100200FE089
:105460002F4BDB88834201D1012009E0012809D1BB
:10547000022A02D0032A02D004E0022000E0032026
:10548000FFF76EFF002010BD00EB400202EBC002F0
:1054900038B5244800EBC200002284798271012CC7
:1054A00004D0022C02D1C8B2FDF725FC2CA340F297
:1054B000D132AFF6A0010120009403F02FFA38BDDD
:1054C00000EB400101EBC000164951F8302022F0FA
:1054D000040241F8302001EBC000002282717047C5
:1054E0002DE9F04114460D46DDE9066201462148EA
:1054F000012902D0022963D13EE001680A700768E1
:105500000421797001688B7000683146C01C07F077
:10551000D7FA21462846BDE8F041002239E40000D0
:1055200060000020A81900206862702025640D0A20
:10553000000000001C1001084C9E0108756E6B6E87
:105540006F77206D736720747970652025640D0A6C
:1055500000000000B01A0020400200200000C0FF40
:1055600043616E43636254696D656F757420256491
:105570000D0A0000509E0108D11CCCB201680C70CD
:1055800005680921697001688B7005680221E9705E
:10559000056800212971056869710621252B08D04D
:1055A00001688B71056821230721AB700368641CB7
:1055B0001C7000680844314607F082FA00F022FCB3
:1055C000002084E42DE9F041884C17460D4606463C
:1055D000DDE9061220680270206847702068837039
:1055E0002068C01C07F06CFA29463046BDE8F0413F
:1055F0000022FFF7CEBB7E49C86070478168002952
:1056000001D0C0680847704770B58AB0C4B20420A2
:105610008DF805008DF8060000208DF8070074480D
:105620007449012680798DF808008868CDF8090052
:10563000C868CDF80D00088AADF811000B208DF870
:10564000040004EB440000EBC4016B4801AB00EB29
:10565000C1050F202E810090002221212046FFF756
:105660006EFC002809D0241DE0B24FF6FF734FF402
:10567000FA72012102F06BFFAE710AB070BD2DE924
:10568000FC41054600EB450000EBC5035A4840F6D7
:10569000B83600EBC3070C46B87908B1FF205EE5C9
:1056A0002079012801D142F2107601203881009240
:1056B0000246234621212846FFF741FC18B3E07833
:1056C000000613D44FF47A7096FBF0F000EBC001A3
:1056D00001EB00104FF6FF7101EA8002281D2379CB
:1056E000C0B2012102F033FF0220B871207943A338
:1056F00040F2FF52AFF6E421CDE90050002003F064
:105700000DF900202BE542A340F20562AFF6FC2123
:10571000042003F003F9F4E700B53548424985B0A9
:10572000C088B1EB805F02D1FF2005B000BD02212F
:105730008DF8041000218DF8051004218DF8061055
:1057400003218DF807102C49ADF808000120A1F8BD
:10575000B8000620009001AB002221210220FFF7B3
:10576000EEFBC0B2E1E70146AFF26310FFF772B99A
:105770001CB500EB4001204B01EBC00203EBC20162
:105780008C79002C21D113F8322052071DD4012826
:1057900008D11A4692F86520032A03D393F8B02063
:1057A000520712D44A7BFF2A01D2521C4A7340315D
:1057B000CDE900010E48C08800EB80008000AFF208
:1057C00059030246002104F008FB1CBD0849164A93
:1057D000C988B2EB815F00D0CAE7704710B50120DD
:1057E000FFF7F4FFBDE81040FFF7BFBA509E010875
:1057F00060000020A0100020A819002073656E64CE
:10580000204F7073202025642625640D0A000000B7
:1058100043616E536E6453617070436D64206661C2
:10582000696C65640D0A00000000C0FF10B50446F5
:1058300006210C2002F0ABFF002807D02168816010
:10584000A1888181BDE8104002F0B8BF10BD000002
:1058500008B50121082000F0D8FFFA484021016076
:1058600080210160C020ADF8000002208DF8020008
:1058700014208DF80300F3486946103800F089FDC4
:1058800008BD032003F0B9BB70B5EE488026066062
:1058900040250560032003F0B0FBEA4C241D266080
:1058A000032003F0AAFB256070BD70B5E548802495
:1058B000001D0460032003F0A0FBE24D402028609F
:1058C000032003F09AFB2C60BDE87040032003F036
:1058D00094BB2DE9F041DB4D80242E1D08B12C60D6
:1058E00000E03460032003F088FB40272F60032092
:1058F00003F083FB3760032003F07FFB2C60BDE8DF
:10590000F041032003F079BB2DE9F0470546032061
:1059100003F073FBCB4E00244FF0800806F104091E
:1059200040272806404601D5306001E0C9F8000054
:105930006806050E032003F060FB3760032003F0C8
:105940005CFBC9F80070032003F057FB641CE4B251
:10595000082CE6D3C6F80080032003F04EFB376026
:10596000032003F04AFBB74808380068C9F8007004
:10597000C0F3C014032003F040FB2046BDE8F087CD
:105980002DE9F0470024032003F037FBAD4FDFF88B
:10599000B4820025A8F10808402607F104093E60FA
:1059A000032003F02AFB4FEA44604FEA1064D8F862
:1059B0000000000601D544F00104C9F8006003208E
:1059C00003F01BFB6D1CEDB2082DE8D32046D5E794
:1059D00070B506469B48144608380D460068000618
:1059E00002D44FF0FF3070BDFFF74EFF3046FFF797
:1059F0008BFF20B1FFF759FF6FF0010070BD284603
:105A0000FFF782FF20B1FFF750FF6FF0020070BD7B
:105A10002046FFF779FF0446FFF747FF14B16FF008
:105A2000030070BD002070BD2DE9F04115460E4603
:105A300004460027FFF728FF4820FFF765FFE0B284
:105A4000FFF762FF200AFFF75FFF002406E0305DEA
:105A5000FFF75AFF070003D1641CE4B2AC42F6D34F
:105A6000FFF723FF3846BDE8F08170B515460E46B6
:105A70000446FFF709FF4820FFF746FFE0B2FFF7B3
:105A800043FF200AFFF740FFFFF7FEFE4920FFF724
:105A90003BFF00246D1E07E0FFF772FF305500202A
:105AA000FFF717FF641C64B2AC42F5DBFFF768FF39
:105AB00030550120FFF70DFFBDE87040F5E638B521
:105AC0000121042000F0A1FE4FF48054ADF8004005
:105AD00002208DF8020010208DF8030069465A4814
