:020000040800F2
:100000007044002075830008090400080B040008F0
:100010000D0400080F04000811040008000000008F
:1000200000000000000000000000000013040008B1
:1000300015040008000000009BA600081704000833
:100040009F8300089F8300089F8300089F83000808
:100050009F8300089F830008CF080008E10800087C
:10006000F308000805090008170900089F83000825
:100070009F8300089F8300089F8300089F830008D8
:100080009F8300089F8300089F8300083F040008A7
:1000900091040008BB040008E50400089D0700085F
:1000A0009F830008E30500089F83000809060008F5
:1000B00041060008B50600082907000829090008BC
:1000C0009F8300089F8300089F8300083D04000869
:1000D0003B040008B7050008DB050008DF05000841
:1000E000350800089F8300089F830008DFF80CD0C4
:1000F0000DF002FA004800475B030008704400203E
:100100007047704709F05DB9704770477047A7485E
:1001100010B50168491C01600A291CD10021016049
:100120004168491C4160C268521CC2606422B1FB34
:10013000F2F302FB131111B98168491C816008F0C8
:10014000EFFA09F039FF0024204601F04EF9641C53
:10015000E4B2032CF8D310BD9449496808448142A5
:10016000FDDB704710B500F06EFF02F005FE05F0F4
:10017000E5FBBDE8104005F0FFBF10B5827872B115
:10018000012A0AD0022A11D0032A0BD0121F032AF7
:1001900003D28188D0B205F034FA002010BDFFF7F9
:1001A000E1FFFAE7002000F00BFFF6E7002000F087
:1001B00028FFF2E710B57E4A00217E4C1170C0780E
:1001C00020707D4800684078092809D00D280AD0A1
:1001D0000BF0B2FC10B120780BF0BDFC002010BD7C
:1001E0000BF0F4FBF6E70BF044FCF3E708B529202D
:1001F0008DF8000000208DF80100684608F0E7FC4B
:100200002A208DF8000001208DF80100684608F0D2
:10021000DEFC08BD10B5042008F04FFC022001F000
:1002200087FA08F045FF00F095FE00F03FFE00F071
:10023000F7FE002000F000FF00F0B6FE00F0E0FE48
:1002400001F0BCF90AF017F938B15CA340F28F1243
:100250005EA1002008F01AFC01E000F017FC04F099
:1002600008FE08F059FCFFF7C1FF03F0EAFD05F0B6
:10027000E8FD03F09CFA09F08BF805F0D3FF4FF688
:10028000FF7364220221002008F019FABDE8104033
:10029000012000F0B8BE10B5817831B101290CD031
:1002A000112905D0122908D105E0FFF7B3FF04E0BA
:1002B00002F008FA01E005F05DFA002010BD10B56B
:1002C0008178808802F0F3FC002010BD10B5083062
:1002D00002F074FC002010BD10B500210A2008F0C7
:1002E0000EFB002805D000218170BDE8104008F009
:1002F0001DBB10BD0178C91E0C2912D2DFE801F028
:10030000060711110C09110B0D10110E35E701F044
:100310002EB905F054B9BEE7D1E74BE705F064BD4F
:10032000D4E700207047E5E708B508F005FFAFF215
:1003300009034FF400722A49032008F02CFB6A4697
:1003400028A103200BF0FDF8FFF7C6FF002264236D
:10035000114610460BF05FFAF8E700B587B00AF0D7
:10036000CFF900214FF0006007F0E0FF4FF4A060EC
:1003700007F0A8FF0AF061FA1D480DF1040C0323F1
:10038000002280218CE80F00062003460090194AC5
:10039000002119480AF07DFF05AA18A106200BF0DC
:1003A000D0F80AF04DFB07B0002000BD000000208F
:1003B000400200204102002098A20108496E6974A1
:1003C00020534E56204572726F720000536F757243
:1003D00063655C4150505C6170702E6300000000EA
:1003E000600200204D61696E2D5461736B00000046
:1003F000600A00205C0C002029030008526F6F7413
:100400002D5461736B0000007047FEE7FEE7FEE7C6
:10041000FEE77047704710B50AF01EF9FD490978EC
:1004200019B1FD490A78521C0A700AF019F90AF04C
:100430001AFBBDE810400AF093BA7047704710B538
:10044000F64C0521204607F0FAFC012805D10521CC
:10045000204607F03BFD04F0E8FA0621204607F0AD
:10046000EEFC012805D10621204607F02FFD04F0FF
:10047000DCFA0721204607F0E2FC012807D107211A
:10048000204607F023FDBDE8104004F0CEBA10BDB1
:1004900010B51421082008F032FA04000CD0002016
:1004A0006070014604F10802DC4807F04BFC20466E
:1004B000BDE8104008F03ABA10BD10B5142108206C
:1004C00008F01DFA04000CD00020607004F108024E
:1004D0000121D24807F036FC2046BDE8104008F064
:1004E00025BA10BD7047F8B5054600EB0510C0EB06
:1004F000C511CB4800EB810440F22551D4F890019E
:1005000007F0B0FE50B1D4F8900107F044FE8DF82A
:100510000000E8B20122694600F0A5FE40F227770C
:100520003946D4F8900107F09DFE40F2266620B3CC
:10053000B4F88011B4F88201814204D10022394616
:10054000D4F8900117E0015DD4F8900107F01FFE88
:1005500094F88201401C00F07F00A4F8820194F816
:100560009C11002926D1B4F88011814209D10122C1
:100570003146D4F8900107F0BEFD94F89C010028A4
:1005800018D13146D4F8900107F06CFE002811D044
:10059000B4F88001B4F8821188420BD1E8B200218E
:1005A00000F0E4FD3146D4F89001BDE8F8400022A7
:1005B00007F0A1BDF8BD10B59A4C40F22551204678
:1005C00007F050FE002807D0204607F0E4FDBDE804
:1005D0001040C0B201F029B810BD012083E702200D
:1005E00081E710B5904C0121204606F0EDFE002871
:1005F00009D00121204606F0F3FE0121BDE810409C
:10060000032009F03ABC10BD10B5874C02212046EA
:1006100006F0DAFE002812D00221204606F0E0FEA5
:10062000204606F0BAFE00F57A7081B2204606F048
:10063000A3FE0221BDE81040032009F01EBC10BD3E
:1006400010B501218C07204606F0BEFE38B101210D
:10065000204606F0C5FE0121002009F00EFC022113
:10066000204606F0B1FE38B10221204606F0B8FE61
:100670000221002009F001FC0421204606F0A4FE1E
:1006800038B10421204606F0ABFE0421002009F019
:10069000F4FB0821204606F097FE002809D0082127
:1006A000204606F09DFE0821BDE81040002009F01C
:1006B000E4BB10BD10B55D4C0121204606F084FE60
:1006C00038B10121204606F08BFE0121084609F0D1
:1006D000D4FB0221204606F077FE38B102212046E5
:1006E00006F07EFE0221012009F0C7FB042120460E
:1006F00006F06AFE38B10421204606F071FE04219E
:10070000012009F0BAFB0821204606F05DFE002812
:1007100009D00821204606F063FE0821BDE81040FC
:10072000012009F0AABB10BD10B5414C01212046A3
:1007300006F04AFE38B10121204606F051FE0121A3
:10074000022009F09AFB0221204606F03DFE38B156
:100750000221204606F044FE0221084609F08DFBE6
:100760000421204606F030FE38B10421204606F070
:1007700037FE0421022009F080FB0821204606F004
:1007800023FE002809D00821204606F029FE082172
:10079000BDE81040022009F070BB10BD10B520204C
:1007A00005F030FE28B1202005F03AFE052008F0C3
:1007B0004AFC402005F026FE28B1402005F030FE1E
:1007C000062008F040FC802005F01CFE28B18020A7
:1007D00005F026FE072008F036FC4FF48074204612
:1007E00005F010FE28B1204605F01AFE082008F09A
:1007F0002AFC4FF40074204605F004FE002807D0C0
:10080000204605F00DFEBDE81040092008F01BBC95
:1008100010BD0000110200200C0200200064004006
:100820000011002000380140002C0140000400406D
:100830000008004010B54FF48064204605F0E2FD4A
:1008400028B1204605F0ECFD0A2008F0FCFB4FF42F
:100850000064204605F0D6FD28B1204605F0E0FDF5
:100860000B2008F0F0FB4FF48054204605F0CAFD41
:1008700028B1204605F0D4FD0C2008F0E4FB4FF42D
:100880000054204605F0BEFD28B1204605F0C8FD05
:100890000D2008F0D8FB4FF48044204605F0B2FD4F
:1008A00028B1204605F0BCFD0E2008F0CCFB4FF42B
:1008B0000044204605F0A6FD0028A9D0204605F0FA
:1008C000AFFDBDE810400F2008F0BDBBA0E710B59C
:1008D000012005F0A5FDBDE81040002008F0B3BBE5
:1008E00010B5022005F09CFDBDE81040012008F085
:1008F000AABB10B5042005F093FDBDE8104002200E
:1009000008F0A1BB10B5082005F08AFDBDE8104035
:10091000032008F098BB10B5102005F081FDBDE85C
:100920001040042008F08FBB704750F804BB50F80B
:1009300004AB50F8089B90E8F00050F8048C20A01D
:100940000CF08CFE594624A00CF088FE514625A0E0
:100950000CF084FE494626A00CF080FE414627A0FC
:100960000CF07CFE214628A00CF078FE294629A038
:100970000CF074FE31462AA00CF070FE39462BA014
:100980000CF06CFE2C4801682CA00CF067FE2A4885
:10099000103801682CA00CF061FE27480C38016863
:1009A0002CA00CF05BFE2448083801682CA00CF049
:1009B00055FE2148001D01682CA00CF04FFEFEE7FB
:1009C0005B48617264206661756C742068616E6456
:1009D0006C65725D0A0000005230203D2025780AC7
:1009E000000000005231203D2025780A0000000060
:1009F0005232203D2025780A000000005233203D6D
:100A00002025780A00000000523132203D20257850
:100A10000A0000004C52203D2025780A000000000A
:100A20005043203D2025780A0000000050535220FA
:100A30003D2025780A00000038ED00E04246415292
:100A4000203D2025780A000043465352203D2025B2
:100A5000780A000048465352203D2025780A0000BD
:100A600044465352203D2025780A00004146535207
:100A7000203D2025780A0000F748704709F005BDA1
:100A8000F64800887047F5484088704770B52221C5
:100A9000F3480CF0E6F8F14A0221212009F063FD49
:100AA000EE4C002500B12580EC4A0821121D2220C1
:100AB00009F059FD38B9E849E84822221331001DF0
:100AC0000CF0F9F860B1E448E44A801E121D50F8B9
:100AD000151F61604068A06008212220FFF7CEFF4B
:100AE000DE4A0221921CB02009F03DFD00B1658074
:100AF000DB4A1021A02009F036FD18B1D9A1D84851
:100B00000CF0E6F8D64A102111321446A12009F063
:100B10002AFD18B1D5A120460CF0DAF8D04A1C21E4
:100B20002432C02009F01FFD98B1CD48D1492430AE
:100B3000016041F2A90141601D218160CE49C1607F
:100B40006FF00D01016141F2B16141614FF48031FB
:100B50008161BDE87040C2481422C84940300CF0A1
:100B600067B870B5C64B1C6822701D6809246C708C
:100B70001C68A0701868C01C0CF05AF8C1480078B6
:100B8000BDE870400AF0E7BF2DE9F04116460F4678
:100B9000054609F061FD804606F0DDFC284606F0BA
:100BA00014FD002406E03959284606F0B2FD241D44
:100BB000A4B22D1DB442F6D306F0D9FC404609F08C
:100BC0004FFD0020BDE8F08170B5044608F0F9FB48
:100BD000A34920684FF4207588646068C864208940
:100BE000A64CA1F85000803C2A462146A6480CF0AD
:100BF0001FF89B4914224031A1F570700CF018F8D1
:100C000008F0DFFB2A46A0492046FFF7BDFF0A2077
:100C100070BD93498A6C0260CA6C4260B1F8501092
:100C200001810A20704710B5C11C182296480BF0AC
:100C3000FFFF192010BD70B5874D01466D1E14468B
:100C4000681E2A5D035D9048C91C803018440BF073
:100C5000EFFF285D401CC0B270BD0021016019206B
:100C600070477D4A921E525C803202607A48401E74
:100C7000405C401CC0B270472DE9F84F1D46144639
:100C80008A46064608F09DFBDFF8F0814FF4207994
:100C9000A8F180084A4641467B480BF0C9FFB2786C
:100CA000002742B1012A0DD0022A0BD0032A09D015
:100CB000FF20BDE8F88F51463046FFF7B4FF0346EA
:100CC00000970AE051463046521EFFF7B4FFB17854
:100CD00003466846491EFFF7C4FF2770D0206070A6
:100CE000694800991A460144E01C0BF0A1FF08F086
:100CF00068FB4A4664494046FFF746FFA07808B9BA
:100D000000F048FA287821780844801C28700020D8
:100D1000CFE738B51D4603468078144618B1012840
:100D200005D0FF2038BD00200090192003E00021ED
:100D30006846FFF796FF9978A170411C2170102139
:100D40006170421E4D49009880390144E01C0BF04F
:100D50006FFF287821780844801C2870002038BD57
:100D6000002070474A494948086070472DE9FC4116
:100D70001546C27987788179CDE900121C464379FE
:100D80000279C178002607F26C7008F099FB2E708A
:100D9000C02068702078801C2070BDE8FC8170B590
:100DA0001D46144608F047FD06202070C1206070E3
:100DB00038480179A1F26C71A1708179E170C17933
:100DC0002171017861714178A1718078E071287892
:100DD0000830287070BD70B5841C1D46807808F0FE
:100DE00034FD294901200870C2204870207888709D
:100DF0002878C01C287070BD70B544780025164650
:100E0000D12C13D008DCC02C16D0C12C19D0C22C88
:100E10001CD0D02C47D104E0F02C41D0F12C42D191
:100E20003AE00A463146FFF727FF03E00A4631461B
:100E3000FFF76FFF054636E00A463146FFF796FF9B
:100E400031E00A463146FFF7AAFF2CE00A46314658
:100E5000FFF7C1FF27E00000DAEB000810000020D8
:100E60006010002041444D494E00000038363038B3
:100E700036300000EE9D0E002063E2FF80F4010892
:100E80009CA2010841020020600C00200400FA0529
:100E90000CED00E02C320020012000F0B4F802E05C
:100EA000012000F097F8284670BDA5E72DE9F0472E
:100EB000264D274E00244FF4047905F10208285DE1
:100EC000494607F075FF18F80410285D07F09CFFED
:100ED00006EB4410074620210BF0C3FE3C70641C57
:100EE000022CECDBBDE8F087184A105C07F08CBFE1
:100EF000164910B5085C07F07AFF002800D00120E1
:100F000010BD1249085C07F08EBF10B5044600788A
:100F10000021FFF7E9FFE069002802D0BDE810409A
:100F2000004710BD7CB50D46094901EB4014012175
:100F3000E261FFF7D9FF201DAFF23103CDE9004098
:100F40002A460021104609F000F87CBDF6EB0008A7
:100F5000B410002070B50121114805F04BFB0121B0
:100F60004FF0C05005F002FD012005F09FFB00206E
:100F700005F08EFC002005F099FB0A4D00244FF48B
:100F80001276285D314607F013FF641C012CF8DB54
:100F900070BD044910B5085C07F029FFC0B210BD50
:100FA00000043000FAEB000810B54FF404710F2074
:100FB00007F0FEFE0121BDE810400F2007F024BF1E
:100FC00008B1002100E001210F2007F01DBF0F2014
:100FD00007F029BF10B504000ED00120FFF7F0FF85
:100FE000642044430A20B4FBF0F200230121BDE851
:100FF0001040032007F063BBBDE810400020DFE78E
:10100000704770477047002809D0642148430A217F
:10101000B0FBF1F200230121022007F050BB704722
:1010200010B54FF404710E2007F0C2FE0121BDE897
:1010300010400E2007F0E8BE08B1002100E00121B9
:101040000E2007F0E1BE0E2007F0EDBE38B50D46CC
:1010500000EB0011C1EBC011FE4800EB810494F8D5
:101060008C01A84209D0D4F8B8013DB1002804D1C0
:1010700009F06FFEC4F8B80128B938BD18B16A4646
:10108000012109F04FFF84F88C5138BDF0B50546B9
:1010900000EB0510C0EBC511EE4885B000EB8104F4
:1010A000D4F8B01100295FD028468847D4F89001C1
:1010B000002859D094F894018DF810000F208DF875
:1010C000110000268DF8126001278DF8137004A816
:1010D00004F5C87407F0FBF820690090207DDE4914
:1010E00031F81000ADF80400607D091D31F81000E2
:1010F000ADF80600A07D891D31F81000ADF808009C
:101100000C20ADF80C60ADF80A00207A694608F0B2
:101110007BFF2068012240F22551A4F5C87406F037
:10112000EAFFCC480C3850F8251051B994F88C11CE
:1011300040F8257084F88C612846C4F8B861FFF740
:1011400085FF94F8A701A4F8880194F89C01002871
:101150000AD194F8AC014FF4447107F029FE94F8D9
:10116000AC01002107F050FE05B0F0BD00EB00120D
:10117000C2EBC012B74800EB820090F89C21002A15
:1011800007D190F8AC0109B1012100E0002107F07E
:101190003BBE704710B50024E0B2FFF777FF641C38
:1011A000032CF9DB10BD70B515460E460246032828
:1011B00019D202EB0210C0EBC211A64800EB810469
:1011C000B4F88211B4F88001814201D1802007E097
:1011D000081A8030C11700EB516121F07F01401ADD
:1011E00080B2A84201D2002070BD01211046FFF755
:1011F000BDFFB4F88001B4F88211884203D3C0F176
:101200008002AA420ADD20442A4631460BF010FD36
:10121000B4F880012844A4F8800110E0204431464D
:101220000BF006FDB4F88001C0F180008119281A86
:1012300085B220462A460BF0FBFCA4F8805101221F
:1012400040F22771D4F8900106F055FF012070BDDF
:1012500000EB0012C2EBC0107E4A002102EB8000BE
:10126000A0F88A1170472DE9F041064600EB061000
:10127000784BC0EBC61003EB80041546B4F886210A
:10128000B4F884010F46824202D14FF480710AE023
:10129000111A01F580714FEAE17C01EB1C6C2CF016
:1012A000FF0CA1EB0C0189B2A94202D20020BDE8DB
:1012B000F08106EB06114FF0800CC1EBC6110CEB70
:1012C0008101904203D3C0F58072AA420BDD18441D
:1012D00008442A4639460BF0ABFCB4F88401284494
:1012E000A4F8840112E01844084439460BF0A0FC2D
:1012F000B4F88401C0F58070C119281A85B204F1D0
:1013000080002A460BF094FCA4F884513046FFF785
:101310009FFF0120CBE700EB0012C2EBC0124D484B
:1013200000EB8200A0F88811A0F88A1170472DE91F
:10133000F047064600EB0610464FC0EBC61007EB21
:1013400080048846B4F88601B4F88411C0F5807032
:101350000844C11700EB116121F0FF01401A80B26F
:101360001546824200D3C5B2E5B309F075F981464E
:10137000B4F88601B4F88421802106EB0613C3EB90
:10138000C61301EB8301904204D2384401442A463B
:10139000404613E0C0F58072AA42F6DC38440144AE
:1013A00040460BF045FCB4F88601C0F58070291A60
:1013B0000A04120C04D004F1800140440BF038FC04
:1013C00094F886012844C0B2A4F88601B4F88411C8
:1013D000884204D10020A4F88401A4F8860148467C
:1013E00009F03EF92846BDE8F08770B5054600EBE8
:1013F0000510C0EBC511174800EB8100B0F886114D
:10140000B0F88421914234D0B0F88A315B1C9BB291
:10141000A0F88A31B0F88841A3422AD3C1F580717F
:101420001144CA1701EB126222F0FF02891A8EB230
:1014300090F88C1131B1D0F8B801BDE870400121AD
:1014400009F0ABBD3146042007F059FA040010D072
:10145000F2B203E000110020FCEB000804F10801E7
:101460002846FFF764FFA5702046BDE8704007F0EE
:101470005DBA70BD70B500EB001100F11003C1EB57
:10148000C011434800EB810404F5D0752A460C21B5
:10149000184609F068F820B12846FF220C210BF00D
:1014A000D9FBD4F8A001B0F5E13F03D94FF41650B1
:1014B000C4F8A00194F8A4110020022901D384F8F3
:1014C000A40194F8A511032901D384F8A50194F887
:1014D000A611032901D384F8A60194F8A7010221DB
:1014E000FA2801D8022801D284F8A71170BD00EBB8
:1014F0000011C1EBC010264901EB800090F88C016F
:10150000704700EB0011C1EBC011214800EB8100D6
:10151000B0F88611B0F88401814201D101207047F2
:101520000020704710B5044600EB04101849C0EBCA
:10153000C41001EB8000D0F8900106F02FFD20468A
:10154000BDE81040A2E500EB0011C1EBC01110484E
:1015500000EB8100B0F88211B0F88001081A8030E9
:10156000C11700EB516121F07F01401A704710B59F
:10157000817803290AD201EB0112C2EBC11204499E
:1015800001EB8201D1F8B41101B18847002010BDF0
:101590000011002010B50C46480702D000200AF0C8
:1015A000FCFAE00609D565480078C10701D180073B
:1015B00003D5BDE8104008F081BD10BD10B586B060
:1015C00000244FF4E1300090ADF808400C20ADF855
:1015D0000440ADF80A00ADF80640ADF80C4069468D
:1015E000204608F011FD25208DF810000F208DF801
:1015F00011008DF8124001208DF8130004A806F0A8
:1016000066FE012240F225514D4806F074FD4FF46C
:1016100002714C480BF025FBAFF287004949C1F835
:1016200004020AF041FB06B010BD464991F80022C1
:10163000885491F80002401C81F80002D1F804227D
:1016400004210020104710B53D4C0146204606F00D
:101650009EFD4021204606F0FBFD0028F9D010BD7C
:1016600070B50D460646002404E0305DFFF7EBFF41
:10167000641CE4B2AC42F8D332481021D0F8042202
:10168000BDE870400020104770B5BF2A11D82E4B1E
:101690001C6822701D6809246C701C68A070186892
:1016A000C01C0BF0C5FA29480078BDE870400AF06C
:1016B00052BA70BD4030C0B2E6E710B514460A46D3
:1016C00008B1002010BDE1B21046FFF7C9FF204667
:1016D00010BD78B91B4A92F8003292F80102834299
:1016E00008D0105C087092F80102401C82F80102D8
:1016F000012070470020704710B504460BF0C6FA71
:101700002146C2B2BDE810403020BDE70FB41049F9
:1017100000B5096891B0884207DC14AA684613999D
:101720000BF0C8FF6846FFF7E7FF11B05DF814FB48
:10173000052801D2064908607047000047020020D2
:1017400000380140341600209CA20108410200200C
:101750001C00002070B50D460BF08EFA002404E04A
:1017600000F8014B29460BF087FA0028F8D170BD2C
:1017700070B504680646002C1FD020460BF086FA90
:1017800000281AD00BF03EFA054600682178415C2B
:10179000C90701D0641CF9E720460BF077FA01195C
:1017A0000022491E01E001F80129A14204D30B786F
:1017B0002868C05CC007F6D1346070BD70B51C46A7
:1017C000154610600BF058FA206000280BD000215D
:1017D00001702068401C20602846FFF7C9FF2046A2
:1017E000FFF7C6FF012070BD2DE9FE4F1C4689465C
:1017F000022A55D30178412952D1417854294FD139
:1018000000268654921E12F0FF0500F1020723D035
:1018100038780D2820D00A281ED00822DFF8F08161
:1018200078A0082D03D339460BF05BFAF0B14FF0E6
:10183000050A78A0052D05D3524639460BF051FA1A
:10184000002872D075A0052D2AD3524639460BF0D8
:1018500048FA00286AD023E04F2189F800104B2174
:1018600089F801102078801C1870C9E007F1080081
:1018700001AB02AA3D21FFF7A1FF88B10025694F06
:1018800008E007EB8600C16802980BF006FA50B139
:101890006D1CEDB205EB850637F826000028F0D167
:1018A000FF20BDE8FE8F019801783F290BD005EBA2
:1018B000850107EB8105297A01292CD002292FD037
:1018C000042934D036E005EB850007EB800598F855
:1018D0000000A97A814251D8687A18B152A16B6888
:1018E000EA680CE02A7A684669680BF0A1F9287A60
:1018F000012806D0022807D0009BEA684CA1484680
:1019000074E09DF80030F8E7BDF80030F5E7217885
:101910000844207074E00BF0F3F98DF8000009E042
:101920000BF0EEF9ADF8000004E02DE066E00BF0FE
:10193000E7F90090687AD8B101980BF0A7F9297AF5
:10194000884203D8686801990BF0C2F9A97A98F81F
:101950000000814212D8297A37F826006A46FFF73C
:101960008DF82969044609B168468847204698E7FA
:101970002A7A694668680BF05BF9E7E72EA14846CA
:10198000EA680BF07BFEC2E720A001901FA07D1D3E
:10199000009026212846FFF7DDFE28460BF076F959
:1019A00028B1284601950BF071F905446D1C2846B5
:1019B0000BF06CF918B1284600950BF067F901A8F7
:1019C000FFF7D6FE6846FFF7D3FE214801990BF0DA
:1019D00064F928B91E48009911300BF05EF940B146
:1019E00088F800601BA1DDE9003248460BF046FE96
:1019F0008DE7012188F800101BA1F4E704F011FB2A
:101A000000204EE72B434F4E4649473D0000000063
:101A1000200000202B4C4F473D0000002B44424744
:101A20003D0000000CEC000825733A25730000000F
:101A300025733A2575000000636F6E66696720257F
:101A4000733A20756E617574686F72697A656400A7
:101A5000601000204C4F472025732625733A2046FE
:101A600061696C65640000004C4F47202573262592
:101A7000733A205375636365656400002DE9F8438C
:101A80000546481E0C46164683B26F1D009281B271
:101A9000A5F10508BAB21FFA88F002F080FAA3B2E5
:101AA000BAB2A1B21FFA88F0009602F078FA601C70
:101AB00083B281B2BAB21FFA88F0009602F06FFAD0
:101AC000681E671D82B2A4F10508BBB21FFA88F137
:101AD00080B2009602F063FABBB2AAB21FFA88F194
:101AE000A8B2009602F05BFA6D1CBBB2AAB21FFA54
:101AF00088F1A8B2009602F052FABDE8F88308B562
:101B000000924A1D93B2421D491F401F92B289B2F2
:101B100080B202F0FAF908BDFE4A9169814201D013
:101B2000C2E906017047F0B5002200E0521C835C58
:101B3000202BFBD0092BF9D0DCB22D2C05D04FF097
:101B4000010605D02B2B03D003E04FF0FF36F8E75A
:101B5000521C00236FF02F070B6007E00C68521C2B
:101B600004EB840407EB440423440B60835CA3F17F
:101B70003004092CF2D9DBB22E2B00D1521C0123E8
:101B80000AE00D6803EB830305EB850507EB4505CC
:101B90002C445B00521C0C60845CA4F13005092DC0
:101BA000EFD908684FF47A7270430860934204D208
:101BB000B2FBF3F242430A60F0BDB3FBF2F2B0FBBA
:101BC000F2F00860F0BD10B5007802280CD00328B0
:101BD0000AD0042809D000210846FFF785F9CE482D
:101BE0004FF0FF310166416610BD0121BDE8104094
:101BF0000020FFF779B908B50021009040F23F13AB
:101C0000EF22084602F081F908BD08B500210090D6
:101C10008623EF22084602F078F908BD08B540F2A5
:101C20003F130090EF228821002002F06EF908BDDA
:101C300008B54FF6FF70009040F23F13EF224FF4CB
:101C40008C71002002F061F908BD7047F0B50125E4
:101C50000024264603E005EB85056D00761C9642C0
:101C6000F9DB90FBF5F690FBF5F705FB1700AA4FA3
:101C70004FF00A0E203F96FBFEFC0EFB1C6C96FB01
:101C8000FEF60CF1300C07F804C0641C002EF2DCE8
:101C900026464FF0200C03E007F804C0641C761CB5
:101CA0008E42F9DB002105E0661A3E4416F8016C0D
:101CB0005E54491CA142F7DB2E21195500210AE090
:101CC00095FBFEF590FBF5F630361E5590FBF5F6CC
:101CD00005FB1600491C641C9142F1DB00201855DD
:101CE000F0BD0B4601220221B0E70B460322012181
:101CF000ACE710B5044604210A2006F000FE0028D7
:101D000006D0112181708460BDE8104006F00EBE3F
:101D100010BDF8B506461D460C4610460AF0B6FF43
:101D200001467C48806902780095407802FB016298
:101D3000204483B290B2A1B2EF2202F00AF9F8BDBA
:101D400070B5754D2878800726D4744BCD225F215D
:101D5000734809F0D7FF7248704BCF2261219E383B
:101D600009F0D0FF95F82A000A2802D90A2085F840
:101D70002A00002461260BE004EB440006EB40003F
:101D800081B26748CF22654B9E3809F0BBFF641CC7
:101D900095F82A00A042EFDC70BDF8B55E4D06460E
:101DA0002878800715D4688A002100902123EF222B
:101DB000084602F03EF9574811213246846960789E
:101DC000A1EB5000A98A009181B2A4686B8A082017
:101DD000A047F8BD642190FBF1F010B586B001A9D1
:101DE000FFF77FFF4C4C2023ED22A08A00900121B9
:101DF000782002F08AF801A80AF048FF45498A696C
:101E000011784908484351781123A3EB5101A38A63
:101E10000093638AC0F1B300946889B280B201AACA
:101E2000A04706B010BD2DE9F0433B4C814689B078
:101E3000207880076CD404F17C00FFF76DFE354EEE
:101E4000B52530680128A08A0090638A1BD0E07E07
:101E500001281ED033A2B7694A21B520BF68B84710
:101E6000F069FFF759FE2C488C30FFF755FEE07EF5
:101E700000270028484629D02C494FF07E58894534
:101E800009DA2B480BE0B2694A21B520976829A2EC
:101E9000E5E728A2DFE7014640460AF070FF274940
:101EA000404507DA0AF039FF0BF0DEF8032201ABF8
:101EB000012106E00AF031FF0BF0D6F8032201AB56
:101EC0001146FFF7C3FE8DF8097010E00BF004F91E
:101ED0001B4A1C4B0AF091FF00221B4B0BF034F8FD
:101EE0000BF0DBF801A9FFF7FCFE8DF8087001A8E4
:101EF0000AF0CCFEB1690A7802FB105548784921F6
:101F0000A1EB500701A80A3D0AF0C0FE04281DE01D
:101F100031E00000240000205C1800203F3F000852
:101F2000200F01084DA6B82E636D00006F12033A12
:101F30000000FA44A6CC532F636D000000007A44E1
:101F40009A9999999999A93F0000244007D8A08AA5
:101F500000906123B3222521282001F0D6FFA08A1A
:101F60000090B269638AB9B29468A8B201AAA04786
:101F7000F069FFF7D1FD09B0BDE8F08338B5FA4C40
:101F800005466323608A0090EF222321002002F09F
:101F900050F8207FF54A0028A08A00909269638A51
:101FA0004FF03C0194684FF0080005D0F0A2A04724
:101FB0002846BDE8384036E7EEA2F8E770B5EA4CAF
:101FC0008AB060642178890738D494F86A100029AF
:101FD00034D0217F002931D10BF07EF80022E64B6E
:101FE0000AF00BFF0BF059F80246E4A101A80BF030
:101FF00045FB01A80AF04AFEDC4DAA691178484366
:1020000051787723A3EB5101A38A0093C0F13E00DE
:102010009668638A89B280B201AAB04704F17C0055
:10202000FFF77AFDA08A0090A869638A732184680B
:10203000D3A24620A047E869FFF76EFD0AB070BD45
:1020400070B5C94C86B0207880072AD401AB012234
:102050000221E06CFFF7FAFD01A80AF017FEC34D5C
:10206000AA691178484351787723A3EB5101A38AD9
:102070000093C0F1D4009668638A89B280B201AA45
:10208000B04704F17C00FFF747FDA08A0090A869E3
:10209000638A73218468BBA2DC20A047E869FFF74C
:1020A0003BFD06B070BD38B50446AF480D4601781B
:1020B00089070ED4408A00908723EF2266210020F2
:1020C00001F0B7FF2046FFF779FF2846BDE838400A
:1020D000B6E738BD70B5A44C86B020788007E0D450
:1020E00094F84020642A00D36422A4A101A80BF034
:1020F000C5FA01A80AF0CAFD9C4DAA6911784843A7
:1021000051781123A3EB5101A38A0093C0F1DE00A3
:102110009668638A89B280B201AAB04792487C303F
:10212000FFF7FAFCA08A0090A869638A10218468EE
:1021300095A2E120A047E869FFF7EEFCB1E770B592
:10214000894C05462268900720D4500707D54FF6E2
:10215000FF70FFF763FD206820F004002060834CCF
:102160002946A06809F005FF2946E06809F001FF4B
:102170002946606809F0FDFE2946206909F0F9FE4C
:1021800029466069BDE8704009F0F3BE70BD70B5C6
:10219000754C05462078800711D4A08AFFF735FDDD
:1021A0002846FFF7FAFDFFF795FFA06CFFF7E6FE64
:1021B000E16C606CFFF777FFBDE87040C0E570BD73
:1021C00038B56A4C1546FF2810D1FF290ED11046AC
:1021D0000AF05CFDA1690A78497852085043A022B0
:1021E000A2EB5102C0F17800A2EB51015E4A89B224
:1021F00080B2938A0093538AA26994682A46A047C2
:1022000038BD5948401DDEE410B507F0DAF85648ED
:102210002038B0F82910A0F827102030082141728A
:102220005321817210BD504810B502220021283080
:1022300007F0E3F830B955A340F63F0257A100205C
:1022400006F024FC4848018DA1F57F42FF3A01D1F8
:102250000021018510BD444810B50222002128301C
:1022600007F0EEF8002807D1BDE8104051A340F672
:102270004F024AA106F00ABC10BD70B53A4D2C8D34
:10228000FFF7D1FF288DA04203D02C85BDE8704018
:10229000E1E770BD344810B5022200212A3007F072
:1022A000ACF8002807D1BDE8104046A340F6640210
:1022B0003AA106F0EBBB10BD2B4810B5022200215D
:1022C0002A3007F0BDF8002807D1BDE8104042A32E
:1022D00040F6740231A106F0D9BB10BD70B5224D95
:1022E00095F82A40FFF7D6FF95F82A00A04204D0BF
:1022F00085F82A40BDE87040DEE770BD70471A4A95
:10230000927E012A01D039A200E03BA258E716498B
:1023100000204978CA0702D1890700D501207047FB
:1023200010B588B00C460346FFF7F1FF06228DF882
:10233000002000218DF8011004218DF802101121D8
:102340008DF8031001218DF804108DF80530CDF8BB
:10235000064002F046FB9DF80010091DCAB269460E
:1023600003F049FA08B010BD5C18002024000020DA
:1023700048500000555000000000E03F2564000078
:1023800070706200A1E600002500000072656164C3
:1023900020717477206661696C000000536F75725C
:1023A00063655C4150505C646973706C61792E6345
:1023B000000000007772697465207174772066618F
:1023C000696C000072656164207174777370656573
:1023D00064206661696C00007772697465207174AD
:1023E000777370656564206661696C00456D707413
:1023F000792054616E6B0000CBAECFE4BFD50000F6
:102400001FB50C460346FFF782FF03228DF800201C
:1024100000218DF8011001218DF8021011218DF895
:10242000031007218DF804108DF805308DF8064053
:1024300002F0D7FA9DF80010091DCAB2694603F0F0
:10244000DAF904B08FE71FB504238DF800300022BD
:102450008DF801208DF8023091238DF80330072389
:102460008DF804300B788DF8053049788DF806101A
:102470008DF8072002F0B5FA9DF80010091DCAB2C8
:10248000694603F0B8F9DCE71FB50346FFF73FFFE5
:1024900002218DF8001000218DF8011004228DF822
:1024A000022011228DF804108DF803208DF80530DC
:1024B00002F097FA9DF80010091DCAB2694603F0B0
:1024C0009AF9BEE71FB50346FFF721FF02218DF8F9
:1024D000001000218DF8011004218DF80210112147
:1024E0008DF8031003218DF804108DF8053002F0EB
:1024F00078FA9DF80010091DCAB2694603F07BF90D
:102500009FE7FC4810B5002180F83D10807E01282F
:1025100001D0F9A000E0FAA0FFF739FEBDE81040B5
:1025200001200CE6F34810B5012180F83D10807EB3
:10253000012801D0F4A000E0F5A0FFF728FEBDE8D7
:1025400010400120FBE5704710B5FFF75DFEFFF777
:1025500058FEBDE81040D4E7E64800214172817280
:1025600041718171F0E710B5FFF74EFEFFF749FEAC
:10257000BDE81040D6E7DF48012141720021817299
:1025800041718171EFE7DB4810B5807E012801D0F1
:10259000E1A000E0E2A0FFF7FAFDBDE81040012055
:1025A000CDE500210846BBE600210846B8E610B597
:1025B0000446FFF729FEFFF724FEFFF7E4FF002C97
:1025C00003D1BDE8104001205EE7CCE6C9490222F4
:1025D0004A7200228A7201234B718A71E7E7F5E79C
:1025E0002DE9F041C34F86B0387880074ED497F874
:1025F0002B0020B1388D01A9FFF773FB03E0CAA1BE
:1026000001A80AF065FBBB4879226C30C84E0178FE
:102610004FF6FF784908494202EB81054178B269DB
:102620000520B1FBF0F15378CDF80080B3FBF0F05A
:10263000084400EB4004D034D2F808C07B8AA1B231
:10264000A8B201AAE047AB487C30FFF765FA97F8DB
:102650002B00CDF800800028F069B26941785378EA
:1026600021440078A1EB030105EB800001F1020198
:102670007B8A00F10100946889B280B201D0ADA2DA
:1026800000E0ADA2A047F069FFF746FA06B0BDE84A
:10269000F081FFF755BBA3E7A2E7FFF751BB19E5B0
:1026A000944810B5807E012805D0042801D0A3A04D
:1026B00002E0A5A000E0A6A0FFF769FDBDE810407C
:1026C00001203CE58068002800D00047704710B525
:1026D00030B98848018D642041430120FFF720FE76
:1026E000FFF792FDFFF78DFDFFF7DAFFFFF7C5FD5E
:1026F000BDE81040F2E57F4810B5807E012805D086
:10270000042801D095A002E096A000E097A0FFF772
:102710003EFDBDE81040012011E57047AFF2050015
:10272000FFF7E7BA10B50446FFF76EFDFFF769FD46
:1027300024B94FF0FF310120FFF7F2FDBDE8104052
:10274000D9E76C49032202234A7200228A724B7134
:102750008A71521E0A664A66E4E7664810B504218B
:1027600080F83D10807E012805D0042801D081A08A
:1027700002E084A000E087A0FFF709FDBDE810405B
:102780000120DCE410B5FFF73FFDFFF73AFDBDE89F
:102790001040E2E75748072141720021817204226C
:1027A00042718171EEE72DE9F84F1E46814612F81D
:1027B00006B00020DDF82CA0DFF874819055154696
:1027C000CDF800A0D8F818200C4689B297681FFAF7
:1027D00089F02A460A9BB84728460AF057FAD8F8E3
:1027E0001820A1B2137800FB03970A980090D2F842
:1027F00004C0B8B253465A46E047D8F818103544DA
:102800001FFA84FC0878CDF800A007448E686A1C83
:10281000B8B261460A9BB04736486A1C2146C38A53
:1028200001B03846BDE8F04FFFF773BA2DE9FC5F01
:102830001D46814612F805A00020DDF838B03C4F57
:1028400050551446CDF800B0BA69884689B29668EA
:102850001FFA89F022460D9BB04720460AF016FA6F
:10286000B9695B460A7804F805A000FB02990C9848
:1028700004EB050A2E180020A15D0191A0550D98CA
:102880000090BA691FFA88F11FFA89F095685246DC
:10289000A84750460AF0FAF9B9693219097800FBDD
:1028A00001900199A155CDF800B0BB691FFA88F1DC
:1028B00080B29C680D9BA047BDE8FC9F70477047A5
:1028C00008B1012803D1012901D1002039E770475F
:1028D0000848018D61B104214172522181720321A6
:1028E000417100218171491E016641660020EEE6BA
:1028F00054E000005C1800205374616E646279003B
:10290000B4FDBBFA0000000052656164790000006C
:10291000BECDD0F70000000052656369722E000042
:10292000D1ADBBB700000000202020200000000037
:10293000240000204C00000020000000566F6C2096
:102940004469737000000000566F6C20417573007D
:10295000B6A8C1BFC8A1CBAE000000004469737027
:102960002E0000004175736761626500B2FACBAE5C
:102970000000000050726573737572652052656CBB
:1029800069656600447275636B2061626C61737384
:10299000656E0000D0B920D1B9000000002015E616
:1029A00008B1012800D193E7704708B1012802D18E
:1029B000012900D1F5E57047F74A127A502A02D072
:1029C000522A01D1F1E7EBE7704708B1012802D1A3
:1029D000012900D1E8E57047EF4A127A002A00D1B8
:1029E000F3E7704708B1012803D1012901D1002084
:1029F000A7E67047E84A127A002A00D1F2E770474A
:102A00007047E54A127A002A00D159E77047002042
:102A100058E5012056E510B5DF4C208D00280DD07B
:102A200094F82B1029B1401E0004000C208506D01C
:102A300008E0FFF7D5FD012084F82B0093E4002087
:102A400084F82B00BDE81040CAE510B5D24C94F8CC
:102A50002B0048B1208D40F2E731884201D2401C62
:102A60002085BDE81040BBE5FFF7BAFD012084F8E2
:102A70002B0078E4C84890F83D00012803D00328D3
:102A800003D1002000E50020A0E57047C24890F87F
:102A90003D10052913D2DFE801F003060C060F00F4
:102AA000012108460AE090F82B0000B110E7002051
:102AB00038E60021084633E401210020A0E47047F5
:102AC00038B50446B5A341F24A02AFF23071009026
:102AD000042005F0DBFF062C16D2DFE804F0030625
:102AE000090C0F11BDE83840D0E7BDE83840C1E718
:102AF000BDE83840A9E7BDE838408CE7012000E098
:102B00000020BDE83840DDE438BDF8B5A24E307F86
:102B1000F8B1AFF2A474A0488C30FEF7FDFFB525E4
:102B200020460AF0B3F8A04F01464FF6FF73B8698C
:102B3000027802FB1152318B00915D211E3A96B250
:102B4000856822463046A847F869BDE8F840FEF798
:102B5000E3BFAFF2E074DEE710B506F032FC8E485A
:102B6000C179052916D2DFE801F003090C0F120024
:102B7000007A00280ED1BDE81040C2E4BDE8104044
:102B8000D0E4BDE81040FEE4BDE81040B3E5BDE888
:102B9000104085E519E5804A10B5116860F34101E0
:102BA000116040B141F004001060108BFFF723F872
:102BB000BDE81040A9E7BDE81040CDE770B5764DFF
:102BC0000446A878002825D1E88101F0B6FE30B986
:102BD000A08820B1BDE87040012001F09BBE28789C
:102BE000800705D5A08818B1BDE870400020D2E765
:102BF000A088C1070FD180070DD595F85110208806
:102C00004140C90703D0C00701D1FFF759FF207821
:102C100085F8510070BD2046BDE8704009F0B7B995
:102C20005D48C079072800D0B4E570475A48C0799C
:102C3000022801D00120C9E470475748C079032811
:102C400003D0042801D001207BE570475248C079A9
:102C5000012800D08FE470474F48C079002800D089
:102C60007AE4704770B502244B4D052814D2DFE892
:102C700000F00306090C0F00FFF7EEFF0AE0FFF774
:102C8000E5FF07E0BDE87040D7E7FFF7CFFF01E0C1
:102C9000FFF7C6FF85F8694070BD08B1012805D16E
:102CA000012903D13C4890F83D00DBE770472DE94E
:102CB000F041394D06460C46A878002850D184468C
:102CC0002946A5F80EC0881991F83930012707FA6E
:102CD00006F291F83810934364B1114240D1114388
:102CE00085F8381085F8393080F83A7001F025FE03
:102CF00040B109E0914385F8381085F8393080F803
:102D00003AC0F3E7012C0ED02878800701D5012CBA
:102D10000ED006F056FBE879052821D2DFE800F056
:102D2000200C11161B00BDE8F041012001F0F2BD9E
:102D3000BDE8F04100202EE721463046BDE8F041D5
:102D40005FE621463046BDE8F04153E62146304675
:102D5000BDE8F04140E621463046BDE8F0412BE6B3
:102D600095E40D491148022208624260096A002078
:102D700088747047F5E7704710B5074C2046A17876
:102D800090F83D00A1B1491E11F0FF01A17040D1A2
:102D9000BDE8104066E700005C18002062746E20F9
:102DA00025640D0A0000000024000020A01000206F
:102DB000218A491C218294F8381089B1C9070FD0A3
:102DC00094F83910CA070BD194F83A20521CD2B2A9
:102DD00084F83A20032A03D941F0010184F839101C
:102DE000E17811B9A189491CA181022811D00428D8
:102DF0000FD003280DD0E089401C80B2E0813C2830
:102E000007D32078800702D40120FFF7C4FE0020FA
:102E1000E08113E638B5FE4CA08AFEF7ECFEA08AEE
:102E20000090FC48638A28218069FBA284680A20FC
:102E3000A04738BDF649052208B1012803D181F821
:102E40003C20FFF798BB704710B5F14CE17904299D
:102E500013D804280AD003280FD1606DFEF7E3FFD2
:102E6000B4F85200BDE81040FFF7EAB8D4F85A00B1
:102E7000FEF7D9FFB4F85800F4E7DFE5F0B4E44D0D
:102E80000478E44E95F869302A7F95F83D10012CBE
:102E90001CD00027032C32D0042C2ED1002A2CD198
:102EA000376002293DD0032927D1D0F80310C5F897
:102EB0005A10B0F80110A5F85810D0F80310A96402
:102EC000B0F80110E9640078F0BCBDE7012A14D124
:102ED000326002290FD003290FD150F8031F696512
:102EE00030F8021CA5F852100168A96430F8020CF1
:102EF000E8640320E8E7012BEFD0F0BC7047012A1B
:102F0000FBD13760022909D00329F6D1D0F803108C
:102F10006965B0F80110A5F85210CEE7012BF5D085
:102F2000EBE7002BC1D0E8E770B5017900290FD19C
:102F300010F8051B0722491EB1FBF2F605460024D6
:102F400004E02846FFF79AFF641CED1DB442F8DB4D
:102F500070BDAF48D0E91821891A4FF47A72C08F3A
:102F60005143B1FBF0F07047A94910B5C979032965
:102F700001D0042907D1002805D1FFF7EAFFBDE8F9
:102F80001040FEF727BF59E52DE9F04104460179CD
:102F9000A4A00AF063FB207900281DD114F8050BCA
:102FA0000521401EB0FBF1F60025994F12E0207874
:102FB00070B9386E401C02D1D4F801003866796EC1
:102FC000D4F80100814203D078662078FFF7CCFF67
:102FD000641D6D1CB542EADBC2E6704794490A786D
:102FE00001210A3A9140014201D00120704700209E
:102FF000704710B500284FF0000005D0FDF778FFAE
:1030000000280BD1012104E0FDF772FF002805D054
:103010000021BDE810400020FDF766BF0EE57C49A9
:1030200081F83D001EE67A4A92F850108B0702D5CF
:103030004FF4784106E0C90702D04FF6E07101E095
:103040004FF6FF719182002800D085E570472DE989
:10305000F0416F4C07460D4694F8500094F83D60DF
:10306000904204D084F850200120FFF7DCFF022FAB
:1030700002D0032F10D015E02846FFF7AFFF00283D
:103080004FF0010002D0FFF7B4FF0BE0FFF7C7FFDE
:103090000020FFF7AEFF0AE09DB1012D07D1207F90
:1030A000012801D1384600E00120FFF7B8FF94F86D
:1030B0003D00B04209D1002807D1BDE8F041FFF73B
:1030C00020BA207F0028EFD1ECE749E6C27881786A
:1030D0000078BCE730B505464D480C4687B0016A1C
:1030E0000A22601D083109F0E6FD00282BD1B4F852
:1030F0000F0040BAA0F10A01092924D202F042FAD5
:1031000001F076FD284601F06CFC02F096FA0120F1
:103110008DF8080000208DF8090004208DF80A00C1
:1031200091208DF80B0011208DF80C00284601F03D
:1031300058FC052202A9CDE900123D4921230A8845
:10314000012102F08AFA07B030BD30B58BB00446D9
:1031500001208DF8080000208DF8090004208DF86A
:103160000A0091208DF80B0012208DF80C002848E1
:10317000304D017F8DF80D10016A8868CDF80E0082
:10318000C868CDF81200088AADF8160028480188F2
:10319000080A8DF818000E208DF8080026488DF8D2
:1031A00019102980B0EB815F02D102F01DF928804F
:1031B000204601F016FC9DF8081002AA091DC9B2AC
:1031C000CDE9002121232A88012102F046FA0BB023
:1031D00030BD70B50E4D06468879A876C879287737
:1031E000887A85F84000C87A85F82A000C1D097B8A
:1031F00085F86A1011A00AF031FA207985F83D00AF
:1032000068780121B1400843687095F850102FE0AC
:103210005C180020240000204C6F6164696E672EEA
:103220002E2E0000666D3A202564200D0A00000055
:1032300066000020680000200000C0FF4469737031
:103240005F446973706C617948616E646C65496E46
:1032500064436F6E662067446973706C61792E7584
:103260006348617665544F43202564200D0A0000B1
:103270006079814204D085F850000020FFF7D3FE2A
:1032800016B9002002F08EFE6279617A2079BDE8DD
:103290007040DCE6FE48417821F002014170704741
:1032A0002DE9FE4FFA4E0546904686F868000879EB
:1032B0000C46F8A34FF47162AFF620710090042021
:1032C00005F0E4FB20794FF6FF77132813D2DFE8EF
:1032D00000F00A13D3C5F512EEEDEC121212121221
:1032E0001212DEE6F000A079651D08B1FFF743F980
:1032F000687886F83C0047E1307FA17BCDF80080FC
:10330000CDE90110651DEBA340F62172AFF6747193
:10331000042005F0BBFBB8F1000FECD0687810B1C9
:10332000FFF729F933E0DFF868832978002008F1F6
:103330006C084FF0050908F1100A4FF0790B0129CC
:1033400086F82B002AD000210846FDF7CDFD98F81D
:1033500001000097B0FBF9F303EB4303D9330344B7
:10336000B0FBF9F000EB400198F800009AF800C0BB
:103370004208574200EB80000CEB87027830104483
:1033800082B20BEB870080B2D73100F0BEFD6878C7
:1033900086F83C00687A86F86900F5E00121002093
:1033A000FDF7A2FDB5F8030010B1B84200D0F087D8
:1033B000D5F80500D8B3401C39D0687A317F8842EF
:1033C00035D10090C2A340F63E72C749042005F0F3
:1033D0005DFBD5F8050042F2107188421FD998F8BC
:1033E00001100097B1FBF9F303EB430398F80020B9
:1033F000D9330B445008B1FBF9F19AF80070404200
:1034000007EB800702EB8202783201EB41013A447C
:103410000BEB800092B280B2D73100F076FDD5F888
:1034200005006421B0FBF1F03085FFF7D9F8A878EA
:1034300008B101280BD1F17E814208D0F076B08A24
:1034400000905E23B4222821022000F05EFDF07976
:1034500003289CD00220FFF705FC98E7A179601DA6
:1034600000299AD1317FC278914296D1807886F82E
:103470002A00FEF765FC87E0631DFEF748FFA842BF
:103480008BD1DA7899781878FFF7E1FD7CE038463F
:1034900002F078F8002D77D106F010FE74E0214696
:1034A0002846FFF717FE6FE003E055E043E037E002
:1034B00004E021462846FFF748FE65E06079651D77
:1034C000C00718D096F84000697888420ED064286A
:1034D0000CD364290AD23078800707D4B08A0090D0
:1034E0001E23EB220321962000F00FFD687886F85A
:1034F0004000FEF7EFFD2878800745D555F8020F0C
:1035000009F0EAFDCDE9000178A340F6B1727649F1
:10351000042005F0BBFA28687064FEF74FFD33E025
:1035200096F85010607981422ED086F85000012024
:10353000FFF779FD28E0A079671D012802D13878CE
:10354000012807D00020FFF78DFB39462846FEF7FB
:103550007AFF19E00420F6E720780721401EB0FB2F
:10356000F1F8671D69A340F6DB725F490420CDF8CE
:10357000008005F08BFA002504E03846FFF77EFC5A
:103580006D1CFF1D4545F8DB96F83D102079CDE90F
:10359000000165A340F6E7725349012005F076FA71
:1035A000BDE8FE8F10B5002905D1FEF7D5FFBDE8B7
:1035B000104002F036BD2CE42DE9F04F89B0AFF693
:1035C000FF2532240526B4FBF6F04FF00009594FD1
:1035D000CDF81C90CDE9057501208DF80800A7F203
:1035E000DE41CDE903914FF0020BADF80440ADF898
:1035F00000B089210890ADF80640ADF80210684689
:1036000008F0FBFBDFF830814FF0E20AC8F8040055
:1036100007F6BC10CDE90407AE20ADF80000B4FBFE
:10362000F6F0414206950AEB4100ADF80440ADF8D2
:1036300002000795ADF806406846CDF820B008F0C6
:10364000DCFBC8F80800C4F15200ADF80000B4FB80
:10365000F6F041420AEB4100ADF8020007F69A602D
:10366000CDE9040706950320ADF8044008900795BE
:10367000ADF80640684608F0C0FBC8F80C002F48BB
:10368000CDE90659CDE90407ADF8044058E0000043
:103690005C180020446973705F446973706C6179D1
:1036A00048616E646C654F7073456E747279202545
:1036B000640000004150505F5041434B45545F4807
:1036C0004F5F515457202564262564262564000049
:1036D0004150505F5041434B45545F484F5F5154F8
:1036E00057202564000000009C2300084150505FD3
:1036F0005041434B45545F484F5F514C5F545950C4
:10370000455F505042202564000000004150505F4A
:103710005041434B45545F484F5F57515F4E4F54A4
:103720004946592025640000484F20256426256419
:103730000D0A00004EF1000824000020C604010814
:10374000B4FBF6F041424FF07D0A0AEB4100ADF8C0
:1037500000009320ADF8020004200890ADF8064068
:10376000684608F04AFBC8F810004C48CDE9040749
:10377000B4FBF6F041420AEB4100ADF80000B4FBA7
:10378000F6F0CDE9065940424FF4917101EB40004B
:10379000ADF80440ADF80200ADF806406846089662
:1037A00008F02BFBC8F8140009B0BDE8F08FFEB597
:1037B00008F006FC6C213A4809F053FAFFF7D1FAF9
:1037C000374C48F23040002560824FF6FF70A082EF
:1037D000E0822583206820F002002060206A456096
:1037E0000120A07006F02FF860620822E2715320D9
:1037F00020724FF4E170E0872A48A0642A48606490
:1038000002202A4E84F8690004F16C002849F56111
:103810004160284981602849C1600C21017018214C
:1038200041701030254B4360254B8360254BC360AE
:103830000270102242701030234AC0E90152234A1C
:10384000C2600170302141702038FEF765F9002315
:10385000009501951A461EA12448029509F00EFF15
:10386000224809F013FAB26906F12003117848439F
:10387000C0F1EA01801D1980084498800320588017
:1038800050780930D880FEF7CEFCE01CFEF79BF99B
:10389000FFF792FEBDE8FE40FFF7BCBAA40901089D
:1038A0005C1800209A9991410000404024000020BB
:1038B0002D4500084D4800088D480008C343000806
:1038C000A948000819450008454700088D47000829
:1038D000253034642D253032642D25303264202586
:1038E0003032643A2530326400000000600C002061
:1038F00009490AA009F0B2BE70B5094D0446C1B22B
:10390000284604F044FC4021284604F0A1FC00288D
:10391000F9D0204670BD0000561101082573000043
:1039200000380140FE4AD168C3B289B221F4FF7168
:1039300041EA4301D160FB4B196840F2CF3289B2B2
:103940001140302202EA10120A436FF309001043BB
:103950001860F44801220830026000200146401C33
:103960000129FBDBEF48001D026000200146401CDE
:103970000129FBDB7047EC4B10B502221A600022D4
:103980001346521C012BFBDBE84A0424146000227E
:103990001346521C012BFBDB41EA0020FFF7C2FF5C
:1039A000E248001F046000200146401C0129FBDBA7
:1039B00010BDDD4A10B50221116000210A46491CE4
:1039C000012AFBDBD94904240C6000210A46491C6A
:1039D000012AFBDBFFF7A6FFD448001F046000208C
:1039E0000146401C0129FBDB10BDCF4B022210B564
:1039F0001B1D1A6000221346521C012BFBDBCB4A15
:103A00000424146000221346521C012BFBDB41EA04
:103A10000020FFF787FFC548001F04600020014613
:103A2000401C0129FBDB10BD30B50C4605462A21A0
:103A30000020FFF7DAFFC5F307210020FFF79BFF07
:103A4000E9B20020FFF797FF6D1CC5F307210020A6
:103A5000FFF791FFE9B20020FFF78DFF2B21002037
:103A6000FFF7C3FFC4F307210020FFF784FFE1B293
:103A70000020FFF780FF641CC4F307210020FFF73C
:103A80007AFFE1B2BDE83040002074E7F0B51C4693
:103A900016460D460746F02800D3EF274FF4A070D6
:103AA000411E854200D30D46F02E00D3EF268442FE
:103AB00000D30C462A210020FFF797FFC7F3072108
:103AC0000020FFF758FFF9B20020FFF754FFC6F3BC
:103AD00007210020FFF74FFFF1B20020FFF74BFF57
:103AE0002B210020FFF781FFC5F307210020FFF7FE
:103AF00042FFE9B20020FFF73EFFC4F30721002098
:103B0000FFF739FFE1B20020FFF735FFBDE8F040D5
:103B10002C21002069E740F23F13EF22B6E710B5F1
:103B20001446FFF781FF2C210020FFF75EFFA0B2B3
:103B3000BDE810403DE770B57A4C0220241D20609E
:103B400000200146401C0129FBDB012020600020F1
:103B50000146401C0129FBDB0425256000200146AD
:103B6000401C0129FBDB00220A231146104607F006
:103B700052FE6C4E0836356000200146401C01297B
:103B8000FBDB002214231146104607F044FE25609B
:103B900000200146401C0129FBDB0022782311464E
:103BA000104607F038FE11210020FFF71EFF00220B
:103BB00078231146104607F02EFE36210020FFF72D
:103BC00014FFC0210020FFF7D6FE3A210020FFF7A6
:103BD0000CFF55210020FFF7CEFEB2210020FFF799
:103BE00004FF0C210020FFF7C6FE0C210020FFF788
:103BF000C2FE00210846FFF7BEFE33210020FFF77A
:103C0000BAFE33210020FFF7B6FEB7210020FFF7F0
:103C1000ECFE35210020FFF7AEFEBB210020FFF7B0
:103C2000E4FE30210020FFF7A6FEC0210020FFF7B0
:103C3000DCFE2C210020FFF79EFEC2210020FFF7B2
:103C4000D4FE01210020FFF796FEC3210020FFF7DC
:103C5000CCFE17210020FFF78EFEC4210020FFF7C5
:103C6000C4FE20210020FFF786FEC6210020FFF7BA
:103C7000BCFE0F210020FFF77EFECA210020FFF7C7
:103C8000B4FE0F210020FFF776FEC8210020FFF7C9
:103C9000ACFE08210020FFF76EFE55210020FFF743
:103CA000A4FE90210020FFF766FED0210020FFF740
:103CB0009CFEA4210020FFF75EFEA1210020FFF75B
:103CC0005AFEE0210020FFF790FEF0210020FFF7D0
:103CD00052FE00210846FFF74EFE0A210020FFF7A2
:103CE0004AFE10210020FFF746FE12210020FFF7B8
:103CF00042FE1B210020FFF73EFE39210020FFF786
:103D00003AFE44210020FFF736FE47210020FFF74E
:103D100032FE28210020FFF72EFE1221002007E0AE
:103D2000001001400C0C0140100801401414014027
:103D3000FFF721FE10210020FFF71DFE16210020B5
:103D4000FFF719FE1B210020FFF715FEE1210020DF
:103D5000FFF74BFEF0210020FFF70DFE0021084683
:103D6000FFF709FE0A210020FFF705FE10210020C1
:103D7000FFF701FE11210020FFF7FDFD1A210020B1
:103D8000FFF7F9FD3B210020FFF7F5FD342100206E
:103D9000FFF7F1FD4E210020FFF7EDFD3A21002055
:103DA000FFF7E9FD17210020FFF7E5FD16210020B0
:103DB000FFF7E1FD21210020FFF7DDFD222100209A
:103DC000FFF7D9FD2A210020FFF70FFE002108464A
:103DD000FFF7D1FD00210846FFF7CDFD0021084681
:103DE000FFF7C9FDEF210020FFF7C5FD2B210020C3
:103DF000FFF7FBFD00210846FFF7BDFD0021084647
:103E0000FFF7B9FD01210020FFF7B5FD3F2100209C
:103E1000FFF7B1FD29210020FFF7E7FD2C2100204D
:103E2000FFF7E3FD0820306000200146401C012917
:103E3000FBDB1423BDE8704000221146104607F05A
:103E4000EABCF8B501213C2002F087FD4FF4FF7079
:103E5000ADF8000003258DF8025010248DF80340C2
:103E60006946FE4802F03BFB4FF63040ADF80000DB
:103E7000FB4E8DF802508DF803406946304602F043
:103E80002EFB0120ADF800006946304602F027FB0A
:103E90000424ADF800406946F24802F020FB0225F8
:103EA000ADF800506946F04802F019FBADF800503B
:103EB0006946304602F013FBADF8004069463046D3
:103EC00002F00DFB0820ADF800006946304602F014
:103ED00006FBFFF730FEF8BDF0B50746002140F2C3
:103EE0003F13EF220846FFF7D1FD00254FF4A076DF
:103EF00000243846FFF75DFD641CA4B2B442F8D339
:103F00006D1CADB2F02DF3D3F0BD2DE9F0411E468E
:103F100094460F460546DDF81880FFF7B7FD0AE026
:103F20003C4604E04046FFF744FD641CA4B2B442A2
:103F3000F8D96D1CADB26545F2D9BDE8F08110B578
:103F400014464B1C421CFFF7A1FD2046BDE8104063
:103F50002FE52DE9F0419C4616460D460746DDF853
:103F60001880FFF793FD0AE03C4604E04046FFF767
:103F700020FD641CA4B2B442F8D96D1CADB26545F5
:103F8000F2D9DAE708B500924A1C93B2421C491EE6
:103F9000401E92B289B280B2FFF7DBFF08BD2DE967
:103FA000FC4F0026A2EB000C81465F1A701E3546BE
:103FB0008846BCF1000F02DD4FF0010102E003D1A1
:103FC0004FF00001009102E0CCF1000C0090002FB6
:103FD00002DD4FF0010002E003D14FF00000834604
:103FE00002E08346C7F10007BC4501DD644600E0FE
:103FF0003C46601C4FF0000A019015E01FFA88F162
:104000001FFA89F00B9AFFF79AFF66443D44A642D7
:1040100002DD0099361B8944A54201DD2D1BD844E1
:104020000AF101001FFA80FA01998A45E6DDBDE830
:10403000FC8F2DE9F8411D46079C16468846074629
:104040000B460094FFF7ABFF3A462B46414610461D
:104050000094FFF7A4FF2B463246194638460094D9
:10406000FFF79DFF32462B46414610460094FFF76E
:1040700096FFBDE8F8812DE9FF4F844600241546E0
:10408000032081B00F46A0EB450661E0A7EB0408D2
:10409000ACEB05091FFA88F11FFA89F0049AFFF7C3
:1040A0004EFF0CEB050B1FFA88F11FFA8BF0049AF8
:1040B000FFF745FF781981B2ACEB040A00901FFAB4
:1040C0008AF0049AFFF73BFF1FFA88F11FFA89F084
:1040D000049AFFF734FFA7EB05081FFA88F11FFACF
:1040E0008AF0049AFFF72BFF07EB040A1FFA8AF104
:1040F0001FFA8BF0049AFFF722FF1FFA88F10CEBEE
:1041000004081FFA88F0049AFFF719FF0098049A30
:1041100081B21FFA88F0FFF712FF1FFA8AF11FFA27
:1041200089F0049AFFF70BFF641C002E03DA06EBFC
:104130008406B61D04E0601B06EB80066D1E0A3681
:10414000781981B20CEB040080B2049AFFF7F7FEF5
:10415000AC429BDD05B0BDE8F08F2DE9F05F144661
:104160000D4608F074FF80468946284608F06FFF28
:1041700006460F46204608F06AFF04460D464246B2
:104180004B4608F0DEFE394A0123C2E9000102F184
:1041900058003749C0E900678A460B60DAF800002A
:1041A00000EBC000400008F041FFCAE902010246EE
:1041B0000B4600202F4908F0BBFF504616D88068F8
:1041C000DAF80C100AF06AFC22462B4608F0BCFE16
:1041D00042464B4608F0B5FE244BDAF8002003EBCC
:1041E000C202C2E90001DAE902011FE0DFF888B08B
:1041F000826800205946DAF80C3008F09FFE0AF079
:104200004DFC22462B4608F09FFE42464B4608F0E6
:10421000F4FD164BDAF8002003EBC202C2E90001FC
:10422000DAE902230020594608F088FE0AF084FCEF
:1042300022462B4608F088FE32463B4608F081FEB7
:104240000A4BDAF80020583303EBC202C2E900013E
:10425000DAF80000401CCAF800000FE0001001402E
:10426000000C01400014014000080140F818002033
:104270005000002000805640008066400A288DDDF6
:10428000BDE8F09F2DE9FF4F0F46002485B015468D
:1042900003218246A1EB4508FE49129801EBC006B6
:1042A0008AE0AAEB0500814608F0C0FECDE90001D6
:1042B000D6E9002308F024FF08D8002C06DB381BC1
:1042C00081B21FFA89F0089AFFF739FEDDE9000193
:1042D000D6E9002308F014FF08D8002C06DB381BB1
:1042E00081B21FFA89F0089AFFF729FE0AEB050050
:1042F000834608F09BFECDE90301D6E9002308F0D0
:10430000FFFE08D8002C06DB381B81B21FFA8BF0A9
:10431000089AFFF714FEAAEB0400029008F086FE4C
:10432000D6E9002308F0ECFE08D8002D06DB781B48
:1043300081B20298089A80B2FFF701FE0AEB0400EE
:10434000029008F073FED6E9002308F0D9FE08D8E1
:10435000002D06DB781B81B20298089A80B2FFF725
:10436000EEFDDDE90001D6E9002308F0C9FE06D81C
:104370002CB939461FFA89F0089AFFF7E0FDDDE90C
:104380000301D6E9002308F0BBFE06D82CB9394654
:104390001FFA8BF0089AFFF7D2FD641CB8F1000FEA
:1043A00004DA08EB840000F1060805E0611B08EB65
:1043B000810000F10A086D1EAC427FF772AF09B0B0
:1043C000C9E62DE9FF4F8946B3494FF0040A074675
:1043D000C1F800A000210846491C0128FBDB00258C
:1043E0001001DFF8B8B2A0F5007808EB0501002451
:1043F0001BF801C009EB0506C4F107002CFA00F018
:10440000C007314607EB040001D0039A00E00D9A83
:10441000FFF785FB641CA4B2082CEDD36D1CADB274
:10442000102DE2D39C49091FC1F800A000200146CD
:10443000401C0129FBDBBDE8FF8F2DE9F8439946BD
:1044400015460E4604464FF49878089F0CE0E82C79
:104450000DD846450BD84B46314620460097FFF70E
:10446000B0FF0834A4B26D1C2A78002AEFD1BDE851
:10447000F8832DE9FF5F8A4687494FF0040B154604
:104480008046C1F800B000200146401C0129FBDB3A
:104490000024834E31E0C4EBC40000EB80002A7896
:1044A000315C914228D100EB0609697899F8010046
:1044B000884221D1002700250AEB070C05EB4701B4
:1044C00009EB01000024C6786146300608EB0400C1
:1044D00000EBC50001D5039A00E00E9AFFF71FFB21
:1044E0007006060E641C082CEED36D1C022DE5DB55
:1044F0007F1C102FDFD304E0641C03F0FDFFA042FB
:10450000C9D86549091FC1F800B000200146401C08
:104510000129FBDBBDE8FF9F70B514460D4608F08E
:10452000B5FBC10000012960206070BD2DE9FF4F7F
:104530008A4659494FF0040B8446C1F800B0002068
:104540000146401C0129FBDB0025203A02EB42001A
:104550004FF6FF784FEA0019524909EB450001EB8D
:10456000400211F810005288002442EA002086B26E
:104570000AEB0507300439460CEB040001D5039A19
:1045800000E00D9AFFF7CBFA641CA4B208EA4606D5
:104590000C2CEFD36D1CADB2182DDDD33E49091F95
:1045A000C1F800B000200146401C0129FBDB42E7B6
:1045B0002DE9F843994615460E4604464FF4947883
:1045C000089F0CE0E42C0DD246450BD24B463146F9
:1045D00020460097FFF7AAFF0C34A4B26D1C2A787E
:1045E000002AEFD143E72DE9F04398462E4B02EB2A
:1045F000C20203EB0217284A4FF0040CDDF81C90AE
:10460000C2F800C00024A7F590572246641C012A76
:10461000FBDB01F12F0300F11702FFF737FA002649
:104620000024BD5D280601D5404600E04846FFF75E
:10463000C0F96806641C050EA4B2082CF2D3761CDF
:10464000B6B2902EECD31448001FC0F800C0002072
:104650000146401C0129FBDBBDE8F0832DE9F8434E
:10466000994615460E4604464FF48878089F0CE09C
:10467000D82C0DD246450BD24B46314620460097EA
:10468000FFF7B1FF1834A4B26D1C2A78002AEFD1CD
:10469000EDE60000F8180020141401408F11010805
:1046A000F692010890170108903B01082DE9F047A8
:1046B0001546A54A0427DDF820A099461760002278
:1046C0001446521C012CFBDB01F12F0300F12F02D9
:1046D000FFF7DCF900249D4E26E040F2231104FB95
:1046E00001F02A78315C91421DD100EB060C69780B
:1046F0009CF80100884216D100264FF490780CEB0C
:1047000006000025C478200601D5484600E0504642
:10471000FFF74FF96006040E6D1C082DF3D3761CCD
:104720004645ECD304E0641C03F0E8FEA042D4D874
:104730008548001F076000200146401C0129FBDB63
:10474000BDE8F0872DE9F8439846154689460646A8
:104750000024089F16E004EB440006EBC000802A0A
:1047600080B24346009706D24946FFF73CFF641CDF
:10477000E4B26D1C06E02A464946FFF797FFA41CE9
:10478000E4B2AD1C2A78002AE5D170E670B5144673
:104790000D4608F07BFA00EB4001C90000EB400039
:1047A00000012960206070BD2DE9FF5F8B466649DE
:1047B000804604201546086000200146401C01295F
:1047C000FBDB0024624E33E0C4EB041000EB8000FE
:1047D0002A78315C91422AD100EB060A69789AF86E
:1047E0000100884223D10027002507EB47090BEB86
:1047F000070C09EB05010AEB01000024C6786146AD
:10480000300608EB040000EBC50001D5039A00E078
:104810000E9AFFF784F97006060E641C082CEED37E
:104820006D1C032DE5DB7F1C182FDDD304E0641C19
:1048300003F060FEA042C7D843490420091F086066
:1048400000200146401C0129FBDB63E62DE9F8430B
:1048500098461546894606460024089F12E006EB56
:104860000400802A80B24346009705D24946FFF7EC
:104870005DFE0C346D1C05E02A464946FFF794FFA7
:104880001834AD1C2A78002AE9D1F0E570B5144639
:104890000D4608F0FBF900EB4001890000EB4000F9
:1048A000C0002960206070BD2DE9F8439846154688
:1048B000894606460024089F12E006EB0400802A81
:1048C00080B24346009705D24946FFF77AFD083487
:1048D0006D1C05E02A464946FFF7CBFD1034AD1CA0
:1048E0002A78002AE9D1C2E570B514460D4608F0D1
:1048F000CDF900EB4001890000EB4000C0002960C9
:10490000206070BD0346012000E05843491EC9B233
:10491000FBD27047082138B10E48016000200146E3
:10492000401C0129FBDB70470A48001F0160002082
:104930000146401C0129FBDB704706480C38006823
:1049400040F3C000401C7047141401405F930108FD
:1049500090710108140C0140FF4B10B5002019782C
:10496000012404FA00F20A4203D184400C431C7073
:1049700010BD401CC0B20828F3D3082010BD082881
:1049800005D201218140F44802788A4302707047C1
:10499000F14A91785078814201D108207047EE4861
:1049A0001030405C491C01F0070191707047EA48E3
:1049B00041788078491C01F00701814201D1012032
:1049C000704700207047E44841788078814201D1E7
:1049D000012070470020704705F070BBDF49085C7C
:1049E0007047DE49891E085C70471CB5DC491446D7
:1049F0000978890711D000EB400101EBC000D949CB
:104A000001EBC0000021AFF22F032830CDE90010E8
:104A100064224FF4FA7005F098FA002C04D0BDE837
:104A20001C400A20FCF7D6BA1CBD2DE9FF4105F059
:104A300013FE8046FFF7C7FFC74F80B10020F87014
:104A4000387102460121C84803F0C3F8F86800B184
:104A5000804704B04046BDE8F04105F001BEBE48C5
:104A6000B9781030465CC14806EB460100EBC10442
:104A70006088082801D3082500E0C5B28DF80450ED
:104A8000618A4FF00042A08A42EA812108430090E7
:104A90002A460DF10500A16808F0CAF8684604F03E
:104AA00038FC0028D5D06088401B0004000C6080D2
:104AB00005D0A0682844A0600120F870C9E76068AC
:104AC00003F09BFDFFF764FF3046FFF758FF227BA2
:104AD00004F10D01E07BFFF788FFEDE79E4B30B45A
:104AE0005A789C78511C01F00701A14207D130BCD3
:104AF0009FA34FF49472A6A1002003F0C7BF964C69
:104B00001034A0545970D878002801D130BC8CE7FB
:104B100030BC7047904A10B550790321401CB0FB5F
:104B2000F1F301FB1300507100EB400101EBC000F9
:104B30008C4901EBC004207840070DD56088A0F5B2
:104B40007F41FF3908D0002806D004F1100005F09D
:104B500025FA10B10020207310BD207B401CC0B28C
:104B600020730328F8D38FA34FF4A77288A10020E5
:104B700003F08CFFBDE8104005F0A0BA70B5794D88
:104B8000002404EB440000EBC40005EBC000064623
:104B9000582108F066F83471641CE4B2032CF0D399
:104BA00070BD0020714B0246303B03EB0011401CEE
:104BB0000A804A804A60C0B28A600328F5D36648FA
:104BC000027042708270C2700271704770B50C46FC
:104BD000054608210A2003F092FE002807D0122182
:104BE0008170C0E90254BDE8704003F09FBE70BD03
:104BF0002DE9F04F87B05C4802F0E0FE04A802F017
:104C0000C5FF002401258DF816408DF818408DF859
:104C100017508DF819404FF0030A6D488DF81A406F
:104C20008DF812408DF814A04FF002098DF81B503A
:104C30008DF813408DF81590006866494008B0FB68
:104C4000F1F0ADF8100004A804F0DAFA42484FF091
:104C5000040B41F6FF77C0888DF80A40C0F30901C4
:104C60000BEBC1064FEA16488DF80B408DF80C503F
:104C7000ADF80080ADF80440ADF80260ADF8067004
:104C8000ADF808408DF80D50684602F01EFF8DF813
:104C90000A508DF80B408DF80C50ADF80080ADF83F
:104CA0000440ADF80260ADF80670ADF808508DF81C
:104CB0000D50684602F009FF8DF80A90FE1E8DF82F
:104CC0000B408DF80C50ADF80040ADF80440ADF845
:104CD0000260ADF80670ADF808408DF80D506846DA
:104CE00002F0F3FE8DF80AA08DF80B408DF80C5001
:104CF000ADF80040ADF80440ADF80260ADF80670C4
:104D0000ADF808508DF80D50684602F0DEFE8DF8C3
:104D10000AB07F2644F20C088DF80B408DF80C5039
:104D2000ADF80040ADF804604FF6FF77ADF80280B3
:104D3000ADF80670ADF808408DF80D50684602F0E9
:104D4000C4FE05208DF80A008DF80B408DF80C503C
:104D5000ADF8004040E00000600000208C11010828
:104D600047020020A819002000640040E01A00203B
:104D7000556E7265636F76657261626C65206275EF
:104D80006666666572206572726F72200D0A000099
:104D9000536F757263655C4150505C43616E436D47
:104DA000642E6300556E7265636F76657261626C26
:104DB00065204572726F722C205072657061726549
:104DC00020746F205265736574200D0A0000000086
:104DD0009C00002040420F00ADF80460ADF8028056
:104DE000ADF80670ADF808508DF80D50684602F029
:104DF0006CFE06208DF80A0046F20C088DF80B4078
:104E00008DF80C50ADF80040ADF80460ADF80280AC
:104E1000ADF80670ADF808408DF80D50684602F008
:104E200054FE07208DF80A008DF80B408DF80C50C9
:104E3000ADF80040ADF80460ADF80280ADF8067042
:104E4000ADF808508DF80D50684602F03EFE012284
:104E50000221FE4802F0BDFE01221021FB4802F0B3
:104E6000B8FE00220121F94802F0B3FE07B0BDE808
:104E7000F08F70B5F64A0221202005F074FBF44C47
:104E8000A41F10B14FF6FF70E08000256571FFF799
:104E900075FEFFF786FEFFF7ABFEE56070BD70B5EF
:104EA00005F0DAFB0646EB4DFFF772FD04460828D5
:104EB0000AD204EB440005EBC000406803F09DFB00
:104EC0002046FFF75CFDEFE7E1480021801F0170FD
:104ED00081704170C17001713046BDE8704005F0CD
:104EE000BFBBDB4910B5891F0878CA78104309D0C9
:104EF0000879401CC0B20871B42803D3FFF7CFFF74
:104F0000FFF776FEBDE8104004E62DE9F047D24BEE
:104F100081460E4618680021924600780F46C01C54
:104F2000C4B2CE48B0EB865F1DD0002004E01A6802
:104F3000125C5140401CC0B2A042F8D31A68984697
:104F400011551868FE2100F8011CA01C03F023FB7A
:104F50005FEA000C07D0FFF7FFFC0546082805D3E1
:104F6000604603F04AFB3846BDE8F087B94B05EBD5
:104F7000450203EBC2000027C0F804C0C0F808C017
:104F8000C773A11C23F83210418007744682A0F831
:104F9000149080F80CA0D8F8002052784273D8F80A
:104FA000002092788273D8F80010A21C6046491E37
:104FB00007F03EFE2846FFF791FD0120D4E710B52B
:104FC0000846FEF70AF8002010BDA54810B5006895
:104FD0008179C01C01F07F02102A03D1090601D497
:104FE000FDF7FBFF002010BD9D4910B509688978C9
:104FF000212901D1FFF7E9FF002010BD2DE9F04183
:105000000E460446022803D19649012081F8BA00D1
:1050100004EB4400934F00EBC40557F8350020F033
:105020003800183047F83500201DC0B203F012FBDD
:1050300007EBC501002088718B488A7A3146005DF4
:10504000FEF72EF90020BDE8F08138B5044687A3AD
:1050500040F24542AFF2C8210090042003F016FD53
:1050600004EB44007F4900EBC40051F8302022F0EB
:10507000050241F8302001EBC00000228271104689
:1050800038BD00EB400202EBC000764A52F83030E7
:1050900061F3000342F83030704700EB4001714A81
:1050A00001EBC00152F8313023F03803183342F8D5
:1050B00031300121E5E770B51546674C049A0128A7
:1050C00003D0022817D0002070BD20680270266827
:1050D000042070702068817020681946C01C07F099
:1050E000A7FD5B495F48891F2A46B0F86000C98860
:1050F000BDE8704009E7D01CC5B22068057026687D
:10510000092070702068817026680220F07026687F
:1051100000203071266870710620252908D020688B
:105120008171266821210720B17021686D1C0D70E6
:1051300021680844194607F07BFD00F007FF0120B5
:1051400070BD0EB5012201468DF8042081238DF833
:105150000730090A8DF805100421C0B28DF8061039
:1051600000EB40013F4B01EBC00103EBC10101AB80
:105170000A810521009100222121FFF79CFF0EBD2D
:105180000146AFF2410021E51CB50446006810F06D
:10519000380F14D04FF0604101EBB0104FEAB0600F
:1051A00010F0380F20600AD004F11000CDE9004063
:1051B0006088334B0246002104F0C7FE1CBD31A3BA
:1051C00040F2AD32AFF23841042003F05FFC2068BA
:1051D000002120F0040020600020A0712079FFF75A
:1051E00050FF2079BDE81C400021FEF7DBB90146E5
:1051F000AFF26B00EAE42DE9FC4106460D460F1DB7
:1052000000EB460000EBC601164800EBC1046088C5
:10521000A0F57F41FF390AD048B104F11001AFF287
:105220003103CDE900410246002104F08EFE3846EC
:10523000FDF74CFF18A34FF48762AFF2AC41042096
:10524000009603F023FC687832E000000064004020
:1052500066000020E01A00209CA201080000C0FFA8
:1052600098A20108A81900208C1101087263762009
:105270007265736574203A2025640D0A00000000F1
:10528000EF5100086C6F7374206865617274626519
:1052900061740D0A00000000726376206865617217
:1052A0007462656174203A2025640D0A00000000D4
:1052B00046EA00204034CDE90004F748C08800EBFE
:1052C00080008000AFF247130246002104F03DFE4B
:1052D0003046FFF7E2FE0020BDE8FC812DE9FC41ED
:1052E000054600EB4500ED4A00EBC50002EBC004AB
:1052F00000270E46A7718988618052F8301041F06E
:10530000040142F83010281DC0B203F0A3F96088F0
:10531000E3A340F2FD32AFF288510090042003F085
:10532000B5FB608804F11001A0F57F42FF3A09D077
:1053300040B1AFF24513CDE900410246002104F02F
:1053400004FE02E0084604F0D0FD2846FFF7A5FE63
:10535000D6483146405DFDF73CFF67730020BBE750
:1053600008B50346D24801688879C91C00F07F025D
:10537000022A1FD003DC8AB1012A04D114E0102ACA
:1053800022D0112A1CD0CBA34FF49362AFF200615C
:105390000090012003F07AFB002008BD0006FBD539
:1053A0001846BDE8084099E70006F5D41846BDE860
:1053B000084020E70006EFD41846BDE8084044E660
:1053C0001846BDE8084019E60006E5D40846FDF792
:1053D00004FEE1E7B64910B509688978212901D1B1
:1053E000FFF7BEFF002010BD10B504F0E2FE4FF045
:1053F000E021896989B2084307F012FC07F006FC36
:105400004FF4FF7190FBF1F201FB120000F5007008
:1054100080B210BD2DE9F0418046AC480C4600EB4F
:10542000041508EB48029D4802EBC80200EBC200DD
:10543000E9890181012C1DD0002181720021C172F6
:105440002988686806F0F4FB002845D0924EA049F0
:10545000974FF08830810120087038684078042820
:1054600021D0092808D00B282ED00D2809D006F00D
:1054700063FB20E00121E0E7012C2DD806F0A6FA1D
:1054800019E0012C28D83868877806F0F2FA04462B
:10549000052F11D130898F49B1EB805F0CD1FFF717
:1054A000A3FF308108E0012C404602D8FFF792FFAD
:1054B00001E0FFF799FD0446002C0DD0E889318901
:1054C000BDE8F041002220E5012000F0A8FE386888
:1054D000BDE8F04100F0B8BDB5E52DE9F041064664
:1054E0007A480D4600EB061401F10B0820880027CE
:1054F00058B16188AA7A114489B2884202D31FD96F
:10550000082A1DD22780606838E0E87AFE2838D162
:10551000287B401D208003F03EF86060A06018B139
:10552000AA7A414607F084FBA97AA0680844A060E3
:10553000A87A608026736868C0F38920E0810DE056
:10554000606818B14146A06807F072FBA97AA068AC
:105550000844A0606088A97A084460806188208837
:1055600081420ED100280CD0606818B1314601206C
:10557000FFF750FF27806780606808B103F03DF8AF
:10558000676060E544498A1DC88002212020FBF73E
:1055900075BA10B5C41CC0780C2803D1601C04F087
:1055A000F6FD08B1002010BDB4F80D0040BAC0F3FC
:1055B0000A00FFF7E7FFFFF71BFB012010BD10B546
:1055C000C26800F10801C2F30900A0F54073C2F3FC
:1055D0008922FF3B05D0304BDB88834203D1012079
:1055E0000BE0002009E0012809D1022A02D0032A99
:1055F00002D004E0022000E00320FFF76EFF00204D
:1056000010BD00EB400202EBC00238B5234800EBAE
:10561000C200002284798271012C04D0022C02D1B4
:10562000C8B2FDF707FC2CA340F2D132AFF6A001BF
:105630000120009403F02AFA38BD00EB400101EB91
:10564000C000164951F8302022F0040241F8302001
:1056500001EBC0000022827170472DE9F041144631
:105660000D46DDE9066201462048012902D00229E3
:1056700062D13DE001680A70076804217970016811
:105680008B7000683146C01C07F0D2FA21462846CC
:10569000BDE8F041002238E460000020A819002095
:1056A0006862702025640D0A000000008C1101085A
:1056B00098A20108756E6B6E6F77206D736720740A
:1056C0007970652025640D0A00000000B01A0020E2
:1056D000400200200000C0FF43616E4363625469D2
:1056E0006D656F75742025640D0A00009CA2010889
:1056F000D11CCCB201680C70056809216970016881
:105700008B7005680221E970056800212971056820
:1057100069710621252B08D001688B71056821234A
:105720000721AB700368641C1C7000680844314694
:1057300007F07EFA00F00AFC002084E42DE9F04135
:10574000824C17460D460646DDE9061220680270B7
:1057500020684770206883702068C01C07F068FAD2
:1057600029463046BDE8F0410022FFF7CEBB78491C
:10577000C86070478168002901D0C0680847704739
:1057800070B58AB0C4B204208DF805008DF806000B
:1057900000208DF807006E486E49012680798DF84B
:1057A00008008868CDF80900C868CDF80D00088A9F
:1057B000ADF811000B208DF8040004EB440000EB61
:1057C000C401654801AB00EBC1050F202E8100909C
:1057D000002221212046FFF76EFC002809D0241D5D
:1057E000E0B24FF6FF734FF4FA72012102F067FF47
:1057F000AE710AB070BDF8B5054600EB450000EB90
:10580000C503554840F6B83600EBC3070C46B879D7
:1058100008B1FF20F8BD2079012801D142F21076AD
:105820000120388100920246234621212846FFF7B5
:1058300042FCC0B1E078000613D44FF47A7096FBB6
:10584000F0F000EBC00101EB00104FF6FF7101EA30
:1058500080022D1D2379E8B2012102F030FF0220E1
:10586000B8710020F8BD3DA340F20562AFF6E0211B
:10587000042003F00BF9F4E700B535483D4985B045
:10588000C088B1EB805F02D1FF2005B000BD0221CE
:105890008DF8041000218DF8051004218DF80610F4
:1058A00003218DF807102C49ADF808000120A1F85C
:1058B000B8000620009001AB002221210220FFF752
:1058C000FAFBC0B2E1E70146AFF24B10FFF77EB939
:1058D0001CB500EB4001204B01EBC00203EBC20101
:1058E0008C79002C21D113F8322052071DD40128C5
:1058F00008D11A4692F86520032A03D393F8B02002
:10590000520712D44A7BFF2A01D2521C4A734031FB
:10591000CDE900010E48C08800EB80008000AFF2A6
:1059200059030246002104F010FB1CBD0849114A2E
:10593000C988B2EB815F00D0CAE7704710B501207B
:10594000FFF7F4FFBDE81040FFF7CBBA9CA20108B7
:1059500060000020A0100020A819002043616E53B1
:105960006E6453617070436D64206661696C656438
:105970000D0A00000000C0FF10B5044606210C20EF
:1059800002F0BDFF002807D021688160A1888181D5
:10599000BDE8104002F0CABF10BD000008B50121EB
:1059A000082000F0DAFFF948402101608021016001
:1059B000C020ADF8000002208DF8020014208DF800
:1059C0000300F2486946103800F089FD08BD032045
:1059D00003F0CBBB70B5ED4880260660402505601E
:1059E000032003F0C2FBE94C241D2660032003F0D2
:1059F000BCFB256070BD70B5E4488024001D0460C8
:105A0000032003F0B2FBE14D40202860032003F0A7
:105A1000ACFB2C60BDE87040032003F0A6BB2DE971
:105A2000F041DA4D80242E1D08B12C6000E0346076
:105A3000032003F09AFB40272F60032003F095FB1F
:105A40003760032003F091FB2C60BDE8F041032098
:105A500003F08BBB2DE9F0470546032003F085FBDF
:105A6000CA4E00244FF0800806F10409402728069A
:105A7000404601D5306001E0C9F800006806050E17
:105A8000032003F072FB3760032003F06EFBC9F8BC
:105A90000070032003F069FB641CE4B2082CE6D319
:105AA000C6F80080032003F060FB3760032003F09A
:105AB0005CFBB64808380068C9F80070C0F3C01431
:105AC000032003F052FB2046BDE8F0872DE9F047A4
:105AD0000024032003F049FBAC4FDFF8B08200251F
