:020000040800F2
:1000000080440020D98500080D0400080F04000872
:100010001104000813040008150400080000000083
:1000200000000000000000000000000017040008AD
:100030001904000800000000FFA800081B040008C5
:10004000038600080386000803860008038600086C
:100050000386000803860008D3080008E5080008A6
:10006000F7080008090900081B09000803860008B2
:10007000038600080386000803860008038600083C
:10008000038600080386000803860008430400086E
:1000900095040008BF040008E9040008A10700084F
:1000A00003860008E7050008038600080D0600081F
:1000B00045060008B90600082D0700082D090008AC
:1000C0000386000803860008038600084104000830
:1000D0003F040008BB050008DF050008E305000831
:1000E000390800080386000803860008DFF80CD0F2
:1000F0000DF034FB004800475F03000880440020F7
:100100007047704709F08FBA704770477047A8482A
:1001100010B50168491C01600A291CD10021016049
:100120004168491C4160C268521CC2606422B1FB34
:10013000F2F302FB131111B98168491C816008F0C8
:1001400021FC0AF06BF80024204601F050F9641CF1
:10015000E4B2032CF8D310BD9549496808448142A4
:10016000FDDB704710B500F070FF02F09CFE05F05B
:10017000CEFC06F033F9BDE8104005F0F8BE10B52E
:10018000827872B1012A0AD0022A11D0032A0BD038
:10019000121F032A03D28188D0B205F0F8FA00209A
:1001A00010BDFFF7DFFFFAE7002000F00BFFF6E7D6
:1001B000002000F028FFF2E710B57E4A00217E4CB7
:1001C0001170C07820707D4800684078092809D0F7
:1001D0000D280AD00BF0E2FD10B120780BF0EDFDF8
:1001E000002010BD0BF024FDF6E70BF074FDF3E7E3
:1001F00008B529208DF8000000208DF80100684620
:1002000008F017FE2A208DF8000001208DF801006B
:10021000684608F00EFE08BD10B5042008F07FFD0A
:10022000022001F087FA09F075F800F095FE00F061
:100230003FFE00F0F7FE002000F000FF00F0B6FEE9
:1002400000F0E0FE01F0BCF90AF047FA38B15CA317
:1002500040F291125EA1002008F04AFD01E000F09A
:1002600017FC04F0CCFE08F089FDFFF7C1FF03F096
:10027000AEFE05F0C6FE03F057FB09F0BBF906F031
:1002800003F94FF6FF7364220221002008F049FBB6
:10029000BDE81040012000F0B8BE10B5817831B142
:1002A00001290CD0112905D0122908D105E0FFF74A
:1002B000B3FF04E002F05CFA01E005F023FB00204C
:1002C00010BD10B58178808802F077FD002010BD48
:1002D00010B5083002F0DFFC002010BD10B5002181
:1002E0000A2008F03EFC002805D000218170BDE8FE
:1002F000104008F04DBC10BD0178C91E0C2912D267
:10030000DFE801F0060711110C09110B0D10110E99
:1003100035E701F02EB905F018BABEE7D1E74BE793
:1003200005F047BED4E700207047E5E708B509F0BF
:1003300035F8AFF209034FF400722A49032008F0A0
:100340005CFC6A4628A103200BF02DFAFFF7C6FFDC
:1003500000226423114610460BF08FFBF8E700B52E
:1003600087B00AF0FFFA00214FF0006008F010F9A2
:100370004FF4A06008F0D8F80AF091FB1D480DF189
:10038000040C0323002280218CE80F000620034682
:100390000090194A002119480BF0ADF805AA18A1E0
:1003A00006200BF000FA0AF07DFC07B0002000BD2B
:1003B000000000204C0200204D02002074A601081D
:1003C000496E697420534E56204572726F72000058
:1003D000536F757263655C4150505C6170702E6341
:1003E000000000006C0200204D61696E2D546173A5
:1003F0006B0000006C0A0020680C00202D03000830
:10040000526F6F742D5461736B0000007047FEE7EC
:10041000FEE7FEE7FEE77047704710B50AF04EFAB8
:10042000FD49097819B1FD490A78521C0A700AF091
:1004300049FA0AF04AFCBDE810400AF0C3BB704715
:10044000704710B5F64C0521204607F02AFE01281A
:1004500005D10521204607F06BFE04F0ACFB062118
:10046000204607F01EFE012805D10621204607F090
:100470005FFE04F0A0FB0721204607F012FE0128D2
:1004800007D10721204607F053FEBDE8104004F0D5
:1004900092BB10BD10B51421082008F062FB0400C7
:1004A0000CD000206070014604F10802DC4807F01F
:1004B0007BFD2046BDE8104008F06ABB10BD10B5BA
:1004C0001421082008F04DFB04000CD000206070BF
:1004D00004F108020121D24807F066FD2046BDE87C
:1004E000104008F055BB10BD7047F8B5054600EB4D
:1004F0000510C0EBC511CB4800EB810440F225513B
:10050000D4F8900107F0E0FF50B1D4F8900107F063
:1005100074FF8DF80000E8B20122694600F0A5FEE4
:1005200040F227773946D4F8900107F0CDFF40F22A
:10053000266620B3B4F88011B4F88201814204D158
:1005400000223946D4F8900117E0015DD4F89001FB
:1005500007F04FFF94F88201401C00F07F00A4F8E0
:10056000820194F89C11002926D1B4F880118142AF
:1005700009D101223146D4F8900107F0EEFE94F83B
:100580009C01002818D13146D4F8900107F09CFF57
:10059000002811D0B4F88001B4F8821188420BD140
:1005A000E8B2002100F0E4FD3146D4F89001BDE846
:1005B000F840002207F0D1BEF8BD10B59A4C40F2C9
:1005C0002551204607F080FF002807D0204607F07D
:1005D00014FFBDE81040C0B201F029B810BD0120E1
:1005E00083E7022081E710B5904C0121204607F0F7
:1005F0001DF8002809D00121204607F023F8012129
:10060000BDE81040032009F06ABD10BD10B5874C4D
:100610000221204607F00AF8002812D002212046C5
:1006200007F010F8204606F0EAFF00F57A7081B274
:10063000204606F0D3FF0221BDE81040032009F058
:100640004EBD10BD10B501218C07204606F0EEFF0F
:1006500038B10121204606F0F5FF0121002009F004
:100660003EFD0221204606F0E1FF38B1022120467E
:1006700006F0E8FF0221002009F031FD04212046A8
:1006800006F0D4FF38B10421204606F0DBFF042138
:10069000002009F024FD0821204606F0C7FF0028AD
:1006A00009D00821204606F0CDFF0821BDE8104002
:1006B000002009F014BD10BD10B55D4C012120468D
:1006C00006F0B4FF38B10121204606F0BBFF01213E
:1006D000084609F004FD0221204606F0A7FF38B1C4
:1006E0000221204606F0AEFF0221012009F0F7FCAE
:1006F0000421204606F09AFF38B10421204606F076
:10070000A1FF0421012009F0EAFC0821204606F09F
:100710008DFF002809D00821204606F093FF08210C
:10072000BDE81040012009F0DABC10BD10B5414C05
:100730000121204606F07AFF38B10121204606F05B
:1007400081FF0121022009F0CAFC0221204606F0A7
:100750006DFF38B10221204606F074FF02210846E1
:1007600009F0BDFC0421204606F060FF38B10421E9
:10077000204606F067FF0421022009F0B0FC0821A2
:10078000204606F053FF002809D00821204606F035
:1007900059FF0821BDE81040022009F0A0BC10BD9F
:1007A00010B5202005F060FF28B1202005F06AFF79
:1007B000052008F07AFD402005F056FF28B14020C2
:1007C00005F060FF062008F070FD802005F04CFF6A
:1007D00028B1802005F056FF072008F066FD4FF491
:1007E0008074204605F040FF28B1204605F04AFFFE
:1007F000082008F05AFD4FF40074204605F034FF3D
:10080000002807D0204605F03DFFBDE81040092034
:1008100008F04BBD10BD00001D0200201802002092
:10082000006400400C11002000380140002C014001
:10083000000400400008004010B54FF480642046DA
:1008400005F012FF28B1204605F01CFF0A2008F031
:100850002CFD4FF40064204605F006FF28B1204629
:1008600005F010FF0B2008F020FD4FF480542046C7
:1008700005F0FAFE28B1204605F004FF0C2008F030
:1008800014FD4FF40054204605F0EEFE28B120463A
:1008900005F0F8FE0D2008F008FD4FF480442046D6
:1008A00005F0E2FE28B1204605F0ECFE0E2008F02F
:1008B000FCFC4FF40044204605F0D6FE0028A9D0E9
:1008C000204605F0DFFEBDE810400F2008F0EDBC2B
:1008D000A0E710B5012005F0D5FEBDE810400020CE
:1008E00008F0E3BC10B5022005F0CCFEBDE81040D6
:1008F000012008F0DABC10B5042005F0C3FEBDE805
:100900001040022008F0D1BC10B5082005F0BAFE56
:10091000BDE81040032008F0C8BC10B5102005F059
:10092000B1FEBDE81040042008F0BFBC704750F88D
:1009300004BB50F804AB50F8089B90E8F00050F866
:10094000048C20A00CF0BCFF594624A00CF0B8FF8A
:10095000514625A00CF0B4FF494626A00CF0B0FF8C
:10096000414627A00CF0ACFF214628A00CF0A8FFC0
:10097000294629A00CF0A4FF31462AA00CF0A0FFC4
:1009800039462BA00CF09CFF2C4801682CA00CF0E1
:1009900097FF2A48103801682CA00CF091FF2748D7
:1009A0000C3801682CA00CF08BFF24480838016833
:1009B0002CA00CF085FF2148001D01682CA00CF034
:1009C0007FFFFEE75B48617264206661756C74208E
:1009D00068616E646C65725D0A0000005230203DF3
:1009E0002025780A000000005231203D2025780A99
:1009F000000000005232203D2025780A000000004F
:100A00005233203D2025780A000000005231322068
:100A10003D2025780A0000004C52203D2025780A10
:100A2000000000005043203D2025780A000000000F
:100A3000505352203D2025780A00000038ED00E098
:100A400042464152203D2025780A00004346535239
:100A5000203D2025780A000048465352203D20259D
:100A6000780A000044465352203D2025780A0000B1
:100A700041465352203D2025780A0000F748704730
:100A800009F035BEF64800887047F5484088704741
:100A900070B52221F3480CF016FAF14A0221212008
:100AA00009F093FEEE4C002500B12580EC4A0821A8
:100AB000121D222009F089FE38B9E849E8482222AF
:100AC0001331001D0CF029FA60B1E448E44A801E9D
:100AD000121D50F8151F61604068A0600821222097
:100AE000FFF7CEFFDE4A0221921CB02009F06DFE16
:100AF00000B16580DB4A1021A02009F066FE18B124
:100B0000D9A1D8480CF016FAD64A10211132144651
:100B1000A12009F05AFE18B1D5A120460CF00AFA1E
:100B2000D04A1C212432C02009F04FFE98B1CD4894
:100B3000D1492430016041F2A90141601D21816049
:100B4000CE49C1606FF00D01016141F2B1614161B7
:100B50004FF480318161BDE87040C2481422C84919
:100B600040300CF097B970B5C64B1C6822701D68F8
:100B700009246C701C68A0701868C01C0CF08AF9FD
:100B8000C1480078BDE870400BF017B92DE9F0417D
:100B900016460F46054609F091FE804606F00DFE0A
:100BA000284606F044FE002406E03959284606F09F
:100BB000E2FE241DA4B22D1DB442F6D306F009FEB8
:100BC000404609F07FFE0020BDE8F08170B5044684
:100BD00008F029FDA34920684FF4207588646068F7
:100BE000C8642089A64CA1F85000803C2A462146C2
:100BF000A6480CF04FF99B4914224031A1F57070C2
:100C00000CF048F908F00FFD2A46A0492046FFF7EE
:100C1000BDFF0A2070BD93498A6C0260CA6C4260B5
:100C2000B1F8501001810A20704710B5C11C18227C
:100C300096480CF02FF9192010BD70B5874D01466C
:100C40006D1E1446681E2A5D035D9048C91C8030E5
:100C500018440CF01FF9285D401CC0B270BD002183
:100C60000160192070477D4A921E525C80320260FA
:100C70007A48401E405C401CC0B270472DE9F84FD6
:100C80001D4614468A46064608F0CDFCDFF8F08182
:100C90004FF42079A8F180084A4641467B480CF081
:100CA000F9F8B278002742B1012A0DD0022A0BD000
:100CB000032A09D0FF20BDE8F88F51463046FFF7E0
:100CC000B4FF034600970AE051463046521EFFF734
:100CD000B4FFB17803466846491EFFF7C4FF27708A
:100CE000D0206070694800991A460144E01C0CF05D
:100CF000D1F808F098FC4A4664494046FFF746FFA1
:100D0000A07808B900F048FA287821780844801CB7
:100D100028700020CFE738B51D460346807814467A
:100D200018B1012805D0FF2038BD002000901920FF
:100D300003E000216846FFF796FF9978A170411CF7
:100D4000217010216170421E4D4900988039014484
:100D5000E01C0CF09FF8287821780844801C28704B
:100D6000002038BD002070474A4949480860704754
:100D70002DE9FC411546C27987788179CDE90012C9
:100D80001C4643790279C178002607F26C7008F09E
:100D9000C9FC2E70C02068702078801C2070BDE8CF
:100DA000FC8170B51D46144608F077FE06202070C1
:100DB000C120607038480179A1F26C71A17081790D
:100DC000E170C1792171017861714178A1718078F8
:100DD000E07128780830287070BD70B5841C1D46FD
:100DE000807808F064FE294901200870C22048700C
:100DF000207888702878C01C287070BD70B5447841
:100E000000251646D12C13D008DCC02C16D0C12CDE
:100E100019D0C22C1CD0D02C47D104E0F02C41D0EA
:100E2000F12C42D13AE00A463146FFF727FF03E0B2
:100E30000A463146FFF76FFF054636E00A4631465F
:100E4000FFF796FF31E00A463146FFF7AAFF2CE094
:100E50000A463146FFF7C1FF27E000003EEE0008DA
:100E6000100000206C10002041444D494E0000004D
:100E70003836303836300000EE9D0E002063E2FF39
:100E800080F4010878A601084D0200206C0C0020B7
:100E90000400FA050CED00E03C320020012000F0D7
:100EA000B4F802E0012000F097F8284670BDA5E7ED
:100EB0002DE9F047264D274E00244FF4047905F123
:100EC0000208285D494608F0A5F818F80410285DC6
:100ED00008F0CCF806EB4410074620210BF0F3FF96
:100EE0003C70641C022CECDBBDE8F087184A105CF7
:100EF00008F0BCB8164910B5085C08F0AAF800283C
:100F000000D0012010BD1249085C08F0BEB810B531
:100F1000044600780021FFF7E9FFE069002802D0CD
:100F2000BDE81040004710BD7CB50D46094901EBF6
:100F300040140121E261FFF7D9FF201DAFF2310318
:100F4000CDE900402A460021104609F030F97CBD69
:100F50005AEE0008C010002070B50121114805F0BC
:100F60007BFC01214FF0C05005F032FE012005F05E
:100F7000CFFC002005F0BEFD002005F0C9FC0A4DA5
:100F800000244FF41276285D314608F043F8641CC3
:100F9000012CF8DB70BD044910B5085C08F059F865
:100FA000C0B210BD000430005EEE000810B54FF472
:100FB00004710F2008F02EF80121BDE810400F2029
:100FC00008F054B808B1002100E001210F2008F01A
:100FD0004DB80F2008F059B810B504000ED001200C
:100FE000FFF7F0FF642044430A20B4FBF0F2002333
:100FF0000121BDE81040032007F093BCBDE810407C
:101000000020DFE7704770477047002809D064214F
:1010100048430A21B0FBF1F200230121022007F02E
:1010200080BC704710B54FF404710E2007F0F2FF3A
:101030000121BDE810400E2008F018B808B10021C9
:1010400000E001210E2008F011B80E2008F01DB8B4
:1010500038B50D4600EB0011C1EBC011FE4800EBA6
:10106000810494F88C01A84209D0D4F8B8013DB1AC
:10107000002804D109F09FFFC4F8B80128B938BD91
:1010800018B16A4601210AF07FF884F88C5138BD06
:10109000F0B5054600EB0510C0EBC511EE4885B074
:1010A00000EB8104D4F8B01100295FD028468847AE
:1010B000D4F89001002859D094F894018DF81000CC
:1010C0000F208DF8110000268DF8126001278DF891
:1010D000137004A804F5C87407F02BFA2069009077
:1010E000207DDE4931F81000ADF80400607D091D57
:1010F00031F81000ADF80600A07D891D31F8100010
:10110000ADF808000C20ADF80C60ADF80A00207AAC
:10111000694609F0ABF82068012240F22551A4F598
:10112000C87407F01AF9CC480C3850F8251051B99A
:1011300094F88C1140F8257084F88C612846C4F826
:10114000B861FFF785FF94F8A701A4F8880194F827
:101150009C0100280AD194F8AC014FF4447107F0C7
:1011600059FF94F8AC01002107F080FF05B0F0BDF5
:1011700000EB0012C2EBC012B74800EB820090F8FF
:101180009C21002A07D190F8AC0109B1012100E0AF
:10119000002107F06BBF704710B50024E0B2FFF7E5
:1011A00077FF641C032CF9DB10BD70B515460E46A5
:1011B0000246032819D202EB0210C0EBC211A64866
:1011C00000EB8104B4F88211B4F88001814201D1AE
:1011D000802007E0081A8030C11700EB516121F030
:1011E0007F01401A80B2A84201D2002070BD0121C7
:1011F0001046FFF7BDFFB4F88001B4F882118842B1
:1012000003D3C0F18002AA420ADD20442A463146B7
:101210000BF040FEB4F880012844A4F8800110E0EF
:10122000204431460BF036FEB4F88001C0F1800056
:101230008119281A85B220462A460BF02BFEA4F805
:101240008051012240F22771D4F8900107F085F80F
:10125000012070BD00EB0012C2EBC0107E4A0021DD
:1012600002EB8000A0F88A1170472DE9F041064694
:1012700000EB0610784BC0EBC61003EB800415465C
:10128000B4F88621B4F884010F46824202D14FF4AB
:1012900080710AE0111A01F580714FEAE17C01EBDF
:1012A0001C6C2CF0FF0CA1EB0C0189B2A94202D2FC
:1012B0000020BDE8F08106EB06114FF0800CC1EB79
:1012C000C6110CEB8101904203D3C0F58072AA4293
:1012D0000BDD184408442A4639460BF0DBFDB4F810
:1012E00084012844A4F8840112E0184408443946D3
:1012F0000BF0D0FDB4F88401C0F58070C119281A34
:1013000085B204F180002A460BF0C4FDA4F8845194
:101310003046FFF79FFF0120CBE700EB0012C2EB46
:10132000C0124D4800EB8200A0F88811A0F88A1185
:1013300070472DE9F047064600EB0610464FC0EB1C
:10134000C61007EB80048846B4F88601B4F884110F
:10135000C0F580700844C11700EB116121F0FF0156
:10136000401A80B21546824200D3C5B2E5B309F0F7
:10137000A5FA8146B4F88601B4F88421802106EBF1
:101380000613C3EBC61301EB8301904204D2384429
:1013900001442A46404613E0C0F58072AA42F6DCBA
:1013A0003844014440460BF075FDB4F88601C0F5A1
:1013B0008070291A0A04120C04D004F18001404400
:1013C0000BF068FD94F886012844C0B2A4F88601A9
:1013D000B4F88411884204D10020A4F88401A4F850
:1013E0008601484609F06EFA2846BDE8F08770B5D8
:1013F000054600EB0510C0EBC511174800EB810056
:10140000B0F88611B0F88421914234D0B0F88A3116
:101410005B1C9BB2A0F88A31B0F88841A3422AD362
:10142000C1F580711144CA1701EB126222F0FF026C
:10143000891A8EB290F88C1131B1D0F8B801BDE89C
:101440007040012109F0DBBE3146042007F089FB22
:10145000040010D0F2B203E00C11002060EE00088E
:1014600004F108012846FFF764FFA5702046BDE897
:10147000704007F08DBB70BD70B500EB001100F13E
:101480001003C1EBC011434800EB810404F5D07593
:101490002A460C21184609F098F920B12846FF2267
:1014A0000C210BF009FDD4F8A001B0F5E13F03D900
:1014B0004FF41650C4F8A00194F8A411002002299A
:1014C00001D384F8A40194F8A511032901D384F869
:1014D000A50194F8A611032901D384F8A60194F874
:1014E000A7010221FA2801D8022801D284F8A71105
:1014F00070BD00EB0011C1EBC010264901EB80006C
:1015000090F88C01704700EB0011C1EBC01121482D
:1015100000EB8100B0F88611B0F88401814201D15E
:10152000012070470020704710B5044600EB0410FE
:101530001849C0EBC41001EB8000D0F8900106F010
:101540005FFE2046BDE81040A2E500EB0011C1EBB4
:10155000C011104800EB8100B0F88211B0F8800192
:10156000081A8030C11700EB516121F07F01401A49
:10157000704710B5817803290AD201EB0112C2EB42
:10158000C112044901EB8201D1F8B41101B18847BD
:10159000002010BD0C11002010B50C46480702D0E9
:1015A00000200AF02CFCE00609D565480078C10748
:1015B00001D1800703D5BDE8104008F0B1BE10BDD1
:1015C00010B586B000244FF4E1300090ADF808402B
:1015D0000C20ADF80440ADF80A00ADF80640ADF8B7
:1015E0000C406946204608F041FE25208DF8100089
:1015F0000F208DF811008DF8124001208DF8130096
:1016000004A806F096FF012240F225514D4806F04D
:10161000A4FE4FF402714C480BF055FCAFF287006A
:101620004949C1F804020AF071FC06B010BD4649F0
:1016300091F80022885491F80002401C81F80002C1
:10164000D1F8042204210020104710B53D4C01467A
:10165000204606F0CEFE4021204606F02BFF002853
:10166000F9D010BD70B50D460646002404E0305D8B
:10167000FFF7EBFF641CE4B2AC42F8D33248102110
:10168000D0F80422BDE870400020104770B5BF2A92
:1016900011D82E4B1C6822701D6809246C701C68C0
:1016A000A0701868C01C0BF0F5FB29480078BDE855
:1016B00070400AF082BB70BD4030C0B2E6E710B5A2
:1016C00014460A4608B1002010BDE1B21046FFF7EB
:1016D000C9FF204610BD78B91B4A92F8003292F833
:1016E0000102834208D0105C087092F80102401C8D
:1016F00082F80102012070470020704710B50446AF
:101700000BF0F6FB2146C2B2BDE810403020BDE729
:101710000FB4104900B5096891B0884207DC14AADB
:10172000684613990CF0F8F86846FFF7E7FF11B028
:101730005DF814FB052801D20649086070470000D7
:1017400053020020003801404016002078A601080E
:101750004D0200201C00002070B50D460BF0BEFBB2
:10176000002404E000F8014B29460BF0B7FB0028E9
:10177000F8D170BD70B504680646002C1FD0204615
:101780000BF0B6FB00281AD00BF06EFB0546006884
:101790002178415CC90701D0641CF9E720460BF0B1
:1017A000A7FB01190022491E01E001F80129A1420D
:1017B00004D30B782868C05CC007F6D1346070BDD4
:1017C00070B51C46154610600BF088FB20600028A1
:1017D0000BD0002101702068401C20602846FFF7D4
:1017E000C9FF2046FFF7C6FF012070BD2DE9FE4F5F
:1017F0001C468946022A55D30178412952D14178A5
:1018000054294FD100268654921E12F0FF0500F194
:10181000020723D038780D2820D00A281ED00822AD
:10182000DFF8F08178A0082D03D339460BF08BFB4D
:10183000F0B14FF0050A78A0052D05D35246394680
:101840000BF081FB002872D075A0052D2AD35246DB
:1018500039460BF078FB00286AD023E04F2189F845
:1018600000104B2189F801102078801C1870C9E005
:1018700007F1080001AB02AA3D21FFF7A1FF88B1E3
:101880000025694F08E007EB8600C16802980BF05D
:1018900036FB50B16D1CEDB205EB850637F826001E
:1018A0000028F0D1FF20BDE8FE8F019801783F2984
:1018B0000BD005EB850107EB8105297A01292CD096
:1018C00002292FD0042934D036E005EB850007EB40
:1018D000800598F80000A97A814251D8687A18B139
:1018E00052A16B68EA680CE02A7A684669680BF0D6
:1018F000D1FA287A012806D0022807D0009BEA688E
:101900004CA1484674E09DF80030F8E7BDF800307F
:10191000F5E721780844207074E00BF023FB8DF884
:10192000000009E00BF01EFBADF8000004E02DE024
:1019300066E00BF017FB0090687AD8B101980BF0C5
:10194000D7FA297A884203D8686801990BF0F2FA2D
:10195000A97A98F80000814212D8297A37F826002F
:101960006A46FFF78DF82969044609B16846884739
:10197000204698E72A7A694668680BF08BFAE7E711
:101980002EA14846EA680BF0ABFFC2E720A0019009
:101990001FA07D1D009026212846FFF7DDFE28466A
:1019A0000BF0A6FA28B1284601950BF0A1FA0544E0
:1019B0006D1C28460BF09CFA18B1284600950BF0D8
:1019C00097FA01A8FFF7D6FE6846FFF7D3FE214835
:1019D00001990BF094FA28B91E48009911300BF0C8
:1019E0008EFA40B188F800601BA1DDE9003248465C
:1019F0000BF076FF8DE7012188F800101BA1F4E7BA
:101A000004F041FC00204EE72B434F4E4649473D32
:101A100000000000200000202B4C4F473D0000003C
:101A20002B4442473D00000070EE000825733A2524
:101A30007300000025733A2575000000636F6E6621
:101A400069672025733A20756E617574686F7269D5
:101A50007A6564006C1000204C4F472025732625C2
:101A6000733A204661696C65640000004C4F472062
:101A700025732625733A20537563636565640000FA
:101A80002DE9F8430546481E0C46164683B26F1DE5
:101A9000009281B2A5F10508BAB21FFA88F002F0EF
:101AA00044FBA3B2BAB2A1B21FFA88F0009602F0CA
:101AB0003CFB601C83B281B2BAB21FFA88F0009678
:101AC00002F033FB681E671D82B2A4F10508BBB2A9
:101AD0001FFA88F180B2009602F027FBBBB2AAB2CF
:101AE0001FFA88F1A8B2009602F01FFB6D1CBBB272
:101AF000AAB21FFA88F1A8B2009602F016FBBDE860
:101B0000F88308B500924A1D93B2421D491F401F39
:101B100092B289B280B202F0BEFA08BDFE4A116AE2
:101B2000814201D0C2E908017047F0B5002200E00F
:101B3000521C835C202BFBD0092BF9D0DCB22D2C5E
:101B400005D04FF0010605D02B2B03D003E04FF05A
:101B5000FF36F8E7521C00236FF02F070B6007E0F9
:101B60000C68521C04EB840407EB440423440B6010
:101B7000835CA3F13004092CF2D9DBB22E2B00D107
:101B8000521C01230AE00D6803EB830305EB850576
:101B900007EB45052C445B00521C0C60845CA4F1EF
:101BA0003005092DEFD908684FF47A727043086048
:101BB000934204D2B2FBF3F242430A60F0BDB3FB9E
:101BC000F2F2B0FBF2F00860F0BD10B50078022828
:101BD0000CD003280AD0042809D000210846FFF7BA
:101BE00085F9CE484FF0FF310166416610BD0121F5
:101BF000BDE810400020FFF779B908B5002100903A
:101C000040F23F13EF22084602F045FA08BD08B53E
:101C1000002100908623EF22084602F03CFA08BD1E
:101C200008B540F23F130090EF228821002002F017
:101C300032FA08BD70477047F0B5012500242646EA
:101C400003E005EB85056D00761C9642F9DB90FB01
:101C5000F5F690FBF5F705FB1700B04F4FF00A0EB5
:101C6000203F96FBFEFC0EFB1C6C96FBFEF60CF177
:101C7000300C07F804C0641C002EF2DC26464FF03E
:101C8000200C03E007F804C0641C761C8E42F9DBCC
:101C9000002105E0661A3E4416F8016C5E54491CAA
:101CA000A142F7DB2E21195500210AE095FBFEF534
:101CB00090FBF5F630361E5590FBF5F605FB160049
:101CC000491C641C9142F1DB00201855F0BD0B4605
:101CD00001220221B0E70B4603220121ACE710B537
:101CE000044604210A2006F03CFF002806D01121FA
:101CF00081708460BDE8104006F04ABF10BDF8B5A1
:101D000006461D460C4610460BF0F2F80146824886
:101D1000006A02780095407802FB0162204483B299
:101D200090B2A1B2EF2202F0DAF9F8BD70B57B4DA6
:101D30002878800726D47A4BCD225F2179480AF093
:101D400013F97848764BCF2261219E380AF00CF9BE
:101D500095F82A000A2802D90A2085F82A000024CA
:101D600061260BE004EB440006EB400081B26D48B5
:101D7000CF226B4B9E380AF0F7F8641C95F82A00C6
:101D8000A042EFDC70BDF8B5644D064628788007A8
:101D900015D4688A002100902123EF22084602F022
:101DA0000EFA5D4811213246046A6078A1EB5000BA
:101DB000A98A009181B2A4686B8A0820A047F8BD67
:101DC000642190FBF1F010B586B001A9FFF77FFF09
:101DD000524C2023ED22A08A00900121782002F0AD
:101DE0005AF901A80BF084F84B490A6A117849089E
:101DF000484351781123A3EB5101A38A0093638ACE
:101E0000C0F1B300946889B280B201AAA04706B0BD
:101E100010BD2DE9F043414C814689B02078800700
:101E200078D404F17C00FFF779FE3B4DB526686855
:101E30000128A08A0090638A1DD0E07E012820D06E
:101E400039A22F6A4A21B520BF68B847686AFFF7F0
:101E500065FE32488C30FFF761FEE07E002790B3CC
:101E60006868012830D0324948464FF07E5889458D
:101E700009DA30480BE02A6A4A21B52097682EA279
:101E8000E3E72DA2DDE7014640460BF0AAF82C4A15
:101E90002C49904201DC104601E0404507DA0BF086
:101EA0006EF80BF013FA032201AB012106E00BF0F0
:101EB00066F80BF00BFA032201AB1146FFF7BCFEEC
:101EC0008DF8097012E0FFE748460BF037FA1E4A1A
:101ED0001E4B0BF0C4F800221D4B0BF067F90BF002
:101EE0000EFA01A9FFF7F3FE8DF8087001A80AF0B9
:101EF000FFFF296A0A7802FB106648784921A1EBA6
:101F0000500701A80A3E0AF0F3FF042828D8A08A47
:101F100061231FE030E0000024000020681800204A
:101F2000CB400008841101084DA6B82E636D000057
:101F30006F12033A0000FA44A6CC532F636D0000E1
:101F4000AE47613D00007A449A9999999999A93FC1
:101F5000000024400090B3222521282002F09BF8A5
:101F6000A08A00902A6A638AB9B29468B0B201AAC2
:101F7000A047686AFFF7D2FD09B0BDE8F08338B525
:101F8000FB4C05466323608A0090EF22232100204A
:101F900002F015F9207FF74A0028A08A0090126A03
:101FA000638A4FF03C0194684FF0080005D0F2A21C
:101FB000A0472846BDE838402BE7F0A2F8E770B507
:101FC000EB4C8AB060642178890738D494F86A10A1
:101FD000002934D0217F002931D10BF0AFF9002244
:101FE000E74B0BF03CF80BF08AF90246E5A101A89B
:101FF0000BF076FC01A80AF07BFFDE4D2A6A11780F
:10200000484351787723A3EB5101A38A0093C0F191
:102010003E009668638A89B280B201AAB04704F193
:102020007C00FFF77BFDA08A0090286A638A7321F9
:102030008468D5A24620A047686AFFF76FFD0AB002
:1020400070BD70B5CA4C86B0207880072AD401AB29
:1020500001220221E06CFFF7EFFD01A80AF048FF22
:10206000C44D2A6A1178484351787723A3EB510174
:10207000A38A0093C0F1D4009668638A89B280B2C3
:1020800001AAB04704F17C00FFF748FDA08A009048
:10209000286A638A73218468BCA2DC20A047686A2E
:1020A000FFF73CFD06B070BD38B50446B0480D469C
:1020B000017889070ED4408A00908723EF22662199
:1020C000002002F07CF82046FFF779FF2846BDE8A3
:1020D0003840B6E738BD70B5A54C86B0207880078B
:1020E000E0D494F84020642A00D36422A5A101A87A
:1020F0000BF0F6FB01A80AF0FBFE9E4D2A6A117850
:10210000484351781123A3EB5101A38A0093C0F1F6
:10211000DE009668638A89B280B201AAB04794480B
:102120007C30FFF7FBFCA08A0090286A638A1021AC
:10213000846897A2E120A047686AFFF7EFFCB1E747
:1021400070B58B4C05462268900720D4500707D500
:102150004FF6FF70FFF764FD206820F00400206058
:10216000844C294620690AF036F8294660690AF04D
:1021700032F82946E0680AF02EF82946A0690AF0EC
:102180002AF82946E069BDE870400AF024B870BD1D
:1021900070B5774C05462078800711D4A08AFFF7E8
:1021A00036FD2846FFF7EFFDFFF795FFA06CFFF720
:1021B000E6FEE16C606CFFF777FFBDE87040B5E5C7
:1021C00070BD38B56B4C1546FF2810D1FF290ED1D4
:1021D00010460AF08DFE216A0A7849785208504369
:1021E000A022A2EB5102C0F17800A2EB5101604A9B
:1021F00089B280B2938A0093538A226A94682A46ED
:10220000A04738BD5A48401DDFE410B507F00BFA6F
:1022100057482038B0F82910A0F82710203009219D
:1022200041725321817210BD514810B50222002124
:10223000283007F014FA30B956A340F6480259A1E5
:10224000002006F055FD4A48018DA1F57F42FF3A76
:1022500001D10021018510BD454810B502220021A1
:10226000283007F01FFA002807D1BDE8104053A31B
:1022700040F658024BA106F03BBD10BD70B53C4D79
:102280002C8DFFF7D1FF288DA04203D02C85BDE80F
:102290007040E1E770BD364810B5022200212A30B7
:1022A00007F0DDF9002807D1BDE8104047A340F64C
:1022B0006D023CA106F01CBD10BD2D4810B50222D8
:1022C00000212A3007F0EEF9002807D1BDE81040C0
:1022D00043A340F67D0233A106F00ABD10BD70B5E0
:1022E000234D95F82A40FFF7D6FF95F82A00A04223
:1022F00004D085F82A40BDE87040DEE770BD704725
:102300001C4B00221A701A4A927E012A01D039A26F
:1023100000E03BA255E7164900204978CA0702D1E0
:10232000890700D50120704710B588B00C460346D8
:10233000FFF7F1FF06228DF8002000218DF8011033
:1023400004218DF8021011218DF8031001218DF860
:1023500004108DF80530CDF8064002F008FC9DF819
:102360000010091DCAB2694603F00DFB08B010BD8C
:10237000681800202400002048500000555000003C
:102380000000E03F2564000070706200A1E60000DC
:1023900025000000726561642071747720666169B0
:1023A0006C000000536F757263655C4150505C6453
:1023B0006973706C61792E63000000007772697434
:1023C0006520717477206661696C000072656164D4
:1023D000207174777370656564206661696C0000B4
:1023E00077726974652071747773706565642066AF
:1023F00061696C00456D7074792054616E6B0000EA
:10240000CBAECFE4BFD500001FB50C460346FFF7A7
:1024100082FF03228DF8002000218DF80110012198
:102420008DF8021011218DF8031007218DF804108A
:102430008DF805308DF8064002F099FB9DF80010EC
:10244000091DCAB2694603F09EFA04B08FE71FB5B2
:1024500004238DF8003000228DF801208DF8023021
:1024600091238DF8033007238DF804300B788DF815
:10247000053049788DF806108DF8072002F077FBBB
:102480009DF80010091DCAB2694603F07CFADCE72A
:102490001FB50346FFF73FFF02218DF80010002112
:1024A0008DF8011004228DF8022011228DF80410FD
:1024B0008DF803208DF8053002F059FB9DF80010CF
:1024C000091DCAB2694603F05EFABEE71FB50346AE
:1024D000FFF721FF02218DF8001000218DF8011077
:1024E00004218DF8021011218DF8031003218DF8BD
:1024F00004108DF8053002F03AFB9DF80010091D1C
:10250000CAB2694603F03FFA9FE7FF4810B5FF4A99
:10251000002180F83D101170807E012801D0FCA0C0
:1025200000E0FDA0FFF734FEBDE81040012007E603
:10253000F54810B5F54A012180F83D101170807EF4
:10254000012801D0F6A000E0F7A0FFF721FEBDE8CA
:1025500010400120F4E5EC4810B50521EB4A80F865
:102560003D1000211170807E012801D0F0A000E014
:10257000F1A0FFF70DFEBDE810400120E0E5E248C4
:1025800010B50121E14A80F83D1000211170807ED4
:10259000012801D0EAA000E0EBA0FFF7F9FDBDE8BB
:1025A00010400120CCE5704710B5FFF72EFEFFF775
:1025B00029FEBDE81040A8E7D3480021417281728E
:1025C00041718171F0E710B5FFF71FFEFFF71AFEAA
:1025D000BDE81040ACE710B5FFF717FEFFF712FE9D
:1025E000BDE81040B7E710B5FFF70FFEFFF70AFE92
:1025F000BDE81040C3E7C448012141720021817247
:1026000041718171DFE7C048082141720021817268
:1026100041718171DFE7BC48012141720021817263
:1026200041718171DFE7B94910B500200870B648E3
:10263000807E012801D0C6A000E0C7A0FFF7A8FD5A
:10264000BDE8104001207BE5002108466CE6002132
:10265000084669E610B50446FFF7D7FDFFF7D2FD3F
:10266000FFF7E1FF002C03D1BDE8104001200FE788
:102670007DE6A54902224A7200228A7201234B712B
:102680008A71E7E7F5E72DE9F0419F4F86B038788A
:1026900080074ED497F82B0020B1388D01A9FFF7A1
:1026A00016FB03E0AEA101A80AF044FC964879228B
:1026B0006C30964E01784FF6FF784908494202EB9C
:1026C00081054178326A0520B1FBF0F15378CDF8ED
:1026D0000080B3FBF0F0084400EB4004D034D2F8A3
:1026E00008C07B8AA1B2A8B201AAE04786487C3024
:1026F000FFF714FA97F82B00CDF800800028706AD5
:10270000326A4178537821440078A1EB030105EB4C
:10271000800001F102017B8A00F10100946889B216
:1027200080B201D090A200E090A2A047706AFFF7AB
:10273000F5F906B0BDE8F081FFF7F8BAA3E7A2E724
:10274000FFF7F4BAC7E4714910B5002008706E486D
:10275000807E012805D0042801D085A002E087A052
:1027600000E088A0FFF714FDBDE810400120E7E479
:102770008068002800D00047704710B530B9624823
:10278000018D642041430120FFF7CEFDFFF73DFDA1
:10279000FFF738FDFFF7D7FFFFF770FDBDE81040EA
:1027A0009DE55A4910B5002008705748807E0128E1
:1027B00005D0042801D076A002E077A000E078A040
:1027C000FFF7E6FCBDE810400120B9E47047AFF226
:1027D0000300FFF784BA10B50446FFF716FDFFF7B4
:1027E00011FD24B94FF0FF310120FFF79DFDBDE839
:1027F0001040D6E74449032202234A7200228A721B
:102800004B718A71521E0A664A66E4E73E4810B56B
:1028100004213E4A80F83D1000211170807E01287D
:1028200005D0042801D060A002E063A000E066A00B
:10283000FFF7AEFCBDE81040012081E410B5FFF7C2
:10284000E4FCFFF7DFFCBDE81040DFE72E4807217E
:10285000417200218172042242718171EEE72DE9FB
:10286000F84F1E46814612F806B00020DDF82CA075
:10287000DFF8988090551546CDF800A0D8F82020B4
:102880000C4689B297681FFA89F02A460A9BB84716
:1028900028460AF02DFBD8F82020A1B2137800FBBF
:1028A00003970A980090D2F804C0B8B253465A462B
:1028B000E047D8F8201035441FFA84FC0878CDF89A
:1028C00000A007448E686A1CB8B261460A9BB047F4
:1028D0000D486A1C2146C38A01B03846BDE8F04F56
:1028E000FFF70DBA2DE9FC5F1D46814612F805A0E1
:1028F0000020DDF838B088465055144689B21FFADA
:1029000089F0024F64E000006818002024000020D5
:102910005374616E64627900B4FDBBFA000000007C
:10292000496E205573650000CAB9D3C3D6D00000E4
:1029300057616974696E6700C9D4B5C800000000AA
:102940005265616479000000BECDD0F70000000040
:1029500052656369722E0000D1ADBBB70000000064
:1029600020202020000000004C000000200000007B
:10297000566F6C204469737000000000566F6C2025
:1029800041757300B6A8C1BFC8A1CBAE000000005E
:10299000446973702E0000004175736761626500C1
:1029A000B2FACBAE000000005072657373757265A9
:1029B0002052656C69656600447275636B206162C4
:1029C0006C617373656E0000D0B920D1B90000004E
:1029D000CDF800B03A6A0D9B96682246B047204673
:1029E0000AF086FA396A5B460A7804F805A000FB0B
:1029F00002990C9804EB050A2E180020A15D0191A4
:102A0000A0550D9800903A6A1FFA88F11FFA89F0D4
:102A100095685246A84750460AF06AFA396A321950
:102A2000097800FB01900199A155CDF800B03B6AEF
:102A30001FFA88F180B29C680D9BA047BDE8FC9FFF
:102A40007047704708B1012803D1012901D1002046
:102A5000D0E67047FC48018D61B1042141725221DA
:102A600081720321417100218171491E0166416615
:102A7000002082E60020FCE508B1012800D1E9E74A
:102A8000704708B1012802D1012900D1DCE5704767
:102A9000ED4A127A502A02D0522A01D1F1E7EBE72F
:102AA000704708B1012802D1012900D1CFE5704754
:102AB000E54A127A002A00D1F3E7704708B10128ED
:102AC00003D1012901D1002094E67047DE4A127A31
:102AD000002A00D1F2E770477047DB4A127A002AD9
:102AE00000D1AFE770470020F0E40120EEE410B51C
:102AF000D54C208D00280DD094F82B1029B1401E04
:102B00000004000C208506D008E0FFF7BCFD012082
:102B100084F82B002BE4002084F82B00BDE8104043
:102B2000B1E510B5C84C94F82B0048B1208D40F2A7
:102B3000E731884201D2401C2085BDE81040A2E563
:102B4000FFF7A1FD012084F82B0010E4BE4890F8A7
:102B50003D00012803D0032803D1002098E4002081
:102B600087E57047B84890F83D10062914D2DFE891
:102B700001F003060C06100C012108460BE090F84A
:102B80002B0000B166E7002025E600210846FFF78C
:102B9000CBBB0121002037E4704738B50446ABA316
:102BA00041F20412AFF604010090042006F0A0F8F0
:102BB000062C16D2DFE804F00306090C0F11BDE85D
:102BC0003840CFE7BDE83840C0E7BDE83840A8E767
:102BD000BDE838408BE7012000E00020BDE8384028
:102BE00074E438BDF8B5984E307FF8B1AFF678048C
:102BF00095488C30FEF792FFB52520460AF078F90B
:102C0000954F01464FF6FF73386A027802FB115266
:102C1000318B00915D211E3A96B28568224630467E
:102C2000A847786ABDE8F840FEF778BFAFF6B4046D
:102C3000DEE710B506F0F7FC8348C179052916D206
:102C4000DFE801F003090C0F1200007A00280ED112
:102C5000BDE8104059E4BDE8104090E4BDE81040E4
:102C6000E1E4BDE810409CE5BDE810406BE5FFE401
:102C7000754A10B5116860F34101116040B141F02F
:102C800004001060108BFEF7B8FFBDE81040A9E704
:102C9000BDE81040CDE770B56B4D0446A87800281C
:102CA0002AD1A08808B10020E88101F00CFF30B9DA
:102CB000A08820B1BDE87040012001F0F1BE287865
:102CC000800705D5A08818B1BDE870400020CFE787
:102CD00006F0A9FCA088C1070FD180070DD595F893
:102CE000511020884140C90703D0C00701D1FFF728
:102CF00054FF207885F8510070BD2046BDE8704033
:102D000009F077BA5048C079072800D09EE570478F
:102D10004D48C079022801D00120AAE470474A48F2
:102D2000C079032803D0042801D0012062E5704750
:102D30004548C079012800D065E470474248C07911
:102D4000012800D067E470473F48C079002800D0D0
:102D500032E4704770B54049002202243A4D8A603F
:102D6000062819D2DFE800F003060E111409FFF758
:102D7000EBFF0FE0FFF7E2FF0CE001208860FFF7B8
:102D8000D7FF07E0BDE87040C9E7FFF7C1FF01E0EA
:102D9000FFF7B8FF85F8694070BD08B1012805D17B
:102DA000012903D1284890F83D00D3E77047264A0F
:102DB000127A002A00D164E670472DE9F041224DD5
:102DC00006460C46A878002861D184462946A5F815
:102DD0000EC0881991F83930012707FA06F291F8E8
:102DE0003810934364B1114251D1114385F8381022
:102DF00085F8393080F83A7001F065FE40B109E09D
:102E0000914385F8381085F8393080F83AC0F3E7F7
:102E1000012C10D02878800701D5012C10D006F0A5
:102E200002FCE879092832D2DFE800F031181D22CF
:102E3000273131312C00BDE8F041012001F030BED6
:102E4000BDE8F041002013E76818002062746E208E
:102E500025640D0A000000002400002021463046B1
:102E6000BDE8F04139E621463046BDE8F0412DE6A7
:102E700021463046BDE8F0411AE621463046BDE81D
:102E8000F04105E621463046BDE8F0418FE751E4C8
:102E9000FE49FD48022208624260096A00208874E7
:102EA0007047F5E7704770B5F84C00252046A178CB
:102EB00090F83D0039B1491E11F0FF01A17032D1E7
:102EC000FFF748FF2FE0218A491C218294F838102F
:102ED00089B1C9070FD094F83910CA070BD194F8FB
:102EE0003A20521CD2B284F83A20032A03D941F086
:102EF000010184F83910E17811B9A189491CA18137
:102F0000022810D004280ED003280CD0E089401CE1
:102F100080B2E0813C2806D32078800702D40120CB
:102F2000FFF7A6FEE581DA4E307800280DD07078E4
:102F300010B1208A70807570208A7188401A032829
:102F400003DDFFF71CFB0120707070BD38B5CF4C5E
:102F5000A08AFEF752FEA08A0090CD48638A2821FD
:102F6000006ACCA284680A20A04738BD10B5C749C2
:102F7000052278B1012813D181F83C20FFF743FBEB
:102F8000C7A340F68852AFF6E431BDE810400420F4
:102F900005F0AEBE81F83C20BDE81040FFF73BBB1A
:102FA000B8E510B5B94CE179042913D804280AD042
:102FB00003280FD1606DFEF72CFFB4F85200BDE876
:102FC0001040FFF73EB8D4F85A00FEF722FFB4F8DD
:102FD0005800F4E79EE5F0B4AC4D0478AC4E95F89B
:102FE00069302A7F95F83D10012C1CD00027032C56
:102FF00032D0042C2ED1002A2CD1776002293DD06A
:10300000032927D1D0F80310C5F85A10B0F80110E1
:10301000A5F85810D0F80310A964B0F80110E964BD
:103020000078F0BCBDE7012A14D1726002290FD0EC
:1030300003290FD150F8031F696530F8021CA5F869
:1030400052100168A96430F8020CE8640320E8E734
:10305000012BEFD0F0BC7047012AFBD17760022929
:1030600009D00329F6D1D0F803106965B0F8011032
:10307000A5F85210CEE7012BF5D0EBE7002BC1D01D
:10308000E8E770B5017900290FD110F8051B072278
:10309000491EB1FBF2F60546002404E02846FFF77E
:1030A0009AFF641CED1DB442F8DB70BD7748D0E98F
:1030B0001821891A4FF47A72C08F5143B1FBF0F096
:1030C0007047724910B5C979032901D0042907D185
:1030D000002805D1FFF7EAFFBDE81040FEF770BEFB
:1030E00018E52DE9F0410446017973A00AF0E8FBE8
:1030F000207900281DD114F8050B0521401EB0FBD6
:10310000F1F60025614F12E0207870B9386E401C4E
:1031100002D1D4F801003866796ED4F801008142FA
:1031200003D078662078FFF7CCFF641D6D1CB54294
:10313000EADBACE6704763490A7801210A3A91401C
:10314000014201D0012070470020704710B50028CF
:103150004FF0000005D0FDF7CDFE00280BD1012176
:1031600004E0FDF7C7FE002805D00021BDE81040AF
:103170000020FDF7BBBECDE4444981F83D00E9E500
:10318000424A92F850108B0702D54FF4784106E07E
:10319000C90702D04FF6E07101E04FF6FF7191824E
:1031A000002800D045E570472DE9F041374C07462F
:1031B000904694F8500094F83D600D46984204D033
:1031C00084F850300120FFF7DBFF022F02D0032FDD
:1031D00015D01AE02846FFF7AEFF18B10120FFF71F
:1031E000B5FF12E04046FFF7A6FF08B1052000E05A
:1031F0000120FFF7C1FF0020FFF7A8FF0AE09DB103
:10320000012D07D1207F012801D1384600E001209F
:10321000FFF7B2FF94F83D00B04209D1002807D172
:10322000BDE8F041FFF771B9207F0028EFD1ECE74E
:103230002DE6C378427881780078B5E730B5054649
:1032400012480C4687B0016A0A22601D083109F055
:1032500064FE00284DD1B4F80F0040BAA0F10A0175
:10326000092946D202F054FA01F088FD284601F0FF
:103270007EFC02F0AAFA01208DF8080000208DF8EB
:103280000900042020E00000AC1000206818002095
:10329000240000204C6F6164696E672E2E2E0000A2
:1032A00078787878787878782074696D65206F758B
:1032B0007420787878787800666D3A202564200D3F
:1032C0000A0000006E0000208DF80A0091208DF8A1
:1032D0000B0011208DF80C00284601F048FC052257
:1032E00002A9CDE90012FA4921230A88012102F03E
:1032F0007CFA07B030BD30B58BB0044601208DF8A4
:10330000080000208DF8090004208DF80A009120A3
:103310008DF80B0012208DF80C00EE48EE4D017F69
:103320008DF80D10016A8868CDF80E00C868CDF8D8
:103330001200088AADF81600E5480188080A8DF8E1
:1033400018000E208DF80800E4488DF81910298027
:10335000B0EB815F02D102F00DF92880204601F028
:1033600006FC9DF8081002AA091DC9B2CDE900218A
:1033700021232A88012102F038FA0BB030BD70B544
:10338000D44D06468879A876C8792877887A85F852
:103390004000C87A85F82A000C1D097B85F86A1060
:1033A000CFA00AF08DFA207985F83D0068780121D8
:1033B000B1400843687095F850106079814204D09C
:1033C00085F850000020FFF7DBFE16B9002002F060
:1033D0001BFF6379617A2079BDE870400022E3E643
:1033E000BC48417821F00201417070472DE9FE4F41
:1033F000B84E0546904686F8680008790C4600905D
:10340000C4A340F6C472CB49042005F071FC2079B6
:103410004FF6FF77132813D2DFE800F00A13D7C95D
:10342000FB12EFEEED12121212121212E3F1F6007D
:10343000A079651D08B1FFF7EEF8687886F83C00C2
:10344000B9E1307FA17BCDF80080CDE90110651D89
:10345000B9A340F6D572B749042005F049FCB8F18C
:10346000000FEDD06878022803D028B1FFF7D3F819
:1034700036E0FFF7C0F833E0DFF858822978002003
:1034800008F16C084FF0050908F1100A4FF0790BAC
:10349000012986F82B002AD000210846FDF726FDD9
:1034A00098F801000097B0FBF9F303EB4303D9331D
:1034B0000344B0FBF9F000EB400198F800009AF8E3
:1034C00000C04208574200EB80000CEB87027830C6
:1034D000104482B20BEB870080B2D73100F0DBFDE5
:1034E000687886F83C00687A86F8690063E1012113
:1034F0000020FDF7FBFCB5F8030010B1B84200D086
:10350000F087D5F80500D8B3401C39D0687A317FF0
:10351000884235D100908FA340F6F8728549042087
:1035200005F0E6FBD5F8050042F2107188421FD97C
:1035300098F801100097B1FBF9F303EB430398F8F7
:103540000020D9330B445008B1FBF9F19AF8007010
:10355000404207EB800702EB8202783201EB410127
:103560003A440BEB800092B280B2D73100F093FD69
:10357000D5F805006421B0FBF1F03085FFF783F842
:10358000A87808B101280BD1F17E814208D0F076ED
:10359000B08A00905E23B4222821022000F07BFD37
:1035A000F07903289CD00220FFF7D4FB98E7A1799B
:1035B000601D00299AD1317FC278914296D18078DE
:1035C00086F82A00FEF7B2FBF5E0671DFEF7A3FEC2
:1035D000A84205D1FB787A78B9783878FFF7E4FD0E
:1035E000E9E0384602F094F8002D01D106F098FE8B
:1035F000E1E009E003E05AE048E03CE009E0214670
:103600002846FFF71BFED6E021462846FFF773FE4B
:10361000D1E06079651DC00718D096F84000697840
:1036200088420ED064280CD364290AD230788007EF
:1036300007D4B08A00901E23EB220321962000F0CD
:103640002AFD687886F84000FEF745FD2878800757
:1036500010D555F8020F09F071FECDE9000143A322
:1036600041F26B023349042005F042FB2868706484
:10367000FEF7A5FC9FE096F850106079814204D0D7
:1036800086F850000120FFF77BFD94E0A079671DCC
:10369000012802D13878012807D00020FFF75AFB13
:1036A00039462846FEF7D3FE85E00420F6E7207869
:1036B0000721401EB0FBF1F8671D34A341F29502CB
:1036C0001C490420CDF8008005F012FB002570E0B5
:1036D0006E00002068180020700000200000C0FF6D
:1036E000446973705F446973706C617948616E649A
:1036F0006C65496E64436F6E662067446973706CD5
:1037000061792E756348617665544F4320256420A6
:103710000D0A0000446973705F446973706C6179CD
:1037200048616E646C654F7073456E7472792025C4
:1037300064000000A42300084150505F5041434BF7
:1037400045545F484F5F5154572025642625642611
:10375000256400004150505F5041434B45545F4841
:103760004F5F515457202564000000004150505FC6
:103770005041434B45545F484F5F514C5F54595043
:10378000455F505042202564000000004150505FCA
:103790005041434B45545F484F5F57515F4E4F5424
:1037A00049465920256400003846FFF714FC6D1C7B
:1037B000FF1D4545F8DB96F83D102079CDE9000165
:1037C00095A341F2A1029749012005F091FABDE8C5
:1037D000FE8F10B5002905D1FEF7EEFEBDE81040C2
:1037E00002F051BD7CE42DE9F04F89B0AFF65545AC
:1037F00032240526B4FBF6F04FF000098A4FCDF8CD
:103800001C90CDE9057501208DF80800A7F2DE4176
:10381000CDE903914FF0020BADF80440ADF800B0D4
:1038200089210890ADF80640ADF80210684608F00E
:1038300016FCDFF8F8814FF0E20AC8F80C0007F632
:10384000BC10CDE90407AE20ADF80000B4FBF6F0E3
:10385000414206950AEB4100ADF80440ADF8020084
:103860000795ADF806406846CDF820B008F0F7FBA4
:10387000C8F81000C4F15200ADF80000B4FBF6F037
:1038800041420AEB4100ADF8020007F69A60CDE92B
:10389000040706950320ADF8044008900795ADF89D
:1038A0000640684608F0DBFBC8F814006048CDE924
:1038B0000407B4FBF6F041424FF07D0A0AEB4100E9
:1038C000ADF80000CDE906599320ADF802000420C0
:1038D000ADF804400890ADF80640684608F0BFFB1C
:1038E000C8F818005348CDE90407B4FBF6F041428C
:1038F0000AEB4100ADF80000B4FBF6F0CDE9065943
:1039000040424FF4917101EB4000ADF80440ADF836
:103910000200ADF806406846089608F0A0FBC8F81B
:103920001C0009B0BDE8F08FFEB508F07BFC6C21EF
:10393000414809F0C8FAFFF7ABFA3F4C48F2304073
:10394000002560824FF6FF70A082E0822583206808
:1039500020F002002060206A45600120A07006F07F
:10396000A4F860620920E071532020724FF4E170E6
:10397000E087A564E564022065642C4E84F8690044
:1039800004F16C002D49756241602D4981602D491B
:10399000C1600C2101701821417010302A4A426028
:1039A0002A4A82602A4AC2600822027010224270AB
:1039B0001030284AC0E90152274AC2600170302104
:1039C00041702038FEF7AAF80023009501951A46A9
:1039D00022A12948029509F083FF274809F088FAB7
:1039E000326A06F1280311784843C0F1EA01801DCC
:1039F0001980084498800320588050780930D88076
:103A0000FEF712FCE01CFEF7E0F8FFF7ECFEBDE865
:103A1000FE40FFF79BBA0000484F2025642625642E
:103A20000D0A0000A4230008B2F3000824000020BF
:103A30002A070108080C010868180020B946000888
:103A4000D9490008194A00084F450008354A0008BE
:103A5000A5460008D14800081949000825303464FB
:103A60002D253032642D2530326420253032643AE1
:103A700025303264000000006C0C002009490AA0C7
:103A800009F01EBF70B5094D0446C1B2284604F0C6
:103A9000B0FC4021284604F00DFD0028F9D0204656
:103AA00070BD0000BA130108257300000038014002
:103AB000FE4AD168C3B289B221F4FF7141EA4301E1
:103AC000D160FB4B196840F2CF3289B211403022ED
:103AD00002EA10120A436FF3090010431860F44819
:103AE00001220830026000200146401C0129FBDB56
:103AF000EF48001D026000200146401C0129FBDB4D
:103B00007047EC4B10B502221A6000221346521C7B
:103B1000012BFBDBE84A0424146000221346521CEC
:103B2000012BFBDB41EA0020FFF7C2FFE248001F48
:103B3000046000200146401C0129FBDB10BDDD4A6A
:103B400010B50221116000210A46491C012AFBDB45
:103B5000D94904240C6000210A46491C012AFBDBD8
:103B6000FFF7A6FFD448001F046000200146401C58
:103B70000129FBDB10BDCF4B022210B51B1D1A60C3
:103B800000221346521C012BFBDBCB4A0424146099
:103B900000221346521C012BFBDB41EA0020FFF7F9
:103BA00087FFC548001F046000200146401C012912
:103BB000FBDB10BD30B50C4605462A210020FFF77F
:103BC000DAFFC5F307210020FFF79BFFE9B20020D1
:103BD000FFF797FF6D1CC5F307210020FFF791FF4A
:103BE000E9B20020FFF78DFF2B210020FFF7C3FF74
:103BF000C4F307210020FFF784FFE1B20020FFF7A4
:103C000080FF641CC4F307210020FFF77AFFE1B2B4
:103C1000BDE83040002074E7F0B51C4616460D465E
:103C20000746F02800D3EF274FF4A070411E8542CD
:103C300000D30D46F02E00D3EF26844200D30C466D
:103C40002A210020FFF797FFC7F307210020FFF785
:103C500058FFF9B20020FFF754FFC6F307210020F8
:103C6000FFF74FFFF1B20020FFF74BFF2B210020A1
:103C7000FFF781FFC5F307210020FFF742FFE9B2FC
:103C80000020FFF73EFFC4F307210020FFF739FFB4
:103C9000E1B20020FFF735FFBDE8F0402C21002005
:103CA00069E740F23F13EF22B6E710B51446FFF77D
:103CB00081FF2C210020FFF75EFFA0B2BDE810407D
:103CC0003DE770B57A4C0220241D2060002001469B
:103CD000401C0129FBDB0120206000200146401C24
:103CE0000129FBDB0425256000200146401C012939
:103CF000FBDB00220A231146104607F0BEFE6C4E85
:103D00000836356000200146401C0129FBDB0022FB
:103D100014231146104607F0B0FE2560002001462E
:103D2000401C0129FBDB002278231146104607F0D6
:103D3000A4FE11210020FFF71EFF00227823114668
:103D4000104607F09AFE36210020FFF714FFC0212D
:103D50000020FFF7D6FE3A210020FFF70CFF552187
:103D60000020FFF7CEFEB2210020FFF704FF0C2158
:103D70000020FFF7C6FE0C210020FFF7C2FE002145
:103D80000846FFF7BEFE33210020FFF7BAFE3321BD
:103D90000020FFF7B6FEB7210020FFF7ECFE35212B
:103DA0000020FFF7AEFEBB210020FFF7E4FE30212C
:103DB0000020FFF7A6FEC0210020FFF7DCFE2C212B
:103DC0000020FFF79EFEC2210020FFF7D4FE012154
:103DD0000020FFF796FEC3210020FFF7CCFE17213D
:103DE0000020FFF78EFEC4210020FFF7C4FE202133
:103DF0000020FFF786FEC6210020FFF7BCFE0F2142
:103E00000020FFF77EFECA210020FFF7B4FE0F213D
:103E10000020FFF776FEC8210020FFF7ACFE082146
:103E20000020FFF76EFE55210020FFF7A4FE902131
:103E30000020FFF766FED0210020FFF79CFEA421A2
:103E40000020FFF75EFEA1210020FFF75AFEE021CF
:103E50000020FFF790FEF0210020FFF752FE002126
:103E60000846FFF74EFE0A210020FFF74AFE102108
:103E70000020FFF746FE12210020FFF742FE1B2123
:103E80000020FFF73EFE39210020FFF73AFE4421D3
:103E90000020FFF736FE47210020FFF732FE2821E1
:103EA0000020FFF72EFE1221002007E00010014045
:103EB0000C0C01401008014014140140FFF721FED2
:103EC00010210020FFF71DFE16210020FFF719FE2C
:103ED0001B210020FFF715FEE1210020FFF74BFE1C
:103EE000F0210020FFF70DFE00210846FFF709FE34
:103EF0000A210020FFF705FE10210020FFF701FE38
:103F000011210020FFF7FDFD1A210020FFF7F9FD28
:103F10003B210020FFF7F5FD34210020FFF7F1FDE4
:103F20004E210020FFF7EDFD3A210020FFF7E9FDCB
:103F300017210020FFF7E5FD16210020FFF7E1FD26
:103F400021210020FFF7DDFD22210020FFF7D9FD10
:103F50002A210020FFF70FFE00210846FFF7D1FDC0
:103F600000210846FFF7CDFD00210846FFF7C9FDF7
:103F7000EF210020FFF7C5FD2B210020FFF7FBFDFF
:103F800000210846FFF7BDFD00210846FFF7B9FDF7
:103F900001210020FFF7B5FD3F210020FFF7B1FD13
:103FA00029210020FFF7E7FD2C210020FFF7E3FD8A
:103FB0000820306000200146401C0129FBDB14234F
:103FC000BDE8704000221146104607F056BDF8B516
:103FD00001213C2002F0F3FD4FF4FF70ADF800002A
:103FE00003258DF8025010248DF803406946FE48E1
:103FF00002F0A7FB4FF63040ADF80000FB4E8DF805
:1040000002508DF803406946304602F09AFB0120C9
:10401000ADF800006946304602F093FB0424ADF889
:1040200000406946F24802F08CFB0225ADF80050D2
:104030006946F04802F085FBADF80050694630460D
:1040400002F07FFBADF800406946304602F079FB94
:104050000820ADF800006946304602F072FBFFF719
:1040600030FEF8BDF0B50746002140F23F13EF22C5
:104070000846FFF7D1FD00254FF4A076002438460E
:10408000FFF75DFD641CA4B2B442F8D36D1CADB261
:10409000F02DF3D3F0BD2DE9F0411E4694460F46B6
:1040A0000546DDF81880FFF7B7FD0AE03C4604E05E
:1040B0004046FFF744FD641CA4B2B442F8D96D1C1D
:1040C000ADB26545F2D9BDE8F08110B514464B1C80
:1040D000421CFFF7A1FD2046BDE810402FE52DE969
:1040E000F0419C4616460D460746DDF81880FFF75E
:1040F00093FD0AE03C4604E04046FFF720FD641CC7
:10410000A4B2B442F8D96D1CADB26545F2D9DAE774
:1041100008B500924A1C93B2421C491E401E92B23E
:1041200089B280B2FFF7DBFF08BD2DE9FC4F002606
:10413000A2EB000C81465F1A701E35468846BCF122
:10414000000F02DD4FF0010102E003D14FF000014A
:10415000009102E0CCF1000C0090002F02DD4FF046
:10416000010002E003D14FF00000834602E08346E5
:10417000C7F10007BC4501DD644600E03C46601C19
:104180004FF0000A019015E01FFA88F11FFA89F03C
:104190000B9AFFF79AFF66443D44A64202DD009960
:1041A000361B8944A54201DD2D1BD8440AF10100CC
:1041B0001FFA80FA01998A45E6DDBDE8FC8F2DE9FA
:1041C000F8411D46079C1646884607460B46009454
:1041D000FFF7ABFF3A462B46414610460094FFF7E7
:1041E000A4FF2B463246194638460094FFF79DFF40
:1041F00032462B46414610460094FFF796FFBDE835
:10420000F8812DE9FF4F844600241546032081B034
:104210000F46A0EB450661E0A7EB0408ACEB0509EF
:104220001FFA88F11FFA89F0049AFFF74EFF0CEB92
:10423000050B1FFA88F11FFA8BF0049AFFF745FF70
:10424000781981B2ACEB040A00901FFA8AF0049A44
:10425000FFF73BFF1FFA88F11FFA89F0049AFFF776
:1042600034FFA7EB05081FFA88F11FFA8AF0049AB9
:10427000FFF72BFF07EB040A1FFA8AF11FFA8BF0F6
:10428000049AFFF722FF1FFA88F10CEB04081FFACB
:1042900088F0049AFFF719FF0098049A81B21FFA78
:1042A00088F0FFF712FF1FFA8AF11FFA89F0049ACB
:1042B000FFF70BFF641C002E03DA06EB8406B61D25
:1042C00004E0601B06EB80066D1E0A36781981B289
:1042D0000CEB040080B2049AFFF7F7FEAC429BDDC2
:1042E00005B0BDE8F08F2DE9F05F14460D4608F0EB
:1042F000E0FF80468946284608F0DBFF06460F4669
:10430000204608F0D6FF04460D4642464B4608F0CC
:104310004AFF394A0123C2E9000102F15800374936
:10432000C0E900678A460B60DAF8000000EBC000C5
:10433000400008F0ADFFCAE9020102460B4600202A
:104340002F4909F027F8504616D88068DAF80C1083
:104350000AF0D6FC22462B4608F028FF42464B4680
:1043600008F021FF244BDAF8002003EBC202C2E977
:104370000001DAE902011FE0DFF888B0826800205E
:104380005946DAF80C3008F00BFF0AF0B9FC224667
:104390002B4608F00BFF42464B4608F060FE164BDA
:1043A000DAF8002003EBC202C2E90001DAE90223D5
:1043B0000020594608F0F4FE0AF0F0FC22462B4695
:1043C00008F0F4FE32463B4608F0EDFE0A4BDAF800
:1043D0000020583303EBC202C2E90001DAF8000002
:1043E000401CCAF800000FE000100140000C014022
:1043F0000014014000080140081900205800002066
:1044000000805640008066400A288DDDBDE8F09FA0
:104410002DE9FF4F0F46002485B015460321824643
:10442000A1EB4508FE49129801EBC0068AE0AAEB11
:104430000500814608F02CFFCDE90001D6E90023F4
:1044400008F090FF08D8002C06DB381B81B21FFA59
:1044500089F0089AFFF739FEDDE90001D6E900236B
:1044600008F080FF08D8002C06DB381B81B21FFA49
:1044700089F0089AFFF729FE0AEB0500834608F049
:1044800007FFCDE90301D6E9002308F06BFF08D848
:10449000002C06DB381B81B21FFA8BF0089AFFF75D
:1044A00014FEAAEB0400029008F0F2FED6E9002305
:1044B00008F058FF08D8002D06DB781B81B202985F
:1044C000089A80B2FFF701FE0AEB0400029008F0A0
:1044D000DFFED6E9002308F045FF08D8002D06DBF3
:1044E000781B81B20298089A80B2FFF7EEFDDDE9F1
:1044F0000001D6E9002308F035FF06D82CB939466B
:104500001FFA89F0089AFFF7E0FDDDE90301D6E91B
:10451000002308F027FF06D82CB939461FFA8BF084
:10452000089AFFF7D2FD641CB8F1000F04DA08EB1B
:10453000840000F1060805E0611B08EB810000F132
:104540000A086D1EAC427FF772AF09B0C9E62DE9CB
:10455000FF4F8946B3494FF0040A0746C1F800A04F
:1045600000210846491C0128FBDB00251001DFF86B
:10457000B8B2A0F5007808EB050100241BF801C0D3
:1045800009EB0506C4F107002CFA00F0C00731461C
:1045900007EB040001D0039A00E00D9AFFF785FBBA
:1045A000641CA4B2082CEDD36D1CADB2102DE2D367
:1045B0009C49091FC1F800A000200146401C0129A8
:1045C000FBDBBDE8FF8F2DE9F843994615460E4603
:1045D00004464FF49878089F0CE0E82C0DD8464527
:1045E0000BD84B46314620460097FFF7B0FF083402
:1045F000A4B26D1C2A78002AEFD1BDE8F8832DE91A
:10460000FF5F8A4687494FF0040B15468046C1F884
:1046100000B000200146401C0129FBDB0024834E32
:1046200031E0C4EBC40000EB80002A78315C914299
:1046300028D100EB0609697899F80100884221D158
:10464000002700250AEB070C05EB470109EB0100E9
:104650000024C6786146300608EB040000EBC50074
:1046600001D5039A00E00E9AFFF71FFB7006060EB5
:10467000641C082CEED36D1C022DE5DB7F1C102F73
:10468000DFD304E0641C04F069F8A042C9D865498E
:10469000091FC1F800B000200146401C0129FBDBC6
:1046A000BDE8FF9F70B514460D4608F021FCC1001F
:1046B00000012960206070BD2DE9FF4F8A465949ED
:1046C0004FF0040B8446C1F800B000200146401CA6
:1046D0000129FBDB0025203A02EB42004FF6FF7870
:1046E0004FEA0019524909EB450001EB400211F86D
:1046F00010005288002442EA002086B20AEB050727
:10470000300439460CEB040001D5039A00E00D9A01
:10471000FFF7CBFA641CA4B208EA46060C2CEFD3D0
:104720006D1CADB2182DDDD33E49091FC1F800B094
:1047300000200146401C0129FBDB42E72DE9F8433C
:10474000994615460E4604464FF49478089F0CE0AF
:10475000E42C0DD246450BD24B46314620460097FD
:10476000FFF7AAFF0C34A4B26D1C2A78002AEFD1FF
:1047700043E72DE9F04398462E4B02EBC20203EBD0
:104780000217284A4FF0040CDDF81C90C2F800C054
:104790000024A7F590572246641C012AFBDB01F197
:1047A0002F0300F11702FFF737FA00260024BD5D42
:1047B000280601D5404600E04846FFF7C0F96806E4
:1047C000641C050EA4B2082CF2D3761CB6B2902E4F
:1047D000ECD31448001FC0F800C000200146401C64
:1047E0000129FBDBBDE8F0832DE9F8439946154626
:1047F0000E4604464FF48878089F0CE0D82C0DD262
:1048000046450BD24B46314620460097FFF7B1FF95
:104810001834A4B26D1C2A78002AEFD1EDE600000E
:104820000819002014140140F3130108D19601085F
:10483000F4190108F43D01082DE9F0471546A54A91
:104840000427DDF820A09946176000221446521C68
:10485000012CFBDB01F12F0300F12F02FFF7DCF944
:1048600000249D4E26E040F2231104FB01F02A783B
:10487000315C91421DD100EB060C69789CF8010077
:10488000884216D100264FF490780CEB06000025E4
:10489000C478200601D5484600E05046FFF74FF99E
:1048A0006006040E6D1C082DF3D3761C4645ECD330
:1048B00004E0641C03F054FFA042D4D88548001FD4
:1048C000076000200146401C0129FBDBBDE8F087A2
:1048D0002DE9F84398461546894606460024089F68
:1048E00016E004EB440006EBC000802A80B2434689
:1048F000009706D24946FFF73CFF641CE4B26D1CEA
:1049000006E02A464946FFF797FFA41CE4B2AD1C17
:104910002A78002AE5D170E670B514460D4608F0F5
:10492000E7FA00EB4001C90000EB400000012960FC
:10493000206070BD2DE9FF5F8B46664980460420EC
:104940001546086000200146401C0129FBDB0024BD
:10495000624E33E0C4EB041000EB80002A78315C37
:1049600091422AD100EB060A69789AF80100884240
:1049700023D10027002507EB47090BEB070C09EBB8
:1049800005010AEB01000024C6786146300608EBF9
:10499000040000EBC50001D5039A00E00E9AFFF772
:1049A00084F97006060E641C082CEED36D1C032DD2
:1049B000E5DB7F1C182FDDD304E0641C03F0CCFE84
:1049C000A042C7D843490420091F086000200146BF
:1049D000401C0129FBDB63E62DE9F84398461546A8
:1049E000894606460024089F12E006EB0400802A50
:1049F00080B24346009705D24946FFF75DFE0C346E
:104A00006D1C05E02A464946FFF794FF1834AD1C9B
:104A10002A78002AE9D1F0E570B514460D4608F071
:104A200067FA00EB4001890000EB4000C0002960FC
:104A3000206070BD2DE9F843984615468946064624
:104A40000024089F12E006EB0400802A80B243464F
:104A5000009705D24946FFF77AFD08346D1C05E042
:104A60002A464946FFF7CBFD1034AD1C2A78002AB0
:104A7000E9D1C2E570B514460D4608F039FA00EBED
:104A80004001890000EB4000C0002960206070BD3B
:104A90000346012000E05843491EC9B2FBD27047CB
:104AA000082138B10E48016000200146401C012950
:104AB000FBDB70470A48001F016000200146401CD4
:104AC0000129FBDB704706480C38006840F3C00042
:104AD000401C7047141401403A970108F473010810
:104AE000140C0140FF4B10B500201978012404FA82
:104AF00000F20A4203D184400C431C7010BD401CDC
:104B0000C0B20828F3D3082010BD082805D201211F
:104B10008140F44802788A4302707047F14A9178E4
:104B20005078814201D108207047EE481030405C37
:104B3000491C01F0070191707047EA48417880787C
:104B4000491C01F00701814201D10120704700207A
:104B50007047E44841788078814201D10120704754
:104B60000020704705F0DCBBDF49085C7047DE4978
:104B7000891E085C70471CB5DC4914460978890712
:104B800011D000EB400101EBC000D94901EBC0009E
:104B90000021AFF22F032830CDE9001064224FF43A
:104BA000FA7005F004FB002C04D0BDE81C400A207C
:104BB000FCF712BA1CBD2DE9FF4105F07FFE8046CF
:104BC000FFF7C7FFC74F80B10020F8703871024669
:104BD0000121C84803F02FF9F86800B1804704B0FC
:104BE0004046BDE8F04105F06DBEBE48B9781030D2
:104BF000465CC14806EB460100EBC104608808280A
:104C000001D3082500E0C5B28DF80450618A4FF049
:104C10000042A08A42EA8121084300902A460DF111
:104C20000500A16808F036F9684604F0A4FC0028E5
:104C3000D5D06088401B0004000C608005D0A068BF
:104C40002844A0600120F870C9E7606803F007FEFF
:104C5000FFF764FF3046FFF758FF227B04F10D0198
:104C6000E07BFFF788FFEDE79E4B30B45A789C78E5
:104C7000511C01F00701A14207D130BC9FA34FF4A2
:104C80009472A6A1002004F033B8964C1034A054BE
:104C90005970D878002801D130BC8CE730BC7047FF
:104CA000904A10B550790321401CB0FBF1F301FB91
:104CB0001300507100EB400101EBC0008C4901EB87
:104CC000C004207840070DD56088A0F57F41FF39EA
:104CD00008D0002806D004F1100005F091FA10B1B8
:104CE0000020207310BD207B401CC0B2207303281D
:104CF000F8D38FA34FF4A77288A1002003F0F8FF28
:104D0000BDE8104005F00CBB70B5794D002404EBF4
:104D1000440000EBC40005EBC0000646582108F033
:104D2000D2F83471641CE4B2032CF0D370BD0020BF
:104D3000714B0246303B03EB0011401C0A804A8055
:104D40004A60C0B28A600328F5D366480270427098
:104D50008270C2700271704770B50C46054608211A
:104D60000A2003F0FEFE002807D012218170C0E95E
:104D70000254BDE8704003F00BBF70BD2DE9F04F49
:104D800087B05C4802F04CFF04A803F031F800241F
:104D900001258DF816408DF818408DF817508DF8C4
:104DA00019404FF0030A6D488DF81A408DF81240F3
:104DB0008DF814A04FF002098DF81B508DF81340A8
:104DC0008DF81590006866494008B0FBF1F0ADF829
:104DD000100004A804F046FB42484FF0040B41F6D3
:104DE000FF77C0888DF80A40C0F309010BEBC106BC
:104DF0004FEA16488DF80B408DF80C50ADF8008046
:104E0000ADF80440ADF80260ADF80670ADF80840AA
:104E10008DF80D50684602F08AFF8DF80A508DF823
:104E20000B408DF80C50ADF80080ADF80440ADF8A3
:104E30000260ADF80670ADF808508DF80D50684668
:104E400002F075FF8DF80A90FE1E8DF80B408DF86C
:104E50000C50ADF80040ADF80440ADF80260ADF87C
:104E60000670ADF808408DF80D50684602F05FFFFF
:104E70008DF80AA08DF80B408DF80C50ADF800406D
:104E8000ADF80440ADF80260ADF80670ADF808501A
:104E90008DF80D50684602F04AFF8DF80AB07F2663
:104EA00044F20C088DF80B408DF80C50ADF8004022
:104EB000ADF804604FF6FF77ADF80280ADF80670EC
:104EC000ADF808408DF80D50684602F030FF05201F
:104ED0008DF80A008DF80B408DF80C50ADF80040AD
:104EE00040E0000068000020F01301085302002099
:104EF000B819002000640040F01A0020556E726559
:104F0000636F76657261626C652062756666666560
:104F100072206572726F72200D0A0000536F7572F5
:104F200063655C4150505C43616E436D642E630069
:104F3000556E7265636F76657261626C652045724D
:104F4000726F722C205072657061726520746F20D0
:104F50005265736574200D0A00000000A80000204F
:104F600040420F00ADF80460ADF80280ADF8067065
:104F7000ADF808508DF80D50684602F0D8FE0620B6
:104F80008DF80A0046F20C088DF80B408DF80C5095
:104F9000ADF80040ADF80460ADF80280ADF80670E1
:104FA000ADF808408DF80D50684602F0C0FE0720AD
:104FB0008DF80A008DF80B408DF80C50ADF80040CC
:104FC000ADF80460ADF80280ADF80670ADF8085099
:104FD0008DF80D50684602F0AAFE01220221FE481B
:104FE00002F029FF01221021FB4802F024FF0022D9
:104FF0000121F94802F01FFF07B0BDE8F08F70B53E
:10500000F64A0221202005F0E0FBF44CA41F10B169
:105010004FF6FF70E08000256571FFF775FEFFF722
:1050200086FEFFF7ABFEE56070BD70B505F046FC8F
:105030000646EB4DFFF772FD044608280AD204EB42
:10504000440005EBC000406803F009FC2046FFF770
:105050005CFDEFE7E1480021801F01708170417025
:10506000C17001713046BDE8704005F02BBCDB49D2
:1050700010B5891F0878CA78104309D00879401CF8
:10508000C0B20871B42803D3FFF7CFFFFFF776FE55
:10509000BDE8104004E62DE9F047D24B81460E46AC
:1050A00018680021924600780F46C01CC4B2CE4852
:1050B000B0EB865F1DD0002004E01A68125C5140FE
:1050C000401CC0B2A042F8D31A689846115518681F
:1050D000FE2100F8011CA01C03F08FFB5FEA000C0E
:1050E00007D0FFF7FFFC0546082805D3604603F00C
:1050F000B6FB3846BDE8F087B94B05EB450203EB3C
:10510000C2000027C0F804C0C0F808C0C773A11CC3
:1051100023F83210418007744682A0F8149080F87A
:105120000CA0D8F8002052784273D8F8002092786A
:105130008273D8F80010A21C6046491E07F0AAFE30
:105140002846FFF791FD0120D4E710B50846FDF78A
:10515000F1FF002010BDA54810B500688179C01C82
:1051600001F07F02102A03D1090601D4FDF7E2FF06
:10517000002010BD9D4910B509688978212901D109
:10518000FFF7E9FF002010BD2DE9F0410E4604466F
:10519000022803D19649012081F8BA0004EB4400AB
:1051A000934F00EBC40557F8350020F03800183055
:1051B00047F83500201DC0B203F07EFB07EBC501A8
:1051C000002088718B488A7A3146005DFEF70EF91F
:1051D0000020BDE8F08138B5044687A340F246427E
:1051E000AFF2C8210090042003F082FD04EB4400DC
:1051F0007F4900EBC40051F8302022F0050241F84D
:10520000302001EBC00000228271104638BD00EB57
:10521000400202EBC000764A52F8303061F30003DE
:1052200042F83030704700EB4001714A01EBC00199
:1052300052F8313023F03803183342F8313001216D
:10524000E5E770B51546674C049A012803D002289B
:1052500017D0002070BD206802702668042070708E
:105260002068817020681946C01C07F013FE5B4956
:105270005F48891F2A46B0F86000C988BDE87040C1
:1052800009E7D01CC5B22068057026680920707037
:105290002068817026680220F07026680020307136
:1052A000266870710620252908D02068817126683B
:1052B00021210720B17021686D1C0D702168084400
:1052C000194607F0E7FD00F073FF012070BD0EB531
:1052D000012201468DF8042081238DF80730090A48
:1052E0008DF805100421C0B28DF8061000EB4001C6
:1052F0003F4B01EBC00103EBC10101AB0A8105216A
:10530000009100222121FFF79CFF0EBD0146AFF264
:10531000410021E51CB50446006810F0380F14D098
:105320004FF0604101EBB0104FEAB06010F0380F61
:1053300020600AD004F11000CDE900406088334BB2
:105340000246002104F033FF1CBD31A340F2AD3210
:10535000AFF23841042003F0CBFC2068002120F09C
:10536000040020600020A0712079FFF750FF207911
:10537000BDE81C400021FEF72CBA0146AFF26B00DD
:10538000EAE42DE9FC4106460D460F1D00EB460000
:1053900000EBC601164800EBC1046088A0F57F4110
:1053A000FF390AD048B104F11001AFF23103CDE961
:1053B00000410246002104F0FAFE3846FDF739FFAD
:1053C00018A340F23942AFF2AC410420009603F03A
:1053D0008FFC687832E00000006400406E0000201E
:1053E000F01A002078A601080000C0FF74A601088A
:1053F000B8190020F0130108726376207265736596
:1054000074203A2025640D0A000000007B53000838
:105410006C6F7374206865617274626561740D0AE3
:1054200000000000726376206865617274626561D5
:1054300074203A2025640D0A0000000046EA00208E
:105440004034CDE90004F848C08800EB80008000BB
:10545000AFF247130246002104F0A9FE3046FFF7E1
:10546000E2FE0020BDE8FC812DE9FC41054600EB91
:105470004500EE4A00EBC50002EBC00400270E46D3
:10548000A7718988618052F8301041F0040142F818
:105490003010281DC0B203F00FFA6088E4A340F278
:1054A000FE32AFF288510090042003F021FC6088A6
:1054B00004F11001A0F57F42FF3A09D040B1AFF2EC
:1054C0004513CDE900410246002104F070FE02E0E0
:1054D000084604F03CFE2846FFF7A5FED7483146B3
:1054E000405DFDF74CFF67730020BBE708B503463E
:1054F000D34801688879C91C00F07F02022A1FD0B6
:1055000003DC8AB1012A04D114E0102A22D0112A26
:105510001CD0CCA340F29942AFF200610090012070
:1055200003F0E6FB002008BD0006FBD51846BDE8E9
:10553000084099E70006F5D41846BDE8084020E782
:105540000006EFD41846BDE8084044E61846BDE81A
:10555000084019E60006E5D40846FDF7EBFDE1E753
:10556000B74910B509688978212901D1FFF7BEFF35
:10557000002010BD10B504F04EFF4FF0E021896906
:1055800089B2084307F07EFC07F072FC4FF4FF710C
:1055900090FBF1F201FB120000F5007080B210BD2B
:1055A0002DE9F0418046AD480C4600EB041508EBB0
:1055B00048029E4802EBC80200EBC200E989018163
:1055C000012C1DD0002181720021C17229886868D8
:1055D00006F060FC002845D0934EA149984FF08812
:1055E00030810120087038684078042821D00928CB
:1055F00008D00B282ED00D2809D006F0CFFB20E0D4
:105600000121E0E7012C2DD806F012FB19E0012C56
:1056100028D83868877806F05EFB0446052F11D13C
:1056200030899049B1EB805F0CD1FFF7A3FF308147
:1056300008E0012C404602D8FFF792FF01E0FFF797
:1056400099FD0446002C0DD0E8893189BDE8F04170
:10565000002220E5012000F014FF3868BDE8F04189
:1056600000F024BEB5E52DE9F04106467B480D4625
:1056700000EB061401F10B082088002758B161885F
:10568000AA7A114489B2884202D31FD9082A1DD2AE
:105690002780606838E0E87AFE2838D1287B401DF2
:1056A000208003F0AAF86060A06018B1AA7A414691
:1056B00007F0F0FBA97AA0680844A060A87A60808F
:1056C00026736868C0F38920E0810DE0606818B136
:1056D0004146A06807F0DEFBA97AA0680844A060F4
:1056E0006088A97A084460806188208881420ED150
:1056F00000280CD0606818B131460120FFF750FF38
:1057000027806780606808B103F0A9F8676060E5EA
:1057100045498A1DC88002212020FBF7B1B910B588
:10572000C41CC0780C2803D1601C04F062FE08B1D0
:10573000002010BDB4F80D0040BAC0F30A00FFF716
:10574000E7FFFFF71BFB012010BD10B5C26800F199
:105750000801C2F30900A0F54073C2F38922FF3BA0
:1057600005D0314BDB88834203D101200BE00020C0
:1057700009E0012809D1022A02D0032A02D004E05C
:10578000022000E00320FFF76EFF002010BD00EBB9
:10579000400202EBC00238B5244800EBC2000022F0
:1057A00084798271012C06D0022C01D0032C02D105
:1057B000C8B2FDF7DBFB2CA340F2D232AFF6A40156
:1057C0000120009403F094FA38BD00EB400101EB96
:1057D000C000164951F8302022F0040241F8302070
:1057E00001EBC0000022827170472DE9F0411446A0
:1057F0000D46DDE9066201462048012902D0022952
:1058000062D13DE001680A7007680421797001687F
:105810008B7000683146C01C07F03CFB21462846CF
:10582000BDE8F041002236E468000020B8190020ED
:105830006862702025640D0A00000000F013010862
:1058400074A60108756E6B6E6F77206D7367207498
:105850007970652025640D0A00000000C01A002040
:105860004C0200200000C0FF43616E436362546934
:105870006D656F75742025640D0A000078A6010817
:10588000D11CCCB201680C700568092169700168EF
:105890008B7005680221E97005680021297105688F
:1058A00069710621252B08D001688B7105682123B9
:1058B0000721AB700368641C1C7000680844314603
:1058C00007F0E8FA00F074FC002082E42DE9F041D2
:1058D000934C17460D460646DDE906122068027015
:1058E00020684770206883702068C01C07F0D2FAD7
:1058F00029463046BDE8F0410022FFF7CCBB89497C
:10590000C86070478168002901D0C06808477047A7
:1059100070B58AB0C4B204208DF805008DF8060079
:1059200000208DF807007F487F49012680798DF897
:1059300008008868CDF80900C868CDF80D00088A0D
:10594000ADF811000B208DF8040004EB440000EBCF
:10595000C401764801AB00EBC1050F202E810090F9
:10596000002221212046FFF76CFC002809D0241DCD
:10597000E0B24FF6FF734FF4FA72012102F0D1FF4B
:10598000AE710AB070BD2DE9FC410746087990461A
:105990000C4640F6B836012803D1617909B142F2CC
:1059A000107607EB470101EBC702604901EBC20526
:1059B000A979C1B1012801D103290BD05CA34FF40F
:1059C000BF62CDE90001AFF6AC21002003F090F9F1
:1059D000FF2047E55EA340F2FD52AFF6C0210090E4
:1059E000002003F085F90120288102462346212169
:1059F0003846CDF80080FFF724FCE8B1E0780006D7
:105A000016D44FF47A7096FBF0F000EBC00101EB76
:105A100000104FF6FF7101EA80023F1D2379F8B2B2
:105A2000012102F07EFF2079012803D00220A87115
:105A3000002017E50320FAE749A340F21B62AFF606
:105A40002431042003F054F9F2E700B535484A49FF
:105A500085B0C088B1EB805F02D1FF2005B000BDEA
:105A600002218DF8041000218DF8051004218DF815
:105A7000061003218DF807102C49ADF8080001200D
:105A8000A1F8B8000620009001AB002221210220DD
:105A9000FFF7D7FBC0B2E1E70146AFF28B10FFF78B
:105AA0005BB91CB500EB4001204B01EBC00203EBDE
:105AB000C2018C79002C21D113F8322052071DD459
:105AC000012808D11A4692F86520032A03D393F8D7
:105AD000B020520712D44A7BFF2A01D2521C4A73CB
